:020000040800F2
:1000000088400020419A0108A10100084B9A01088C
:10001000A3010008A7010008AB01000800000000D0
:10002000000000000000000000000000AF01000818
:10003000B101000800000000579A0108F9CE00083D
:100040005B9A01085B9A01085B9A01085B9A0108B8
:100050005B9A01085B9A01085B9A01085B9A0108A8
:100060005B9A01085B9A01085B9A01085B9A010898
:100070005B9A01085B9A01085B9A01085B9A010888
:100080005B9A01085B9A01085B9A01085B9A010878
:100090005B9A01085B9A01085B9A0108B3010008AA
:1000A0005B9A01085B9A01085B9A01085B9A010858
:1000B0005B9A0108C5010008CD0100085B9A0108A0
:1000C0005B9A01085B9A01085B9A01085B9A010838
:1000D0005B9A0108CF010008D7010008DF01000882
:1000E0005B9A01085B9A01085B9A01085B9A010818
:1000F0005B9A01085B9A01085B9A01085B9A010808
:100100005B9A01085B9A01085B9A01085B9A0108F7
:10011000E7010008EF0100085B9A01085B9A0108FB
:100120005B9A01085B9A01085B9A01085B9A0108D7
:100130005B9A01085B9A01085B9A01085B9A0108C7
:100140005B9A01085B9A01085B9A0108D5EF0008E9
:100150005B9A01085B9A01085B9A0108F7010008A5
:100160005B9A01085B9A01085B9A01085B9A010897
:100170005B9A01085B9A01085B9A01085B9A010887
:100180005B9A01085B9A0108DFF810D01BF0EEFAC9
:1001900000480047F1030008AFF3008088400020CA
:1001A000704700BFFEE700BFFEE700BFFEE77047F5
:1001B000704710B5802013F0E0F810B1802013F0E4
:1001C00032F910BD10B510F08EFC10BD704710B59F
:1001D0000CF0FAFE10BD10B50CF0B7FF10BD10B555
:1001E0000DF083F810BD10B50DF056F910BD10B527
:1001F0000DF01FFA10BD10B510F00BFC10BD000083
:1002000010B519F02FFC012019F037FC10BD70B5A6
:100210000246002012E0145C594B1D881B885B1CB1
:10022000574E3380574B5C5533461B88B3F57A7F66
:1002300002D1002334462380431CD8B28842EADB33
:1002400070BD10B54E4800884F490988401A04B265
:10025000002C02DA04F57A7004B23F2C24DB002073
:100260004A4908703F204A490870002014E0464976
:100270000A880988491C444B198042498A5C444BCE
:10028000411C5A5440490988B1F57A7F02D10021B6
:100290003D4A1180411CC8B23F28E8DB40223C495E
:1002A00000201AF06AFC34E038480078401C3749D6
:1002B00008700846007837490978884229D100201B
:1002C0003249087032490C7000BF1BE0A04213DABB
:1002D0002D490A880988491C2B4B198029498A5CB9
:1002E0002B4B411C5A5428490988B1F57A7F07D114
:1002F0000021254A118003E00022254B411C5A545D
:10030000411CC8B23F28E1DB4022214900201AF0FD
:1003100034FC10BD10B50446012C02D0032C11D1C1
:100320000EE059B923B1012B05D0022B04D100E016
:1003300000BF402010BD00BF00BF00BF00BF01E0F4
:100340000120F7E700BF0020F4E72DE9F04706465B
:10035000884614469946089F022E02D0032E0CD1DF
:100360000AE0012504E0605D01F0C4FA681CC5B232
:100370002078A842F7DA00E000BF00BFBDE8F087B0
:10038000040000209C050020020000200600002040
:1003900084090020000000201AF0E2BA7047002013
:1003A00070470020704700207047002070470020F1
:1003B00070470020704700207047002070470020E1
:1003C00070470020704700207047002070470020D1
:1003D0007047002070471AF0EABA70470020704753
:1003E000002070471AF02EB97047000000BFFEE7EA
:1003F00000F029F90349087000F0B2F801E000F0BC
:10040000D5F8FCE72818002010B57B4840687A49E9
:1004100008600CF020FD784948607849C86076484B
:10042000406875490968401A734988600AF078F88D
:10043000012006F0C5FF01200AF0A3F80AF01BF91D
:100440000FF059FB6E49012008F07CF9012008F0FB
:10045000D3FB9FED6C0A02F073FE01F052FA0CF030
:10046000FAFC6649086108460069C968401A634990
:10047000486110BD10B59FED640A07F03CFF0220F3
:1004800009F038FE022002F000FC10BD10B506F0A5
:10049000DAF85B489FED5D0A07F05AFC9FED5B0AB6
:1004A00010F0D6F905200AF0F7F810BD10B50CF0E1
:1004B000D2FC524908600A2001F0AEFC0A2008F084
:1004C0004EFC9FED530A07F055FA9FED510A07F0D5
:1004D0005AF99FED4F0A01F0EBFC0A200AF094FB59
:1004E0000CF0B9FC45494860084640680968401A64
:1004F000424988600A2003F0F5FF9FED450A03F0AA
:1005000020F89FED430A04F0B4F99FED410A04F08E
:100510007AF810BD10B51AF091FE142001F0B3FE68
:10052000142002F0CEFF3649142008F06EFD10BDF5
:1005300010B5322009F0E6FE32200FF014FC10BD99
:1005400010B534480068401C3249086032480068E1
:10055000401C314908604FF4FA700AF01FFF10BDCB
:10056000002000BF1FE000EB40012C4A02EB81019C
:1005700089884FF47A7292FBF1F100EB4002274B2D
:1005800003EB8202D18000EB40011A4602EB8101AD
:10059000C988012905DA012100EB400203EB820240
:1005A000D180411CC8B20728DDD3704770B5002444
:1005B00000BF1EE00CF08AFC054604EB440017491E
:1005C00001EB80008068281A04EB4401134A02EB17
:1005D0008101C98888420AD304EB4400114601EB2B
:1005E0008000856004EB440152F821008047601CC4
:1005F000C4B2072CDED370BDE80C0020F40C002040
:10060000541100206F12833A6F12033B0AD7A33BA9
:100610000AD7233C880100208C0100201400002010
:1006200010B50DF030F918B102205249087009E0F8
:100630000DF0A1F818B101204E49087002E0002029
:100640004C49087010BD10B54FF4806010F07EFA70
:100650000CF0CFFB64200CF027FC0AF067F90DF0DA
:1006600001FD04F09EFE0FF051FF0CF0EFF9322077
:100670000CF01AFC0CF052F90DF050F80DF038F9AE
:100680000FF0F4FD0A200CF00FFCFFF7C9FF0FF08C
:1006900077FE3949487008703648007828B900203C
:1006A000887001203549087208E0012032498870BD
:1006B00030480078022801D10DF0F9F80DF056FB12
:1006C0002D49C870FFF79CFD64200CF0EDFB4FF442
:1006D000E1300CF0C7FC0A200CF0E6FB4FF4E130EF
:1006E0000CF08EFD4FF416500CF03CFF24480CF03B
:1006F00072FE0AF07CFC64200CF0D6FB07F068FF69
:1007000064200CF0D1FB4FF4E1300CF009FC04F054
:100710008DFD0FF0D1FA06F04CFE00F041F81949BA
:1007200091F84A0130311AF05DFC17A30222AF2183
:10073000052000F0D9FD012010BD10B5044624B1FC
:100740000121154813F088F903E00121124813F044
:1007500052F910BD10B504462CB14FF480610F481A
:1007600013F07AF904E04FF480610C4813F043F978
:1007700010BD00006800002054180020FC1D00205F
:1007800020A107000C1E002053595320696E697484
:10079000204F4B2100000000000C024000080240E6
:1007A0000A21F748A0F89210A0F89E101421A0F892
:1007B000A4100A21A0F8AA100021A0F8B01032213C
:1007C000A0F8B610A0F8BC10A0F8C210A0F8C8108D
:1007D000C821A0F8E610A0F8EC10A0F8F8106421E9
:1007E000A0F8101100201BE000EB4002E44990311A
:1007F00001EB42014A8800EB4003E24901EB43016F
:100800004A8000EB4002DE49903101EB42018A88C8
:1008100000EB4003DB4901EB43018A80411CC8B275
:100820001828E1DB704770B504460D46164604F003
:10083000010018B131462846FFF7E9FC04F0040036
:1008400018B1314628460CF02BFF70BD3CB502466E
:10085000092A7CD008DC092A7AD2DFE802F079186C
:10086000B3FEFDFCFBFAF900302A72D008DC0D2A39
:1008700070D00E2A6FD00F2A6ED0202A68D1DCE209
:10088000402A6AD0412A69D0FA2AF7D11AE3BE4831
:1008900090ED1C0ABDEEC00A10EE100A00B20190E5
:1008A0009DF804300C78601C0870B84803559DF81A
:1008B00005300C78601C0870B4480355B24890EDC0
:1008C0001D0ABDEEC00A10EE100A00B201909DF89C
:1008D00004300C78601C0870AC4803559DF8053056
:1008E0000C78601C0870A9480355A74890ED1E0AB3
:1008F000BDEEC00A10EE100A00B201909DF804305F
:100900000C78601C0870A14803559DF805300C78E0
:10091000601C08709D4803559B4890ED160ABDEE7B
:10092000C00A10EE100A00B201909DF804300C7855
:10093000601C0870954803559DF805300C78601CC4
:10094000087092480355904890ED170A07E012E2AC
:10095000B9E254E210E236E26EE25EE26BE2BDEE34
:10096000C00A10EE100A00B201909DF804300C7815
:10097000601C0870854803559DF805300C78601C94
:10098000087082480355804890ED180ABDEEC00AF1
:1009900010EE100A00B201909DF804300C78601C33
:1009A00008707A4803559DF805300C78601C087073
:1009B00076480355744803780C78601C08707348B7
:1009C000035581E27248408801909DF804300C780C
:1009D000601C08706D4803559DF805300C78601C4C
:1009E00008706A4803556A48808801909DF8043071
:1009F0000C78601C0870654803559DF805300C782C
:100A0000601C0870614803556148C08801909DF8DA
:100A100004300C78601C08705C4803559DF8053064
:100A20000C78601C0870594803555A4890ED030A29
:100A3000BDEEC00A8DED000A9DF800300C78601CF8
:100A40000870524803559DF801300C78601C05E091
:100A500054E10DE1EDE0A3E090E037E008704B4891
:100A600003559DF802300C78601C08704748035508
:100A70009DF803300C78601C0870444803554248C8
:100A800090ED1F0ADFED440A20EE200ABDEEC00AF9
:100A900010EE100A00B201909DF804300C78601C32
:100AA00008703A4803559DF805300C78601C0870B2
:100AB0003648035500230C78601C087033480355F2
:100AC0000C78601C087031480355FDE1334890ED07
:100AD000370ADFED310A20EE200ABDEEC00A10EE23
:100AE000100A00B201909DF804300C78601C087068
:100AF000264803559DF805300C78601C0870234883
:100B00000355264890ED380ADFED230A20EE200A2F
:100B1000BDEEC00A10EE100A00B201909DF804303C
:100B20000C78601C0870194803559DF805300C7846
:100B3000601C087015480355184890ED390ADFED20
:100B4000160A20EE200ABDEEC00A10EE100A00B20E
:100B500001909DF804300C78601C08700B48035518
:100B60009DF805300C78601C087008480355002378
:100B70000C78601C087005480355A5E1A4E100004D
:100B80000C0D00202C0E0020DC370020BC0E0020B5
:100B9000C8030020443500200000C842C8010020DE
:100BA000F84890ED050ABDEEC00A8DED000A9DF8EB
:100BB00000300C78601C0870F34803559DF8013034
:100BC0000C78601C0870F04803559DF802300C78D2
:100BD000601C0870EC4803559DF803300C78601CCD
:100BE0000870E9480355E948408800909DF80030B6
:100BF0000C78601C0870E44803559DF801300C78AF
:100C0000601C0870E04803559DF802300C78601CA9
:100C10000870DD4803559DF803300C78601C08709F
:100C2000D948035500230C78601C0870D64803553A
:100C30004AE1D748C37D0C78601C0870D248035540
:100C4000D348C37A0C78601C0870CF480355002342
:100C50000C78601C0870CC4803550C78601C087038
:100C6000C94803550C78601C0870C74803552BE130
:100C7000C84890ED030ABDEEC00A10EE100A00B29B
:100C800001909DF804300C78601C0870BE48035534
:100C90009DF805300C78601C0870BB480355BD48B2
:100CA00090ED040ABDEEC00A10EE100A00B20190E9
:100CB0009DF804300C78601C0870B34803559DF80B
:100CC00005300C78601C0870AF480355B24890EDB1
:100CD000050ABDEEC00A10EE100A00B201909DF8A0
:100CE00004300C78601C0870A74803559DF8053047
:100CF0000C78601C0870A4480355E5E000200090C3
:100D00009DF800300C78601C08709F4803559DF8D2
:100D100001300C78601C08709B4803559DF8023028
:100D20000C78601C0870984803559DF803300C78C7
:100D3000601C087094480355002000909DF8003016
:100D40000C78601C0870904803559DF801300C78B1
:100D5000601C08708C4803559DF802300C78601CAC
:100D60000870894803559DF803300C78601C0870A2
:100D700085480355A8E0A7E0884890ED000A5FED9C
:100D80007A0A20EE200ABDEEC00A10EE100A00B268
:100D900001909DF804300C78601C08707A48035567
:100DA0009DF805300C78601C0870774803550023C7
:100DB0000C78601C0870744803550C78601C08702F
:100DC0007148035580E0764883780C78601C087081
:100DD0006D48035500230C78601C08706A48035561
:100DE0006F4843790C78601C0870674803556C485D
:100DF000C3780C78601C08706348035564E00020D9
:100E000008E0684B1C5C0D786B1C0B705E4B5C55EE
:100E1000431CD8B21728F4DB56E0002008E0624BF0
:100E20001C5C0D786B1C0B70574B5C55431CD8B287
:100E30001428F4DB48E047E046E05C480088019075
:100E40009DF804300C78601C08704F4803559DF8DD
:100E500005300C78601C08704B4803555348408897
:100E600001909DF804300C78601C087046480355CA
:100E70009DF805300C78601C0870434803554B48BA
:100E8000808801909DF804300C78601C08703E4802
:100E900003559DF805300C78601C08703A480355DE
:100EA0004248C08801909DF804300C78601C08709E
:100EB000354803559DF805300C78601C08703248A1
:100EC000035501E000E000BF00BF3CBD2DE9F84341
:100ED00081460D46904600200090AA219DF80020F2
:100EE000501CC0B20090284881549DF80010481C46
:100EF000C0B20090244800F80180182D01DBBDE845
:100F0000F8832B48465D9DF80010481CC0B2009045
:100F10001D48465400219DF80020501CC0B200908E
:100F20001948815469463046FFF790FC9DF800004F
:100F3000001F1549C87000240027002007E012494F
:100F4000095C2144CCB23919CFB2411CC8B29DF81A
:100F500000108842F3DB9DF80010481CC0B20090DE
:100F6000094844549DF80010481CC0B2009006483F
:100F700047549DF8002001464846FFF754FC00BF47
:100F8000BDE70000E8180020BC0E00207003002020
:100F900028180020A41D0020D0180020F0030020F5
:100FA000B4010020AC36002062370020DC030020B2
:100FB00078B90108F0B503460C4600212BE001EB9F
:100FC000410000EB8110FE4D285C10BB01EB41009D
:100FD00000EB81102844437001EB410000EB8110CD
:100FE0002844827000200AE0265C01EB410505EBF5
:100FF0008115F34F3D44ED1C2E54451CE8B2904240
:10100000F2DB012001EB410505EB8115EC4E70553B
:10101000F0BD481CC1B20529D1DB0020F8E770B54E
:10102000002425E004EB440000EB8410E449085C54
:10103000E0B104EB440303EB84130D462B449A7890
:1010400004EB440303EB84132B44D91C04EB44034B
:1010500003EB84132B445878FFF7E5FB002004EBE7
:10106000440101EB84112A46505470BD601CC4B287
:10107000052CD7DB00BFF8E770B50446012C04D07F
:10108000022C14D0042C37D121E001EB4106CD4DC8
:1010900005EB4605AA1C01EB4106CA4D05EB4605CA
:1010A000281D01EB4106C74D05EB460325E001EB8A
:1010B0004105C54E06EB4505AA1C01EB410506EBB3
:1010C0004505281D01EB410506EB450315E001EB45
:1010D0004106BC4D903D05EB4605AA1C01EB4106BF
:1010E000B84D903D05EB4605281D01EB4106B54D79
:1010F000903D05EB460300E070BD00BF182900DB02
:10110000FAE7158855B105881688B54203DA0588CF
:101110006D1C058002E001251D70058000BFEBE716
:101120002DE9F04107460C46012F04D0022F09D0CB
:10113000042F16D10DE0AF2604EB4401A14800EBCB
:10114000410511E0FF2604EB44009F4901EB4005F7
:101150000AE0AF2604EB44019A48903800EB4105C1
:1011600002E00020BDE8F08100BF182C01DB002068
:10117000F8E7287840B100202870324621463846EA
:10118000FFF7A4FE0120EDE70020EBE72DE9F05F7B
:1011900082460E4617469846DDF828B00024AA225B
:1011A0002146641C894842542146641C465400224E
:1011B0002146641C42542146641C42542146641C4E
:1011C00047542146641C00F801802146641C00F845
:1011D00001B0201F7D49C87000254FF00009002094
:1011E00009E07A49095C2944CDB209EB050101F017
:1011F000FF09411CC8B2A042F3DB2046611CCCB2FF
:1012000072490D542046611CCCB2704901F800901F
:1012100022465046FFF7CEFEBDE8F09F2DE9F7418C
:1012200081B080460E4600200090BDF80C000AF008
:10123000EEF800900024AA222146641C6348425420
:101240002146641C4654E2222146641C425400227A
:101250002146641C42549DF80C202146641C4254D3
:101260009DF80D202146641C42549DF80020214623
:10127000641C42549DF801202146601CC4B25348AE
:1012800042549DF802202046611CCCB24F490A54BA
:101290009DF803202046611CCCB24C490A54201F03
:1012A000C87000250027002007E04849095C294450
:1012B000CDB27919CFB2411CC8B2A042F5DB2046AD
:1012C000611CCCB241490D542046611CCCB23F494F
:1012D0000F5422464046FFF76DFEBDE8FF8100BF78
:1012E00000BF00BF00BF70472DE9F05F834688460E
:1012F00091461E460024AA222146641C33484254CB
:101300002146641C00F80180A0222146641C42543E
:1013100000222146641C42542146641C00F80190BE
:1013200092460CE05046411C01F0FF0A325C204618
:10133000611CCCB225490A54322C00DD03E016F8BA
:101340000A000028EED100BF201F2049C8700025E8
:101350000027002007E01D49095C2944CDB2791916
:10136000CFB2411CC8B2A042F5DB2046611CCCB212
:1013700016490D542046611CCCB214490F54224624
:101380005846FFF717FEBDE8F09F2DE9F04781466C
:101390000E4617460024AA222146641C0B484254DC
:1013A0002146641C4654F1222146641C425400220A
:1013B0002146641C42542146641C4754201F07E008
:1013C000FC0E00202C0E00200C0D00204B100020E5
:1013D000FE49C87000254FF00008002009E0FB49D5
:1013E000095C2944CDB208EB050101F0FF08411C5E
:1013F000C8B2A042F3DB2046611CCCB2F3490D54C5
:101400002046611CCCB2F14901F8008022464846D2
:10141000FFF7D0FDBDE8F0872DE9F84380460C4684
:10142000154600260027E178A81F814201D0BDE8BB
:10143000F883002006E0215C3144CEB2B919CFB266
:10144000411CC8B2A91E8142F5DC601910F8020CDB
:10145000B04204D1601910F8010CB84200D0E6E7A0
:10146000A078402875D0A0784128FBD0A0783028FB
:10147000F8D0A0783228F5D0A0783328F2D0A07820
:101480003428EFD0A0780D28ECD0A078E0286FD1D8
:101490002079012804D010286DD011286AD19EE04F
:1014A000607980BBA079012861D0A079022807D19A
:1014B000C748C07A00285AD10120C649C87056E0F2
:1014C000A079032853D0A079042850D0A07905280A
:1014D0004DD0A07910284AD0A079612847D0A079B2
:1014E000622844D0A079AA2804D109F0DDFD03F0D8
:1014F0004DFF3CE0A079AB2806D1012009F09DFE0C
:1015000003F044FF33E00AE0A079AC282FD109F0C2
:10151000CBFD022009F091FE03F038FF27E060794F
:10152000012800D123E06079302820D1A07901285A
:1015300010D1A748C07AD0B9A7480078401CA64966
:1015400008700120A34988700020A44981F84A014D
:101550000DE06EE0A079022809D19D48C07A30B92B
:1015600002209F49087000209C4981F84B0138E017
:1015700040E000E034E0607948BBA07907281DD046
:1015800007DC072821D2DFE800F020131415161716
:101590001800602816D006DC082810D009280FD0C3
:1015A0000A2812D10DE061280DD062280DD10BE080
:1015B0000CE00BE00AE009E008E007E006E005E0E7
:1015C00004E003E002E001E000E000BF06E0607933
:1015D000012803D06079022800D000BF01E000E0BC
:1015E00000BF00BF0097A2783346AF214046FFF707
:1015F000CDFD1EE0A078E0B1A078E12805D1A28859
:10160000AF214046FFF70AFE13E0A078E2280CD194
:10161000D4F80610A0880AF0F0FA0097A2783346B2
:10162000AF214046FFF7B2FD03E0A078602800D06C
:1016300000BF00BFFBE62DE9F04106460D46012E36
:1016400001D1002404E0022E01D1012400E0022493
:1016500004EB440000EB84106249084490F8420017
:10166000072875D2DFE800F00416374875DAFD0068
:10167000AA2D0ED1012004EB440101EB8411594A3B
:10168000114481F8420004EB440000EB8410114641
:101690000D5425E1052D03D0FF2D01D0052D10D1CE
:1016A000022004EB440101EB84114E4A114481F8FD
:1016B000420004EB440000EB8410114608444570DE
:1016C00008E0002004EB440101EB8411454A114479
:1016D00081F8420004E1032004EB440101EB841192
:1016E000404A114481F8420004EB440000EB8410AE
:1016F000114608448570F3E03B2D1FDA042004EB0B
:10170000440101EB8411374A114481F8420004EB93
:10171000440000EB841011460844C57004EB4400FB
:1017200000EB8410084480F84050002004EB440192
:1017300001EB8411114481F8410008E0002004EB22
:10174000440101EB8411274A114481F84200C7E0AB
:10175000BCE004EB440000EB84102249084490F8FC
:101760004000002850DD04EB440000EB84100844E6
:1017700090F84000401E04EB440101EB8411194A2B
:10178000114481F8400004EB440000EB8410114642
:10179000084490F8410004EB440101EB841111442A
:1017A00091F84110491C04EB440202EB84120D4BEA
:1017B0001A4482F84110001D04EB440101EB84112E
:1017C0001A4611440D5404EB44000DE04B10002068
:1017D00028180020840500206A0000200C1E00202C
:1017E000C80300208B10002000EB84101146084431
:1017F00090F8400088B9052004EB440101EB841106
:10180000114481F8420008E0002004EB440101EBA0
:101810008411514A114481F8420061E0062004EB32
:10182000440101EB84114C4A114481F8420004EB5D
:10183000440000EB84101146084490F8410004EB8A
:10184000440101EB8411114491F84110491C04EB4F
:10185000440202EB8412404B1A4482F84110001DEE
:1018600000E007E004EB440101EB84111A46114447
:101870000D5435E0002004EB440101EB8411364A9D
:10188000114481F8420004EB440000EB841011463F
:10189000014404EB440000EB8410104490F8410034
:1018A000001D0D5404EB440000EB84101146084465
:1018B00090F84100401DC7B204EB440000EB8410D7
:1018C00081183A463046FFF7A7FD09E0002004EBF7
:1018D000440101EB8411204A114481F8420000BF09
:1018E00000BFBDE8F08110B5044621460420FFF793
:1018F000A2FE10BD10B5044621460120FFF79BFE55
:1019000010BD10B5FFF78BFB002409E02146042031
:10191000FFF7B2FB21460120FFF7AEFB601CC4B20B
:10192000182CF3DB002405E021460420FFF7F8FB28
:10193000601CC4B2182CF7DB002407E0214601200C
:10194000FFF7EEFB00B103E0601CC4B2182CF5DB1E
:1019500000BFFEF776FC10BD8B10002070B5DDE9EE
:1019600004452BB10E882EB10E8806440E8001E08E
:1019700001260E800E88964202DB2C7000260E8017
:1019800070BD7CB50546FE480079022824DCFD4880
:10199000407808BBFC484078B8B1FB480078A0B15B
:1019A000F948C07850B1F648407818B10020F449A1
:1019B000487214E00120F249487210E00120F34916
:1019C00048720220EE49487209E00120EF49C871CF
:1019D0000320EB49487202E00420E9494872E848D4
:1019E000C07A002840D1E648807A002849D0E448EF
:1019F000407A50B9E248807AE149C872E4A30222F1
:101A0000AF210520FFF770FC3BE00020DC49887225
:101A10000846407A012806D1E0A30222AF21052022
:101A2000FFF762FC2DE0D648407A022806D1DBA3FE
:101A30000222AF210520FFF757FC22E0D048407A70
:101A4000032806D1D5A30222AF210520FFF74CFCC5
:101A500017E0CB48407A042813D1D4A30222AF2147
:101A60000520FFF741FC0CE0C548807A28B9D5A3D2
:101A70000222AF210520FFF737FCC148807AC04918
:101A8000C872D548B0F9040010F5967F7EDAD248C6
:101A9000B0F90600002803DDCF48B0F9060003E0E6
:101AA000CD48B0F90600404200EE100AB8EEC00A78
:101AB000F3EE0E0AB4EEE00AF1EE10FA14DDC648B9
:101AC000B0F9020000EE100AB8EEC00AFBEE0E0AF2
:101AD000B4EEE00AF1EE10FA06D2A948407B30B924
:101AE0000120A749487302E00020A5494873BA487D
:101AF000B0F9020010F5967F12DAB748B0F900008D
:101B0000B0F5967F0CDDB448B0F9060010F5967F6D
:101B100006DA0120B14908700220994948731BE098
:101B2000AD48B0F9020010F5967F12DAAA48B0F974
:101B3000000010F5967F0CDAA748B0F90600B0F562
:101B4000967F06DD0120A549087002208C49487364
:101B500002E00020A149087000248948C07A28B119
:101B600000BF4FF496709E49088004E002244FF4B1
:101B7000FA709B49088082480A30CDE900409748B6
:101B80000378974802889749284600E002E0FFF76B
:101B9000E5FE08E000207A4948730846807A02286A
:101BA00001D1012088728C48B0F9040010F5AF7F94
:101BB00003DD00207249087302E0012070490873B8
:101BC0007CBD002005E00021834A22F81010411C52
:101BD000C8B20428F7DB8048B0F90400002802DD11
:101BE00000207D49888000207B4908804880C8808B
:101BF0006348C07A48B17C48407918B903206049ED
:101C0000C87402E001205E49887101205F49C872F2
:101C10007047F0B505AC70CC5CB100270F80CF7871
:101C20008FB98F7817B18F787F1C8F700127CF7095
:101C300009E00027CF700F8807440F800F889F426C
:101C400001DD01278F708F78974202DD3570002704
:101C50008F70F0BD1EB504464948C07A00286ED189
:101C60004748007B002873D05B48B0F9020010F5AC
:101C7000AF7F17DA5848B0F90000B0F5AF7F11DD3B
:101C80005548B0F9040010F5AF7F0BDA5248B0F9AF
:101C90000600B0F5AF7F05DD0120544908705449B6
:101CA000087004E0002051490870514908704A4802
:101CB000B0F90200B0F5AF7F15DD4748B0F900007C
:101CC000B0F5AF7F0FDD4448B0F9040010F5AF7FE9
:101CD00009DA4148B0F9060010F5AF7F03DA0120B8
:101CE0004449087002E00020424908703A48B0F9BF
:101CF0000200B0F5AF7F15DD3748B0F90000B0F550
:101D0000AF7F0FDD3448B0F9040010F5AF7F09DA7A
:101D10003148B0F90600B0F5AF7F03DD0120364948
:101D2000087002E00020344908702B48B0F9020026
:101D3000B0F5AF7F04DD01203049087008E06AE0AB
:101D40002548B0F90200322802DA00202B49087039
:101D50002B480121CDE90010254803784FF47A7211
:101D600028492046FFF7FAFD27480121234A127827
:101D70004FF47A73CDE9002102900522234947E010
:101D8000281800206A04002054180020FC1D0020A0
:101D9000556E6C6F636B204F4B210000556E6C6F5E
:101DA000636B204661696C2100000000506F77650D
:101DB00072204C6F772C556E6C6F636B2046616997
:101DC0006C2100004643204F7574707574204C6F71
:101DD000636B656421200000541100206E00002018
:101DE000700000206C000020B40100207D00002065
:101DF0007C0000207E0000207F000020800000206A
:101E00008705002072000020C80300207800002011
:101E10002046FFF7FEFE1EBD10B504461F480078A1
:101E200090B3002021E01E4931F81010A1F2DC51DE
:101E300009B21C4A22F81010114631F9101011F5A0
:101E4000FA7F01DC18490BE0164931F91010B1F5A1
:101E5000FA7F02DD4FF4FA7102E0124931F91010F5
:101E6000104A22F81010411CC8B20828DBDB2046BB
:101E7000FFF787FD2046FFF7EDFE09483A3890F856
:101E8000390010B1FFF79DFE06E00848C07A01282E
:101E900002D100200549C87210BD0000281800209A
:101EA00062370020541100200CFEFFFFFC1D0020B3
:101EB00008B5CA48D0ED000A9FEDC91AF4EEC10A70
:101EC000F1EE10FA0BD2D0ED000AB7EE001A70EE68
:101ED000810AC0ED000A0120C249887002E000209A
:101EE000C0498870BD48D0ED010A9FEDBD1AF4EEDF
:101EF000C10AF1EE10FA0BD2D0ED010AB7EE001ACA
:101F000070EE810AC0ED010A01208DF8000002E0A8
:101F100000208DF80000B148D0ED020A9FEDB01A04
:101F2000F4EEC10AF1EE10FA0BD2D0ED020AB7EED0
:101F3000001A70EE810AC0ED020A01208DF801003E
:101F400002E000208DF801009DF8000030B19DF8FE
:101F5000010018B10120A349C87002E00020A14986
:101F6000C87008BD30B500220024C5788B1F9D4283
:101F700000D030BD002306E0C55C1544EAB2A518C8
:101F8000ECB25D1CEBB28D1E9D42F5DC431813F8DC
:101F9000023C934204D1431813F8013CA34200D001
:101FA000E7E78378512B38D103795BB943798D4DBD
:101FB0006B7183795BB2AB71C3795BB2EB71037AFE
:101FC0002B7183E00379012B12D14379854D2B725C
:101FD000C3886B810389AB81837A2B719FED820A61
:101FE0007E4B83ED010A2B461B785B1C2B706DE04A
:101FF0000379022B6AD143797A4DAB73C3882B8264
:1020000003896B824389AB828389EB82C3892B83EB
:10201000038A6B83837C2B7158E08378342B0DD13A
:10202000D0F807306F4DEB619FED6F0A6B4B83ED7E
:10203000020A2B465B785B1C6B7047E08378012BB0
:102040000DD18388674D2B86C3886B860389AB8649
:102050004389EB8683892B87C3896B8736E0837836
:10206000042B33D1B0F9043000EE103AB8EEC00AB8
:10207000DFED5E0A20EE200A5A4B83ED080AB0F924
:10208000063000EE103AB8EEC00ADFED580A20EE36
:10209000200A544B83ED090AB0F9083000EE103ADB
:1020A000B8EEC00ADFED510A20EE200A4D4B83ED59
:1020B0000A0AB0F90A3000EE103AB8EEC00ADFEDB5
:1020C0004B0A20EE200A474B83ED0B0A00BF50E776
:1020D00010B504464648007838B9AA2C05D101202D
:1020E000434908704348047077E04148007801286C
:1020F00009D1052C01D0FF2C05D102203C490870E4
:102100003C48447069E03A480078022805D1032031
:1021100037490870374884705FE0354800780328F5
:102120000CD1FA2C0ADA0420314908703148C47005
:10213000314804700020314908704EE02C48007886
:10214000042819D12C480078002815DD2A48007889
:10215000401E294908702948007828490978491CF7
:10216000264A1170001D23490C542348007880BB77
:1021700005201F49087030E01D48007805280DD162
:1021800006201B4908701D4800781C490978491C25
:102190001A4A1170001D17490C541EE014480078AB
:1021A000062817D100201249087014480078001D35
:1021B00010490C549FED0C0A084880ED000A0120DC
:1021C0000F4908700D480078401DC1B20948FFF75B
:1021D000C9FE02E000200649087010BDD41100209D
:1021E0000000FA43641100200000000017B7D13846
:1021F00083000020A0110020810000208200002028
:10220000690000200179C27801EB0221FE4A1180A9
:102210008179427901EB0221FC4A11808178FC4AE4
:10222000517070470020FB49087000BF28E0032868
:1022300018DA9FEDF90AF6492C3101EB800181EDA6
:10224000000A9FEDF50AF249383101EB800181ED7A
:10225000000A9FEDF10AEE49443101EB800181ED66
:10226000000A03E00021EA4AA2F850100022E849DF
:10227000143141F82020103941F82020411CC8B207
:102280000428D4DB704710B50446E14841788078D3
:1022900081421FD0FFF7C6FFE04890F8380068B9C8
:1022A000DF48C07D012809D1DE48807810B9DD48BB
:1022B000407918B10120D64908700BE00020D449BC
:1022C0000870D9A30222AF210520FFF70DF80020E6
:1022D000CF494870CE48407806286ED006DC0628E4
:1022E0006CD2DFE800F06B10416CCEFD09287DD088
:1022F00004DC07287BD0082860D1ADE20A2877D01B
:10230000A028F9D14AE0C248007860B3C448C07C34
:1023100070B9C048007830BB0120BE490870C6A320
:102320000222AF210520FEF7DFFF06F0A2F91AE036
:10233000BB48C07C022809D1C2A30222AF210520DC
:10234000FEF7D2FF0020B24948700CE0B448C07CD0
:10235000022808DDBFA30222AF210520FEF7C4FF3B
:102360000020AB4948708EE3AD48C07C022808D1FC
:10237000BBA30222AF210520FEF7B6FF06F088F9C5
:102380000BE0A748C07C40B9B8A30222AF210520CA
:10239000FEF7AAFF00209E49487074E3A048C07A67
:1023A00050B1B5A30222AF210520FEF79DFF00200A
:1023B0009B4988729649487065E38FE162E39348D0
:1023C000008800EE100AB8EE400A914880ED0D0A30
:1023D0008E48008898B38C4800884FF47A7148433F
:1023E00000EE100AF8EEC00A884802E093E2D5E158
:1023F000ECE20088002802DC9FED870A17E0A34882
:1024000090ED011A8148008800EE100AB8EE400AEB
:10241000B4EEC01AF1EE10FA03D29C4890ED010A16
:1024200005E07A48008800EE100AB8EE400A80EE17
:10243000801ABCEEC10A764880ED070A03E0FFE788
:1024400000217348C1617248C06830B990A302226C
:10245000AF210520FEF748FF0DE06D48C169C06857
:10246000814208D28CA30222AF210520FEF73CFF57
:102470000020674948706648C06801196448C16017
:1024800001E362480088404200EE100AB8EEC00A3C
:102490005F4880ED0D0A5D480088A8B35A4800885F
:1024A0004FF47A71484300EE100AF8EEC00A57481C
:1024B0000088002802DC9FED580A1DE0734890ED6B
:1024C000020AB1EE401A5148008800EE100AB8EE38
:1024D000400AB4EEC01AF1EE10FA07D26B4800E0E1
:1024E00034E090ED020AB1EE400A05E0474800886A
:1024F00000EE100AB8EE400A80EE801ABCEEC10A67
:10250000434880ED070A03E0FFE700214048C1612E
:102510003F48C06830B963A30222AF210520FEF70F
:10252000E3FE0DE03A48C169C068814208D260A369
:102530000222AF210520FEF7D7FE00203449487063
:102540003348C06801193248C1609CE22F480088B6
:1025500000EE100AB8EE400A2D4880ED0B0A2B4819
:10256000008878B3284800884FF47A71484300EE19
:10257000100AF8EEC00A25480088002802DC9FED0A
:10258000260A17E0414890ED001A2048008800EE26
:10259000100AB8EE400AB4EEC01AF1EE10FA03D2F7
:1025A0003A4890ED000A05E01848008800EE100A4D
:1025B000B8EE400A80EE801ABCEEC10A144880EDE5
:1025C000050A03E0FFE70020114948611048406810
:1025D00030B93AA30222AF210520FEF785FE0EE0B6
:1025E0000B4840690A494968884208D236A302224A
:1025F000AF210520FEF778FE002005494870044809
:1026000040682044024967E08400002086000020E2
:10261000E011002088000020000000002837002082
:1026200028180020B40100204643205374617465CB
:10263000204572726F72210054616B65206F66666F
:102640002100000054616B65206F6666204F4B21AE
:1026500000000000434D44204572726F722100005B
:102660004C616E64696E6721000000004C616E640D
:10267000696E67204F4B2100456D657267656E631B
:10268000792073746F70204F4B2100004418002094
:10269000476F207570210000476F207570204F4BE9
:1026A00021000000476F20646F776E21000000005A
:1026B000476F20646F776E204F4B2100476F20617A
:1026C0006865616421000000476F2061686561648E
:1026D000204F4B21000000004860D4E1FC480088F6
:1026E000404200EE100AB8EEC00AFA4880ED0B0A2C
:1026F000F748008878B3F84800884FF47A71484367
:1027000000EE100AF8EEC00AF1480088002802DC4A
:102710001FED3F0A17E0F14890ED001AEC480088E1
:1027200000EE100AB8EE400AB4EEC01AF1EE10FA4C
:1027300003D2EA4890ED000A05E0E548008800EE83
:10274000100AB8EE400A80EE801ABCEEC10AE148D9
:1027500080ED050A03E0FFE70020DE494861DD481F
:10276000406830B9DEA30222AF210520FEF7BCFD90
:102770000EE0D8484069D7494968884208D2DBA3AF
:102780000222AF210520FEF7AFFD0020D14948709D
:10279000D04840682044CF49486074E1CC48008864
:1027A00000EE100AB8EE400ACA4880ED0C0AC8488C
:1027B000008878B3C84800884FF47A71484300EE27
:1027C000100AF8EEC00AC2480088002802DC1FED9B
:1027D0006E0A17E0C14890ED001ABD48008800EE6F
:1027E000100AB8EE400AB4EEC01AF1EE10FA03D2A5
:1027F000BA4890ED000A05E0B548008800EE100ADE
:10280000B8EE400A80EE801ABCEEC10AB14880EDF5
:10281000060A03E0FFE70021AE488161AD48806809
:1028200030B9B5A30222AF210520FEF75DFD0DE012
:10283000A84881698068814208D2B2A30222AF21F0
:102840000520FEF751FD0020A2494870A14880688C
:102850000119A048816016E19D480088404200EEC1
:10286000100AB8EEC00A9B4880ED0C0A9848008810
:1028700078B3994800884FF47A71484300EE100A03
:10288000F8EEC00A92480088002802DC1FED9E0A7C
:1028900017E0924890ED001A8D48008800EE100A6B
:1028A000B8EE400AB4EEC01AF1EE10FA03D28B482B
:1028B00090ED000A05E08648008800EE100AB8EEA8
:1028C000400A80EE801ABCEEC10A824880ED060AFA
:1028D00003E0FFE700217F4881617E48806830B9CE
:1028E0008BA30222AF210520FEF7FEFC0DE0794804
:1028F00081698068814208D288A30222AF21052025
:10290000FEF7F2FC00207349487072488068011994
:1029100070488160B7E06E48008800B26D49A1F848
:1029200050006B48008878B36B4800884FF47A7188
:10293000484300EE100AF8EEC00A654800880028F7
:1029400002DC1FEDCB0A17E0644890ED031A6048E3
:10295000008800EE100AB8EE400AB4EEC01AF1EE9C
:1029600010FA03D25D4890ED030A05E0584800884C
:1029700000EE100AB8EE400A80EE801ABCEEC10AE2
:10298000544880ED080A03E0FFE700215148016246
:102990005048006930B965A30222AF210520FEF737
:1029A000A3FC0DE04B48016A0069814208D262A392
:1029B0000222AF210520FEF797FC00204549487010
:1029C000444800690119434801615CE040480088BF
:1029D000404200B23F49A1F850003D48008878B31A
:1029E0003D4800884FF47A71484300EE100AF8EE33
:1029F000C00A37480088002802DC1FEDF90A17E0FA
:102A0000364890ED031A3248008800EE100AB8EEFE
:102A1000400AB4EEC01AF1EE10FA03D22F4890ED3E
:102A2000030A05E02A48008800EE100AB8EE400AC2
:102A300080EE801ABCEEC10A264880ED080A03E049
:102A4000FFE70021234801622248006930B93EA314
:102A50000222AF210520FEF747FC0DE01D48016A68
:102A60000069814208D23BA30222AF210520FEF774
:102A70003BFC0020174948701648006901191548A9
:102A8000016100E000BF00BF1248407808B9FFF7BD
:102A9000C9FB1048417881703248C07AB0B10D4A04
:102AA0003832A2F1140101F1080003F0C4F8094A18
:102AB00044322D49A2F10C0003F09EF8054890ED38
:102AC0000D0A80ED100A80ED130A5BE04EE0000075
:102AD00086000020E011002084000020441800201F
:102AE000476F206261636B2100000000476F206226
:102AF00061636B204F4B2100476F206C656674212A
:102B000000000000476F206C656674204F4B210069
:102B1000476F20726967687421000000476F207258
:102B200069676874204F4B21000000005475726E75
:102B3000206C6566742100005475726E206C6566A9
:102B400074204F4B210000005475726E207269672B
:102B5000687421005475726E207269676874204F22
:102B60004B21000028180020FC010020064890EDB1
:102B70000D0A064880ED090A034890ED0E0A034845
:102B800080ED0A0A10BD0000C8010020E0110020FD
:102B9000AA49097839B9AA2805D10121A74A117093
:102BA000A749087070E0A5490978012907D13028A4
:102BB00005D10221A14A1170A149487064E09F49E2
:102BC0000978022905D103219C4A11709C4988701B
:102BD0005AE09A490978032905D10421974A1170CE
:102BE0009749C87050E09549097804290AD1052110
:102BF000924A117092490871924908700521924ACF
:102C0000117041E08D490978052917D18D4909785E
:102C1000002913DD8B490978491E8A4A11708A49B7
:102C20000A780978491C884B197085498854854968
:102C3000097829BB0621814A117025E07F4909786E
:102C400006291ED100217D4A11707D497E4A1278E5
:102C500088547E49097899B9002105E0784A525C88
:102C60007B4B5A544A1CD1B2774A12789142F5DD17
:102C700075490978491C774A11700121734A11700E
:102C800002E000216D4A1170704701466F480078DC
:102C900000287DD000206D4B1870002200BF05E099
:102CA0006B4B1B5C1344DAB2431CD8B2694B1B78E4
:102CB0005B1E8342F4DC6648664B1B78184410F8B0
:102CC000010C904200D070476148C078312875D01F
:102CD0005F48C078322871D15D48C0795C4B9B79E0
:102CE00040EA032000B200EE100AB8EEC00AB1EECE
:102CF000400ADFED590A80EE201A584880ED041A88
:102D00005348407A524B1B7A40EA032000B200EE4F
:102D1000100AB8EEC00ADFED500A80EE201A4F48C4
:102D200080ED031A4A48C07A494B9B7A40EA032057
:102D300000B200EE100AB8EEC00ADFED470A80EEDE
:102D4000201A464880ED051A4148407B404B1B7BCA
:102D500040EA032000B200EE100AB8EEC00AB1EE5D
:102D6000400ADFED3D0A80EE201A3C4880ED071A4C
:102D70003748C07B364B9B7B40EA032000B200EE15
:102D8000100AB8EEC00ADFED340A80EE201A00E027
:102D900018E0324880ED061A2D48407C2C4B1B7CF5
:102DA00040EA032000B200EE100AB8EEC00ADFEDE0
:102DB0002A0A80EE201A294880ED081A0020284BA4
:102DC000188000BF26480088B0F57A7F08DA2448CA
:102DD00000880844224A10800120204A507002E0F6
:102DE00000201E4A507000BF6DE710B504461D4814
:102DF000C07A78B90020194908701B4890ED0D0A77
:102E0000084680ED010A184890ED0E0A084680ED4C
:102E1000020A02E0012011490870104A2432A2F18E
:102E2000200101F1080002F006FF0C4A3032A2F145
:102E30002C0101F1140002F0FEFE10BD8F000020F5
:102E4000701300208E000020900000208B000020D6
:102E5000701200208A0000200000C84234120020B6
:102E60008C00002028180020C801002010B52DED8E
:102E7000028BF0EE408AB0EE608A2A48C0ED008AEC
:102E800080ED018A02469FED280A011D03F0CFFF65
:102E9000BDEC028B10BD234880ED060AD0ED060A7A
:102EA0009FED221AF4EEC10AF1EE10FA02D8DFED1E
:102EB0001F0A0FE01B48D0ED060A9FED1D1AF4EE25
:102EC000C10AF1EE10FA02DDDFED190A02E0154841
:102ED000D0ED060A1348C0ED060A7047114880ED90
:102EE000070AD0ED070A9FED131AF4EEC10AF1EEBE
:102EF00010FA02D8DFED0F0A0FE00A48D0ED070AFA
:102F00009FED0D1AF4EEC10AF1EE10FA02DDDFEDCD
:102F10000A0A02E00348D0ED070A0248C0ED070A9A
:102F2000704700007014002000004843000016C3E2
:102F3000000016430000C8C20000C84290ED002AFD
:102F4000DFEDFC2A22EE222AF7EE002A82EE823AF8
:102F5000B7EE002A33EE022AB7EE003AC3EE022A99
:102F6000F54991ED002A30EE423A91ED002A02EE49
:102F7000832A81ED002A90ED002ADFEDEE2A22EE71
:102F8000222AF7EE002A82EE823AB7EE002A33EECA
:102F9000022AB7EE003AC3EE022A91ED012A30EE82
:102FA000C23A91ED012A02EE832A81ED012A91EDC8
:102FB000002ADFEDE22A22EE222AE14981ED002AF1
:102FC000DD4991ED012ADFEDDD2A22EE222ADC49DE
:102FD00081ED012A90ED002ADFEDD62A62EE222A49
:102FE000B7EE003A83EE222AF7EE002A32EE222ACA
:102FF000B7EE003AC3EE022AD24991ED082A31EE2B
:10300000423A91ED082A02EE832A81ED082A90EDDA
:10301000002ADFEDC82A22EE222AB7EE003AC3EEDC
:10302000022AB7EE002A32EE822AB7EE003AC3EE49
:10303000022A91ED092A31EEC23A91ED092A02EEF7
:10304000832A81ED092A002117E0BE4A283202EBCB
:10305000810292ED002ABB4A203202EB8102D2EDBE
:10306000002A90ED003A02EE832AB64A283202EB9B
:10307000810282ED002A4A1CD1B20229E5DB7047A9
:1030800010B502460023B0480078B04C2478A04226
:103090003FD0AE480078AC4C20708B78032003E022
:1030A0000C5C6340441CE0B20C28F9DB087B9842BE
:1030B00026D1A7480078401CA54C2070887A207241
:1030C0002046007AF52803D00020A08060800DE023
:1030D00008794C7940EA042000B29D4C60808878E1
:1030E000CC7840EA042000B2994CA0808879CC7951
:1030F00040EA04204FF47A7490FBF4F0944CE080A2
:103100009FED940A944880ED000A0120904C607075
:1031100015E0914890ED000AF7EE000AB4EEE00ADF
:10312000F1EE10FA08D292ED000AD0ED000A30EE6E
:10313000200A80ED000A02E00020854C607010BD7E
:1031400010B52DED020B85496846FFF799FF8448BD
:1031500090ED142AF0EE421A90ED132AB0EE421AC6
:10316000804890ED0B2AF0EE420A90ED0A2AB0EE6C
:10317000420A6846FFF7E2FE1CBD002010E09FED0A
:10318000750A7049283101EB800181ED000A9FED3D
:10319000710A754901EB800181ED000A411CC8B23A
:1031A0000228ECDB704770B52DED028B05460C460E
:1031B000287800EE100AB8EE400ADFED6C0A20EE27
:1031C000200AB0EE408A142C01DC142006E0B4F58D
:1031D000FA7F02DD4FF4FA7000E0204600EE100A9C
:1031E000B8EEC00A574880ED010A90ED020ADFED03
:1031F000600A20EE200AD0ED010A20EE200A80EDC0
:10320000040A90ED030ADFED5A0A20EE200AD0ED01
:10321000010A20EE200A80ED050A00F1180250494B
:103220003431103002F007FD4648007810B1012813
:103230007DD10FE0012043490870B0EE000A4D48EF
:1032400080ED000AB7EE000A4B4880ED000AFFF758
:1032500094FFAFE03E48007AF52869D100209CE059
:103260003849183101EB800191ED000A35492831C8
:1032700001EB8001D1ED000A30EE600A3F4901EB1D
:10328000800181ED000A384901EB800191ED000ACF
:103290003A4901EB8001D1ED000A374991ED001A5E
:1032A00060EE810A00EE880A2F4901EB800181ED72
:1032B000000A2D4901EB800191ED000ADFED300A93
:1032C000B4EEE00AF1EE10FA02D89FED2D0A13E0F9
:1032D000254901EB800191ED000ADFED2A0AB4EEE9
:1032E000E00AF1EE10FA02DD9FED260A04E01E4925
:1032F00001EB800191ED000A1B4901EB800181ED9A
:10330000000A194901EB800191ED000A1B4901EB0C
:103310008001D1ED000A174991ED001A00EE810AF3
:103320000849283101EB8001D1ED000A2CE03EE094
:1033300036E000003433FB41B0000020E12E65424E
:10334000980000200015002094000020FB040020BD
:10335000F414002000000000B8000020FE36002019
:10336000C80100203C190020A80000206F12833AF9
:1033700082A8FB38BC000020C0000020A000002074
:103380000000C8C20000C84240EE080A534901EBE1
:103390008001C1ED000A411CC8B20228FFF660AFEF
:1033A0004E4A08324E494D4802F026FC02E0FFF733
:1033B000E4FE00BF00BFBDEC028B70BD0146494872
:1033C000007AF52812D01FED1D0A4448283880EDF8
:1033D000030A80ED020A4078052843DB3F4828387D
:1033E0004078401F3D4A283A50703BE03D48C08835
:1033F0004FF47A7292FBF0F03A4AB2F9022050434D
:1034000000EE100AB8EEC00A3748D0ED010A9FED71
:10341000371A01EE200A3148283880ED020A314877
:10342000C0884FF47A7292FBF0F02E4AB2F9042071
:10343000504300EE100AB8EEC00A2B48D0ED000A47
:103440009FED2A1A01EE600A2448283880ED030A0D
:103450004078FA2806DC214828384078401D1F4A69
:10346000283A507070472248007C48B11B482838E1
:103470000078012817D1002018492839087012E077
:10348000164828384078642804DA0020134928397F
:10349000087008E0114828384078C82803DD01206A
:1034A0000E49283908700F48407830B1114800782B
:1034B00018B101201049087202E000200E4908727C
:1034C000704701B5FFF7CFFF6846FFF777FF0B485E
:1034D00001886846FFF767FE08BD00002815002038
:1034E000FC010020F414002098000020000020437C
:1034F000E4020020F404002054180020F604002008
:10350000484890ED3F0A484880ED010A454890ED53
:10351000400A454880ED020A9FED440A80ED030A07
:10352000404890ED410A404880ED040A9FED3F0A73
:1035300080ED050A3B4890ED4E0A3D4880ED000ABB
:10354000704710B52DED028BB0EE408A3948C07C33
:10355000022846D1364890ED000A374880ED000A2F
:103560003648408800EE100AB8EE400A344880ED34
:10357000000AF2EE042A9FED332A33492A48304AE2
:10358000D2ED001A2C4A92ED001ADFED280AB0EEB7
:10359000480A03F06BFE2C4890ED090A2B4880ED99
:1035A000000AD0ED000ABAEE0E1AF4EEC10AF1EEEE
:1035B00010FA02D8FAEE0E0A0FE02448D0ED000A05
:1035C000B3EE041AF4EEC10AF1EE10FA02DDF3EEE6
:1035D000040A02E01D48D0ED000AB0EE600AFFF7D1
:1035E0005AFCBDEC028B10BDDFED190AB4EEE00A07
:1035F000F1EE10FA05D2DFED160A0D48C0ED000A13
:103600000FE0DFED140AB4EEE00AF1EE10FA05DD8A
:10361000DFED100A0648C0ED000A02E0044880ED24
:10362000000A70470C1E0020481500200000000012
:10363000C400002028180020C800002070030020CB
:10364000CC0000200000484260150020D00000207F
:103650000000204200007043FE49097831B1012981
:1036600008D0022907D0032907D105E00021FA4A32
:103670001180704701E000E000BF00BF00BFF8E725
:1036800010B50446F5480078022821D1F4480068B6
:103690002044F349086008460068B0F57A7F0ED1EF
:1036A0000020F0490870DFEDF00A9FEDEF0AFFF708
:1036B000DDFB04F0EDFFB3EE040AFFF795FFEB48E6
:1036C000C07C032804D10020E5490860012010BD1A
:1036D0000020FCE7704710B50446E5480068204428
:1036E000E349086008460068C82803D12046FFF770
:1036F000F1FF9DE2DE48006840F6B831884202D111
:1037000004F0B7FF94E2DA48006840F6B831884226
:10371000EFD3D8480078172826D2DFE800F00C262F
:1037200033547086A4C2DBFEFDFCFBFAF9F8F7F611
:10373000F5F4F3F2F100CD48C07C022814D1012049
:10374000CC490870F2EE0E0A9FEDC70A01F000F9AD
:103750009FEDC90AFFF748FFDFEDC30A9FEDC20ADC
:10376000FFF784FB01F0DDFB61E2C1480068C3495B
:10377000086005220021084601F0BFFB0220BD4978
:10378000087054E2BA480068BC490968401AB0F5AC
:10379000FA6F17D3BA480078A0B19FEDBA0AFFF7C5
:1037A00023FF0120AF490870B74908700A22C821D9
:1037B000002001F0A2FB0320AE490870AC4800686D
:1037C000AE49086033E2B1480078B8B1A848006853
:1037D000AA490968401AB0F57A7F0FD39FEDAC0A69
:1037E000FFF702FF0420A3490870A1480068A3491D
:1037F000086001220221A74801F020FC17E29C4842
:1038000000689E490968401AB0F57A7F0CD30A22F5
:103810006FF03101002001F070FB05209549087020
:10382000934800689549086001E29148006893490F
:103830000968401AB0F57A7F14D39448007888B1AB
:1038400001220221934801F0F9FB0A226FF03101B5
:10385000962001F052FB06208649087084480068D3
:1038600086490860E3E18248006884490968401A93
:10387000B0F57A7F14D38548007888B101226FF0C3
:103880003101962001F039FBB2EE0E0A022001F060
:103890009BF87748006879490860072075490870E7
:1038A00000BF7348006875490968401A40F6B8318E
:1038B00088420ED37248007858B10A22C821962057
:1038C00001F01BFB6A4800686C49086008206949E0
:1038D0000870ACE16648006868490968401AB0F5AC
:1038E0007A7F21D369480078F0B10122022169482A
:1038F00001F0A4FB9FED630AFFF776FE5C480DE044
:1039000091E175E156E13FE122E108E1E8E0C8E03C
:103910008EE071E058E03FE01CE006E000685749A7
:10392000086009205349087000BF51480068534996
:103930000968401AB0F57A7F0BD30A22002196203D
:1039400001F0DBFA4A4800684C4908600A204949FE
:10395000087000BF4648006848490968401AB0F539
:103960007A7F18D349480078A8B10122022149483A
:1039700001F064FB01220021962001F0BEFAB2EEB4
:103980000E0A002001F020F8394800683B49086021
:103990000B203849087000BF35480068374909686E
:1039A000401AB0F57A7F0ED33548007858B10A2214
:1039B0000021C82001F0A1FA2D4800682F490860B5
:1039C0000C202C49087000BF294800682B49096861
:1039D000401AB0F57A7F0ED32C48007858B10A22ED
:1039E000C821084601F089FA214800682349086087
:1039F0000D202049087000BF1D4800681F49096854
:103A0000401AB0F57A7F12D32048007878B10122AD
:103A10000221204801F012FB9FED1D0AFFF7E4FD93
:103A200013480068154908600E201249087000BF4D
:103A30000F48006811490968401AB0F57A7F2FD302
:103A40000A226FF03101C82001F057FA08480068D7
:103A50000A4921E0D4000020D60000207A0100208D
:103A6000FC00002030010020000000002818002089
:103A7000DC000020E400002000001643E0000020ED
:103A80005E01002000000C43A5010020A6010020DB
:103A90000000C842D800002008600F20FA490870D2
:103AA00000BFFA480068FA490968401AB0F57A7F01
:103AB00015D3F848007890B101220221F64801F0B0
:103AC000BDFA0A226FF031014FF4AF7001F015FA20
:103AD000EE480068EE4908601020EB49087000BF0E
:103AE000EA480068EA490968401AB0F57A7F15D3B8
:103AF000E848007890B101226FF031014FF4AF70C7
:103B000001F0FBF9B2EE0E0A022000F05DFFDF4883
:103B10000068DF4908601120DB49087000BFDB48FE
:103B20000068DB490968401AB0F57A7F0FD3DB489B
:103B3000007860B10A22C8214FF4AF7001F0DDF9BE
:103B4000D2480068D24908601220CF49087000BFEF
:103B5000CE480068CE490968401AB0F57A7F12D382
:103B6000CC48007878B101220221CB4801F066FAF6
:103B70001FED3C0AFFF738FDC4480068C4490860DF
:103B80001320C149087000BFC0480068C0490968D7
:103B9000401AB0F57A7F0CD30A2200214FF4AF709F
:103BA00001F0ABF9B9480068B94908601420B6497A
:103BB000087000BFB5480068B5490968401AB0F5FB
:103BC0007A7F14D3B348007888B101220221B24829
:103BD00001F034FA0A22FA214FF4AF7001F08DF9A6
:103BE000AA480068AA4908601520A749087000BFC4
:103BF000A6480068A6490968401AB0F57A7F11D333
:103C0000A448007870B10020A54908700120A5499A
:103C100008705FED6B0A1FED6C0AFFF727F916209D
:103C20009949087000BF2046FFF72AFD00BF00BF7A
:103C300010BD2DE9F05F06460F4614461D46DDE92E
:103C40000CABDDE90A899848007809281DD2DFE825
:103C500000F0051D293C4F5B737F8B00F2EE0E0ACE
:103C6000B0EE000A00F074FE9048006814308F49EE
:103C700008600846006841F28831884205D38748C9
:103C8000007810B101208849087070E0394630464C
:103C90000E9A01F032F97F48007810B10220824973
:103CA000087064E01FED860AFFF79EFC80480068FC
:103CB00014307F4908600846006841F28831884224
:103CC00002D303207849087051E01FED920AFFF7F4
:103CD0008BFC784800681430764908600846006814
:103CE00041F28831884202D304206F4908703EE0D7
:103CF000294620460E9A01F000F96648007810B176
:103D000005206949087032E0F2EE0E0A1FEDAA0A9A
:103D100000F01EFE684800681430674908600846D5
:103D2000006841F28831884205D35C48007810B1C0
:103D300006205D4908701AE0494640460E9A01F097
:103D4000DCF85448007810B10720574908700EE09D
:103D5000594650460E9A01F0D0F84E48007810B1FE
:103D600008205149087002E004F092FC00BF00BF37
:103D7000BDE8F09F2DE9F05F06460F4614461D464C
:103D8000DDE90CABDDE90A894C480078072868D2E8
:103D9000DFE800F0041C28344C586400F2EE0E0AF0
:103DA000B0EE000A00F0D4FD4548006814304449E4
:103DB00008600846006841F28831884205D33748D8
:103DC000007810B101203D4908704AE0394630467C
:103DD0000E9A01F092F82F48007810B1022037496E
:103DE00008703EE0294620460E9A01F086F82948E0
:103DF000007810B103203149087032E0F2EE0E0A6B
:103E00001FEDE70A00F0A4FD2E48006814302D498C
:103E100008600846006841F28831884205D31F488F
:103E2000007810B10420254908701AE04946404640
:103E30000E9A01F062F81748007810B105201F496A
:103E400008700EE0594650460E9A01F056F8114897
:103E5000007810B106201949087002E004F018FC3F
:103E600000BF00BFBDE8F09F2DE9F05F06460F469A
:103E700014461D46DDE90CABDDE90A8912480078DD
:103E8000072834D222E00000E4000020DC000020FB
:103E9000E0000020A6010020D80000205E010020E4
:103EA000A501002079010020180100201C0100203C
:103EB0002001002024010020280100200C01002006
:103EC000100100201401002001010020DFE800F0B3
:103ED00004102336424E5A00394630460E9A01F0FD
:103EE0000CF8FE48007810B10120FD4908704CE044
:103EF0009FEDFC0AFFF778FBFB4800681430FA4995
:103F000008600846006841F28831884202D30220E6
:103F1000F349087039E09FEDF50AFFF765FBF448B7
:103F200000681430F24908600846006841F28831A0
:103F3000884202D30320EA49087026E02946204639
:103F40000E9A00F0DAFFE548007810B10420E44949
:103F500008701AE0494640460E9A00F0CEFFDF484E
:103F6000007810B10520DE4908700EE05946504631
:103F70000E9A00F0C2FFD948007810B10620D84947
:103F8000087002E004F084FB00BF00BFBDE8F09FB2
:103F90002DE9F05F06460F4614461D46DDE90CABE1
:103FA000DDE90A89D3480078052837D2DFE800F038
:103FB000030F1B273300394630460E9A00F09DFF51
:103FC000C648007810B10120CA49087026E0294689
:103FD00020460E9A00F091FFC048007810B10220F0
:103FE000C44908701AE0494640460E9A00F085FF21
:103FF000BA48007810B10320BE4908700EE0594657
:1040000050460E9A00F079FFB448007810B10420B1
:10401000B849087002E004F03BFB00BF00BFBDE8F8
:10402000F09F01B586B0B448016806980844B249CB
:10403000086008460068B0F5FA6F08D308460068C3
:1040400042F22831884202D204F013FB22E2AA484D
:10405000006842F228318842F8D3A848007810B1AD
:10406000012819D119E0A648C07C022814D10120EA
:10407000A2490870F2EE0E0A9FEDA20A00F068FC59
:104080009FEDA10AFFF7B0FADFED9E0A9FED9D0AB2
:10409000FEF7ECFE00F045FFFBE19C4800780128AC
:1040A00006D0022879D0032876D0042872D17CE18A
:1040B000012097490870974908700A220021C820FA
:1040C00000F01BFF9448007810B1012861D106E090
:1040D0008248007810B101208F49087059E08F485C
:1040E0000078072853D2DFE800F05204111E2B3865
:1040F00045001E20002101910291CDE903100B46DD
:104100000A4608460091FFF743FF40E01E200021C9
:1041100001910291CDE903100B460A460846009131
:10412000FFF736FF33E01E20002101910291CDE917
:1041300003100B460A4608460091FFF729FF26E0C8
:104140001E20002101910291CDE903100B460A4681
:1041500008460091FFF788FE19E01E20002101911A
:104160000291CDE903100B460A4608460091FFF77D
:104170007BFE0CE01E20002101910291CDE903108D
:104180000B460A4608460091FFF76EFE00BF00BFCF
:1041900000BF00BF7CE100E072E001205C490870D4
:1041A0005C4908701E220021C82000F0A6FE5A4873
:1041B000007810B1012861D106E04848007810B1BC
:1041C00001205549087059E054480078072853D217
:1041D000DFE800F05204111E2B3845001E2000219C
:1041E00001910291CDE903100B460A460846009161
:1041F000FFF7C0FD40E01E20002101910291CDE9B2
:1042000003100B460A4608460091FFF7B3FD33E062
:104210001E20002101910291CDE903100B460A46B0
:1042200008460091FFF7A6FD26E01E20002101911F
:104230000291CDE903100B460A4608460091FFF7AC
:1042400099FD19E01E20002101910291CDE9031092
:104250000B460A4608460091FFF78CFD0CE01E2035
:10426000002101910291CDE903100B460A46084650
:104270000091FFF77FFD00BF00BF00BF00BF07E157
:10428000012023490870234908701E220021C820FC
:1042900000F033FE2048007810B1012806D106E076
:1042A0000E48007810B101201B4908707BE01B48C4
:1042B0000078072875D2DFE800F0740433404D5AC7
:1042C00067001E20002101910291CDE903100B46E9
:1042D0000A4608460091FFF75BFE62E0A601002057
:1042E000010100200000C8420401002000000C432E
:1042F0000801002000010020E8000020F00000205C
:10430000281800200000000000001643F8000020DC
:1043100030010020A5010020F1000020F90000205C
:104320001E20002101910291CDE903100B460A469F
:1043300008460091FFF72CFE33E01E20002101917A
:104340000291CDE903100B460A4608460091FFF79B
:104350001FFE26E01E20002101910291CDE90310ED
:104360000B460A4608460091FFF77EFD19E01E2025
:10437000002101910291CDE903100B460A4608463F
:104380000091FFF771FD0CE01E20002101910291C8
:10439000CDE903100B460A4608460091FFF764FD7D
:1043A00000BF00BF00BF00BF72E001204549087098
:1043B000454908701E220021C82000F09EFD434898
:1043C000007810B1012861D106E04148007810B1B1
:1043D00001203E49087059E03E480078072853D232
:1043E000DFE800F05204111E2B3845001E2000218A
:1043F00001910291CDE903100B460A46084600914F
:10440000FFF7B8FC40E01E20002101910291CDE9A8
:1044100003100B460A4608460091FFF7ABFC33E059
:104420001E20002101910291CDE903100B460A469E
:1044300008460091FFF79EFC26E01E200021019116
:104440000291CDE903100B460A4608460091FFF79A
:10445000F0FB19E01E20002101910291CDE903102B
:104460000B460A4608460091FFF7E3FB0CE01E20CE
:10447000002101910291CDE903100B460A4608463E
:104480000091FFF7D6FB00BF00BF00BF00BF00BF19
:1044900000BF00BF07B000BD01200A4908700E49E7
:1044A000087000200849087070470C49097881425B
:1044B00000D17047094908700021094A118000BFE6
:1044C000F7E7000030010020A5010020F1000020E6
:1044D000A6010020F900002079010020D40000206E
:1044E000D600002010B504462648B0F9440040F23A
:1044F0009E7188420DDD24480088204422490880AE
:104500000846008840F6B83188420BD104F0B1F873
:1045100008E01D480088002804DD00201A490880B2
:1045200004F0B6F81748B0F9460040F29E71884290
:104530000CDD16480088204414490880084600888D
:1045400064281EDB2046FFF7C6F81AE00F480088F3
:10455000002810DD00200D490880DFED0D0A9FEDD9
:104560000C0AFEF783FC00200A4908700A4908700B
:1045700004F08EF805E0DFED060A9FED050AFEF770
:1045800075FC10BD283700202C0100202E010020D2
:104590000000000030010020A5010020694890EDD6
:1045A000420A694880ED010A664890ED430A664870
:1045B00080ED020A9FED650A80ED030A614890EDE7
:1045C000440A614880ED040A9FED600A80ED050A07
:1045D0005C4890ED450A5E4880ED010A594890ED2F
:1045E000460A5B4880ED020A9FED580A80ED030AF7
:1045F000544890ED470A564880ED040A9FED530A4F
:1046000080ED050A704710B52DED028BB0EE408AA3
:104610005048C07C022872D14F48007800286ED0E4
:10462000F2EE042A9FED4D2A4D494748DFED471A27
:104630004C4A92ED001ADFED450AB0EE480A02F04E
:1046400015FEF2EE042A9FED452A47494048DFED6A
:104650003F1A464A92ED001ADFED3C0AB0EE480AD6
:1046600002F004FE3E4890ED090A414880ED000A40
:104670003D4890ED090A3F4880ED000A3E4890ED24
:10468000001AFFEE001A21EE211A3A48D0ED001A66
:10469000B4EEE11AF1EE10FA07DB374890ED001A9C
:1046A000FFEE001A21EE211A10E0324890ED001AB8
:1046B0003148D0ED001AB4EEE11AF1EE10FA02DD45
:1046C00090ED001A02E02B4890ED001AF0EE410A3E
:1046D000294890ED001AFFEE001A21EE211A244815
:1046E000D0ED001AB4EEE11AF1EE10FA08DB224820
:1046F00090ED001AFFEE001A21EE211A11E014E0ED
:104700001B4890ED001A1C48D0ED001AB4EEE11AD7
:10471000F1EE10FA02DD90ED001A02E0144890ED7F
:10472000001AB0EE410AFEF7A1FBBDEC028B10BDF2
:104730000C4880ED000A0D48C0ED000A0E4880EDDF
:10474000001A70470C1E0020881500200000000091
:10475000A015002028180020300100200000484249
:10476000B815002034010020E01500203801002099
:1047700040010020440100203C010020A84890EDA9
:10478000480AA84880ED010AA54890ED490AA548C5
:1047900080ED020A9FEDA40A80ED030AA04890ED87
:1047A0004A0AA04880ED040A9FED9F0A80ED050AA1
:1047B0009E4890ED390A9E4880ED000A704705E05A
:1047C000DFED9C0A70EE600AB0EE600ADFED9A0A37
:1047D000B4EEE00AF1EE10FAF2DC05E0DFED950A46
:1047E00070EE200AB0EE600ADFED940AB4EEE00A43
:1047F000F1EE10FAF2D3704710B52DED048BB0EE48
:10480000409AF0EE608A39EE680AB0EE408A9FED79
:104810008A0AB4EEC08AF1EE10FA06DD9FED850A31
:1048200038EE400AB0EE408A0CE09FED840AB4EE08
:10483000C08AF1EE10FA05D29FED7E0A38EE000A2A
:10484000B0EE408AB0EE480A01F0A6FFF0EE000A92
:10485000B4EEE00AF1EE10FA03D2012078490870B4
:1048600002E0002076490870B0EE480ABDEC048BE7
:1048700010BD10B52DED028BB0EE408A7148C07CA2
:10488000022862D17048007800285ED0684890ED18
:10489000000AFFF794FF6D4880ED000A6348D0EDF1
:1048A000390AB0EE600AFFF78AFF694880ED000A16
:1048B000D0ED000A5E4890ED000AFFF79DFF6548C5
:1048C00080ED000AF2EE042A9FED632A6349554801
:1048D000DFED551A5F4A92ED001ADFED530AB0EE94
:1048E000480A02F0C3FC5D4890ED090A5C4880ED7F
:1048F000000A5C48D0ED000ABFEE001A60EE810AA3
:10490000574890ED001AF4EEC10AF1EE10FA07DBF9
:104910005448D0ED000ABFEE001A60EE810A10E0A4
:104920004F48D0ED000A4F4890ED001AF4EEC10A4E
:10493000F1EE10FA02DDD0ED000A02E04848D0EDB9
:10494000000AB0EE600AFEF7C9FABDEC028B10BD9A
:1049500005E09FED381A30EE411AB0EE410A9FEDA6
:10496000361AB4EEC10AF1EE10FAF2DC05E09FED62
:10497000311A30EE011AB0EE410A9FED301AB4EE52
:10498000C10AF1EE10FAF2D3B3EE0E1AF4EEC10A38
:10499000F1EE10FA04DDB3EE0E1AF0EE410A0FE06C
:1049A000B1EE041AF4EEC10AF1EE10FA05D2B1EE3E
:1049B000041A2C4880ED001A02E02A48C0ED000AD3
:1049C0001B4880ED000A704700B50146F0EE401A22
:1049D0002548017031B101290BD0022910D00329DB
:1049E0001CD114E0F0EE610A9FED0F0AFFF7B0FF53
:1049F00014E0F0EE610A9FED1D0AFFF7A9FF0DE03C
:104A0000F0EE610A9FED0C0AFFF7A2FF06E0F0EE60
:104A1000610A9FED170AFFF79BFF00BF00BF00BDB3
:104A20000C1E00200816002000000000C801002015
:104A3000480100200000B44300003443000034C3A8
:104A40005E010020281800205C0100204C0100209D
:104A50005001002054010020000048422016002090
:104A600060010020580100205D0100200000B442D8
:104A700000008743704770B5044600250026207863
:104A80000006617840EA0140A17840EA0120E1781F
:104A900040EA010520790006617940EA0140A179E8
:104AA00040EA0120E17940EA010601203F4908700F
:104AB0003146284600F055F970BD70B504460E46E3
:104AC0001546012C04D0022C03D0032C08D104E09D
:104AD00006E02846FFF7CFFF02E0FFF7CBFF00BF5D
:104AE00000BF70BD10B5044631480078052845D296
:104AF000DFE800F003090F183100AA2C02D10120D1
:104B00002B4908703AE02B480470022028490870AD
:104B100034E0294804700020284908700320244903
:104B200008702BE02548007823490978884208DA84
:104B3000234822490978445420480078401C1F49E2
:104B400008701E4800781C490978884202D1042068
:104B50001749087012E0AF2C06D1194A164801789F
:104B600014480078FFF7A9FF002013490870104986
:104B70000870124908700F49087000BF00BF10BDCF
:104B80000178012902D0022902D100E000E000BF33
:104B900000BF4178102904D0112903D0122903D174
:104BA00001E001E000E000BF00BF70477C01002091
:104BB00064010020650100206601002067010020DB
:104BC0004816002010B52DED028BB0EE408A6A48E1
:104BD000007838B16948C07C022803D1B0EE480A99
:104BE000FFF711FDBDEC028B10BD10B564480078D5
:104BF00000285FD06348007810B1012859D12AE01D
:104C0000614890ED000A01F0C7FDF3EE0E0AB4EE24
:104C1000E00AF1EE10FA10D85C4890ED000A01F0BD
:104C2000BBFDF3EE0E0AB4EEE00AF1EE10FA04D882
:104C300057480078401C56490870082055490870AC
:104C400053480078142805D101204E4908700020EF
:104C50004F4908702DE04C4890ED000A01F09CFD92
:104C6000F2EE0E0AB4EEE00AF1EE10FA10D8474860
:104C700090ED000A01F090FDF2EE0E0AB4EEE00AAB
:104C8000F1EE10FA04D842480078401C4049087000
:104C90000520404908703E480078142808D10220B9
:104CA0003849087000203A490870032039490870D3
:104CB00000BF00BF00203249087010BD10B52DEDB7
:104CC000048B354890ED000AB8EEC00A10EE100AC9
:104CD00016F027FC41EC190B9FED300B53EC102B19
:104CE00016F07DFB41EC180B16F05EFC26490860BF
:104CF0002C4890ED000AB8EEC00A10EE100A16F02B
:104D000010FC41EC190B9FED250B53EC102B16F00A
:104D100066FB41EC180B16F047FC1C49086016486E
:104D2000007878B1FFF761FF1A48007800EE100AAA
:104D3000B8EE401A1548D0ED000A134890ED000A6D
:104D4000FFF7F6FCBDEC048B10BD00200D49087088
:104D50000B49087014200F49087000200C49087096
:104D6000704770B505460C460E4805600A48046059
:104D7000FFF7A4FF70BD0000790100202818002073
:104D80007C0100207A0100207001002074010020C5
:104D9000780100207B0100206C010020D122DBF98A
:104DA0007E6AD43F6801002010B5644800686449F9
:104DB0000968401A634908606348006863490968E4
:104DC000401A634908606348007830B1012816D062
:104DD000022828D0032850D13BE05F4890ED000A1C
:104DE000B8EEC01A5A4890ED000AF8EEC00A5548CD
:104DF00090ED000AB8EEC00AFFF79AFC3DE0564875
:104E000090ED000AB8EEC01A4E4890ED000AF8EE98
:104E1000C00A4F480068404200EE100AB8EEC00ACF
:104E2000FFF786FC29E04C4890ED000AB8EEC01A66
:104E300047480068404200EE100AF8EEC00A4148B8
:104E40000068404200EE100AB8EEC00AFFF770FC9E
:104E500013E0414890ED000AB8EEC01A39480068E6
:104E6000404200EE100AF8EEC00A394890ED000A00
:104E7000B8EEC00AFFF75CFC00BF00BF314890ED00
:104E8000000AB8EEC00A01F087FCF2EE0E0AB4EE9A
:104E9000E00AF1EE10FA11D82D4890ED000AB8EEB4
:104EA000C00A01F079FCF2EE0E0AB4EEE00AF1EE6F
:104EB00010FA03D801202949087002E00020274990
:104EC000087010BD70B505460C462548007850B1F5
:104ED00024480068281A1A49086023480068201AE4
:104EE0001A49086003E016480560184804601F4826
:104EF000007808B1FFF758FF70BD10B50F4B186070
:104F0000114B1960052A03DA0523134C236007E0CF
:104F10001E2A03DD1E23104C236001E00E4B1A6095
:104F200010BD074800680F490860084800680E492E
:104F3000086001200A4908707047000090010020B5
:104F40008801002098010020940100208C0100209D
:104F50009C0100205D010020A0010020A60100208E
:104F6000A40100208001002084010020A501002070
:104F700001B54F480078012806D0022810D0032838
:104F800016D0042844D12EE09DF80000FF2802D15D
:104F90000120474908700121684608F081FB37E08D
:104FA0009DF80000434908700320414908702FE034
:104FB000414800784149097888420ADA9DF80000A2
:104FC0003F493D4A127888543B480078401C3A4992
:104FD00008703948007839490978884202D104209C
:104FE0003349087014E09DF80000FE2806D1344AC9
:104FF000324801782F480078FFF75FFD00202F49E5
:1050000008702B4908702C4908702A49087000BFA5
:1050100000BF08BD70B505460C46012D02D0022D1B
:105020000AD108E02078274908706078264908707E
:1050300000F06EF800E000BF00BF70BD37B582B071
:1050400005461446AB200190CD200090012101A817
:1050500008F026FB012103A808F022FB2146284680
:1050600008F01EFB0121684608F01AFB05B030BDB0
:10507000F8B505460E460024002009E013492144F6
:1050800005EB800212680A60211DCCB2411CC8B237
:10509000B042F3DB0EA0006800900C482044009959
:1050A0000160201DC4B22146084808F0F9FAF8BD95
:1050B000A7010020A8010020AA010020A9010020CA
:1050C00080160020F8000020F9000020B81600200B
:1050D0000000807F17B583B01446AA200290AF204D
:1050E0000190012102A808F06CF8012103A808F042
:1050F00068F8012104A808F064F89DF81010204613
:1051000008F05FF8012101A808F05BF806B010BDB7
:1051100008B550A0006800906A4601210846FFF7D4
:10512000D9FF08BD2DE9F04105460E461446012D74
:1051300004D0022D1DD0032D1DD11BE0042E17DB42
:105140006078217840EA012007B2E078A17840EA4F
:1051500001200FFA80F841463846FFF7B3FE3E487B
:10516000007808B9FFF7D4FF01203B49087000BF61
:1051700001E000E000BF00BFBDE8F08110B50446CB
:1051800036480078052845D2DFE800F003090F18FB
:105190003100AA2C02D10120304908703AE0304891
:1051A000047002202D49087034E02E48047000205D
:1051B0002D4908700320294908702BE02A480078FF
:1051C00028490978884208DA284827490978445448
:1051D00025480078401C244908702348007821495C
:1051E0000978884202D104201C49087012E0AF2CD3
:1051F00006D11E4A1B48017819480078FFF792FF34
:10520000002018490870154908701749087014499A
:10521000087000BF00BF10BD08B50EA00068009068
:105220006A4601210220FFF755FF08BD08B509A015
:10523000006800906A4601210320FFF74BFF08BD7C
:1052400008B5002000906A4601210320FFF742FFC5
:1052500008BD000001000000AF010020AB010020EC
:10526000AC010020AD010020AE010020B8170020E5
:1052700070B504460E461546012C04D0022C03D00E
:10528000032C0AD101E008E007E00122114628467C
:10529000FFF7D4FEFFF73CFF00BF00BF70BD10B5A5
:1052A000044635480078052845D2DFE800F00309B8
:1052B0000F183100AA2C02D101202F4908703AE0C2
:1052C0002E48047002202C49087034E02C480470E9
:1052D00000202C4908700320274908702BE029483A
:1052E000007827490978884208DA2748254909784B
:1052F000445424480078401C224908702148007812
:105300001F490978884202D104201B49087012E025
:10531000AF2C06D11C4A1A48017818480078FFF7CC
:10532000A7FF002016490870134908701549087036
:105330001249087000BF00BF10BD17B583B01446F6
:10534000AA200290AF200190012102A807F06CFE74
:10535000012103A807F068FE012104A807F064FEFC
:105360009DF81010204607F05FFE012101A807F00C
:105370005BFE06B010BD0000B0010020B1010020AE
:10538000B2010020B3010020F01700200748C07AC6
:1053900008B9012000E0002005490870012048708C
:1053A000704710B505F0E7FF10BD00002818002079
:1053B0006A04002090ED031AB5EEC01AF1EE10FA5F
:1053C00020DD90ED051AD0ED031AF1EE611AB4EE6E
:1053D000E11AF1EE10FA04D890ED031AB1EE411A79
:1053E0000DE090ED051AD0ED031AB4EEE11AF1EEDE
:1053F00010FA02DD90ED031A01E090ED051AF0EECF
:10540000410A01E0D0ED050A90ED001A31EE201AB4
:1054100080ED061A90ED011AD0ED061A31EE611AF0
:10542000D0ED021A21EE211A80ED041A90ED051A32
:10543000D0ED041A01EE801A80ED051A7047D0ED08
:10544000000A90ED041A30EE811AD0ED050A41EE03
:10545000000AC0ED050AD0ED010A90ED051A70EEC4
:10546000C10A90ED021A60EE810AC0ED040AD0ED87
:10547000030AF5EEC00AF1EE10FA1FDDD0ED040AC2
:1054800090ED031AB1EE411AF4EEC10AF1EE10FAF2
:1054900004D8D0ED030AF1EE600A0DE0D0ED040A65
:1054A00090ED031AF4EEC10AF1EE10FA02DDD0ED30
:1054B000030A01E0D0ED040AC0ED040A7047F0EEE3
:1054C000401A9FEDFC2A20EE822A22EE212AB7EE16
:1054D000003AC3EE022AB7EE002A32EE822AB7EE75
:1054E000003AC3EE022A90ED002A31EE423A90EDE6
:1054F000002A02EE832A80ED002AB5EEC01AF1EEF2
:1055000010FA02DDB0EE412A01E0B1EE412AB0EE20
:10551000420A90ED002AF1EE402AB4EEE22AF1EEC2
:1055200010FA02D8B1EE402A0BE090ED002AB4EE5A
:10553000C02AF1EE10FA02DDB0EE402A01E090ED53
:10554000002A80ED012A7047F0EE401A9FEDD92A1B
:1055500020EE822A22EE212AB7EE003AC3EE022A7A
:10556000B7EE002A32EE822AB7EE003AC3EE022AE4
:1055700090ED002A31EE423A90ED002A02EE832AA5
:1055800080ED002A90ED002AB5EEC02AF1EE10FA67
:1055900002DD90ED002A03E090ED002AB1EE422AF0
:1055A000B0EE420AB1EE402AB4EEC21AF1EE10FAA1
:1055B00002D8B1EE402A09E0B4EEC01AF1EE10FABA
:1055C00002DDB0EE402A01E0B0EE412A80ED012A72
:1055D0007047F0EE401A9FEDB72A20EE822A22EEA5
:1055E000212AB7EE003AC3EE022AB7EE002A32EEC5
:1055F000822AB7EE003AC3EE022A90ED002A31EE7D
:10560000423A90ED002A02EE832A80ED002AB5EEA0
:10561000C01AF1EE10FA02DDB0EE412A01E0B1EE5F
:10562000412AB0EE420A90ED002AF1EE402AB4EE93
:10563000E22AF1EE10FA02D8B1EE402A0BE090ED2A
:10564000002AB4EEC02AF1EE10FA02DDB0EE402AD4
:1056500001E090ED002A80ED002A80ED012A7047DC
:105660002DE9F84F04460D46DDF828804FF001097A
:105670004FF0000A0126B346CDF800B00127DFED58
:105680008E0AB0EE600A00208446D2F808B0C2F854
:105690000CB092F800B00BF1010B0BF0FF0B82F88D
:1056A00000B0AB4502DB834682F800B092F800B050
:1056B00044F82B80D2F80CB0A8EB0B0B00EE90BA9C
:1056C000B8EEE01A00EE903AF8EE600AC1EE201A49
:1056D000B0EE610AB5EEC00AF1EE10FA02DDF0EEAE
:1056E000400A01E0F1EE400AB7EE001AF4EEC10AFA
:1056F000F1EE10FA2BD2B5EEC00AF1EE10FA02DD8F
:10570000B0EE401A01E0B1EE401A00EE903AF8EE29
:10571000600A61EE200AB0EE001AF4EEC10AF1EE62
:1057200010FA04D2DFED640AB0EE600A0FE0B5EEC5
:10573000C00AF1EE10FA02DD4FF0010B01E04FF06C
:10574000FF3B00EE90BAF8EEE00AB0EE600AD068D7
:1057500000BF00210DE054F821B0ABEB000B54F872
:1057600021E0AEEB000E0BFB0ECC01F1010B0FFAAA
:105770008BF1A942EFDBD2F804B0ACEB0B0BBBF121
:10578000000F11DDB9F1000F03D14FF0000BCDF880
:1057900000B04FF00109012F02D14FF0FF3B01E0B3
:1057A0004FF0010B5F4607E04FF000099E4203DA1D
:1057B00006F1010B0BF0FF06C2F804C04FF0000C1D
:1057C00000EE900AB8EEE01A00EE907AF8EEE00AE9
:1057D00000EE801AFDEEC10A10EE900A0AF1010BEC
:1057E0000BF0FF0BDA469B4502DDE346CDF800B037
:1057F000022E03DB4FF0000BCDF800B0DDF800B057
:10580000BBF1010FA5D09060D2E902BEABEB0E0B4D
:10581000C2F810B0BDE8F88F70B505460C46167892
:10582000761CF6B21670A64201DB002616701678BA
:1058300005EB860686ED000A002009E005EB8006F0
:1058400096ED001A03EB800686ED001A461CF0B2B6
:10585000A042F3DB002029E0002121E003EB8106D8
:1058600096ED001A4E1C03EB8606D6ED001AB4EE38
:10587000E11AF1EE10FA11DD4E1C03EB8606D6EDAF
:10588000000A03EB810696ED001A4E1C03EB860618
:1058900086ED001A03EB8106C6ED000A4E1CF1B23C
:1058A000661E361A8E42D9DC461CF0B2661E86424F
:1058B000D2DC70BDC3F5C8400000000030B50C4616
:1058C00015886D1CADB21580A54201DB0025158041
:1058D000158800EB8505D5ED000A158800EB8505D8
:1058E00085ED000A70EE601A01EE104AB8EE412A0A
:1058F00081EE821AD3ED001A31EE211A83ED001ADF
:1059000093ED001AD3ED001A70EE611ABFEE002A73
:10591000F4EEC21AF1EE10FA02D8FFEE001A11E00E
:10592000D3ED001A70EE611AB7EE002AF4EEC21A37
:10593000F1EE10FA02DDF7EE001A03E0D3ED001AE3
:1059400070EE611A9FEDA82A02EE211A83ED001A6B
:1059500030BD5FED281A60EE211A21EEA02AF7EE85
:10596000002AC2EE821AB7EE002A71EE821AF7EE12
:10597000002A82EEA12AD0ED001A71EE612AD0ED44
:10598000001A42EE221AC0ED001A704770B52DEDD4
:105990000A8BB0EE408AF0EE608AB0EE419AF0EEEB
:1059A000619A044694ED001BB0EE410AF0EE610AE4
:1059B00053EC102B51EC190B15F00BFD41EC1B0BAC
:1059C0001FED440A28EE000A20EE280AB7EE001A5E
:1059D000C1EE000AB7EE000A30EE800AF7EE000AC8
:1059E00080EE801A11EE105A284615F09AFD41EC0F
:1059F0001C0B53EC1B2B15F0F2FC41EC1A0B94ED35
:105A0000001BB0EE410AF0EE610A53EC102B15F0CA
:105A10003FFCC4E90001BDEC0A8B70BD90ED001A9B
:105A200030EEC11AB4EEC01AF1EE10FA06DD90EDB8
:105A3000001A31EE001A80ED001A13E090ED001A02
:105A400030EEC11AF1EE401AB4EEE11AF1EE10FA9E
:105A500006D290ED001A31EE401A80ED001A01E0F6
:105A6000C0ED000A7047B0EE402A1FED6E0A20EE2E
:105A7000800A20EE020AB7EE003AC3EE002AB7EE23
:105A8000000A32EE800AB7EE003AC3EE002A90ED2B
:105A9000000A31EE403A90ED000A02EE830A80EDF2
:105AA000000A90ED000AF1EE612AB4EEE20AF1EE8E
:105AB00010FA02D8B1EE610A0BE090ED000AB4EEE4
:105AC000E10AF1EE10FA02DDB0EE610A01E090EDBC
:105AD000000A80ED000A90ED000A31EE400A70479E
