:020000040800F2
:10000000E03C0020F9860108A101000803870108EF
:10001000A3010008A7010008AB01000800000000D0
:10002000000000000000000000000000AF01000818
:10003000B1010008000000000F8701083DBC000866
:100040001387010813870108138701081387010824
:100050001387010813870108138701081387010814
:100060001387010813870108138701081387010804
:1000700013870108138701081387010813870108F4
:1000800013870108138701081387010813870108E4
:10009000138701081387010813870108B3010008BB
:1000A00013870108138701081387010813870108C4
:1000B00013870108C5010008CD0100081387010856
:1000C00013870108138701081387010813870108A4
:1000D00013870108CF010008D1010008D9010008E9
:1000E0001387010813870108138701081387010884
:1000F0001387010813870108138701081387010874
:100100001387010813870108138701081387010863
:10011000E1010008E90100081387010813870108BD
:100120001387010813870108138701081387010843
:100130001387010813870108138701081387010833
:1001400013870108138701081387010869DC000879
:10015000138701081387010813870108F1010008BC
:100160001387010813870108138701081387010803
:1001700013870108138701081387010813870108F3
:100180001387010813870108DFF810D01AF04AF925
:1001900000480047E9030008AFF30080E03C00207E
:1001A000704700BFFEE700BFFEE700BFFEE77047F5
:1001B000704710B5802011F03CFF10B1802011F085
:1001C0008EFF10BD10B50FF0EAFA10BD70477047F2
:1001D00010B50BF00EFE10BD10B50BF0DAFE10BD21
:1001E00010B50BF0ABFF10BD10B50CF074F810BDDE
:1001F00010B50FF06AFA10BD10B518F08FFA012093
:1002000018F097FA10BD70B50246002012E0145C99
:10021000594B1D881B885B1C574E3380574B5C55D0
:1002200033461B88B3F57A7F02D1002334462380FE
:10023000431CD8B28842EADB70BD10B54E48008836
:100240004F490988401A04B2002C02DA04F57A708A
:1002500004B23F2C24DB00204A4908703F204A4961
:100260000870002014E046490A880988491C444B5C
:10027000198042498A5C444B411C5A5440490988C0
:10028000B1F57A7F02D100213D4A1180411CC8B2EC
:100290003F28E8DB40223C49002019F0CAFA34E04C
:1002A00038480078401C37490870084600783749BC
:1002B0000978884229D100203249087032490C70EF
:1002C00000BF1BE0A04213DA2D490A880988491CA7
:1002D0002B4B198029498A5C2B4B411C5A542849C5
:1002E0000988B1F57A7F07D10021254A118003E002
:1002F0000022254B411C5A54411CC8B23F28E1DB67
:1003000040222149002019F094FA10BD10B504468E
:10031000012C02D0032C11D10EE059B923B1012BCD
:1003200005D0022B04D100E000BF402010BD00BF6B
:1003300000BF00BF00BF01E00120F7E700BF0020C1
:10034000F4E72DE9F0470646884614469946089F8B
:10035000022E02D0032E0CD10AE0012504E0605DDC
:1003600001F0C6FA681CC5B22078A842F7DA00E0AE
:1003700000BF00BFBDE8F08704000020300500206A
:1003800002000020060000201809002000000020C4
:1003900019F042B9704700207047002070470020D4
:1003A00070470020704700207047002070470020F1
:1003B00070470020704700207047002070470020E1
:1003C000704700207047002070470020704719F0E8
:1003D0004AB97047002070470020704718F08EBF60
:1003E0007047000000BFFEE700F04BF903490870BA
:1003F00000F0D3F801E000F0F6F8FCE780160020EA
:1004000010B58C4840688B4908600BF0C6FB8949E1
:1004100048608949C8608748406886490968401A29
:100420008449886008F01EFF012005F06BFE012062
:1004300008F049FF08F0C1FF0EF0B9F97F4901202B
:1004400007F022F8012007F079FA9FED7D0A02F00B
:1004500075FE01F054FA0BF0A0FB774908610846DD
:100460000069C968401A7449486110BD10B59FED14
:10047000750A06F0E2FD022008F0DEFC022002F020
:1004800002FC10BD10B504F080FF6C489FED6E0AB1
:1004900006F000FB9FED6C0A0FF036F8052008F01F
:1004A0009DFF10BD10B50BF078FB634908600A2072
:1004B00001F0B0FC0A2007F0F4FA9FED640A06F0A0
:1004C000FBF89FED620A06F000F89FED600A01F06C
:1004D000EDFC0A2009F03AFA0BF05FFB5649486040
:1004E000084640680968401A534988600A2003F0AA
:1004F000B1F89FED560A03F022F89FED540A03F07D
:100500002FFA9FED520A03F010F910BD10B519F043
:10051000F1FC142001F0B5FE142002F0D0FF474991
:10052000142007F014FC10BD10B5322008F08CFD2B
:1005300032200EF074FA10BD1CB5454800788DF8D5
:10054000000043480088000A8DF801004048006818
:10055000000C8DF802003E480068000E8DF8030084
:100560003C4800788DF804003A480088000A8DF86D
:10057000050038480068000C8DF806003548006812
:10058000000E8DF807004FF4FA7009F0A9FD08225B
:100590000221684603F0BEFC1CBD002000BF1FE026
:1005A00000EB40012C4A02EB810189884FF47A72FA
:1005B00092FBF1F100EB4002274B03EB8202D1806A
:1005C00000EB40011A4602EB8101C988012905DAD6
:1005D000012100EB400203EB8202D180411CC8B232
:1005E0000728DDD3704770B5002400BF1EE00BF074
:1005F0000FFB054604EB4400174901EB80008068BF
:10060000281A04EB4401144A02EB8101C98888428C
:100610000AD304EB4400114601EB8000856004EB33
:10062000440152F821008047601CC4B2072CDED37D
:1006300070BD0000780C0020840C0020E410002025
:100640006F12833A6F12033B0AD7A33B0AD7233CAE
:1006500024010020280100201400002010B50BF018
:100660005CFF18B102205149087009E00BF0CDFE83
:1006700018B101204D49087002E000204B49087074
:1006800010BD10B54FF480600FF0BCF80BF053FABA
:1006900064200BF0ABFA08F0EBFF0CF02DFB03F03D
:1006A00022FD0EF08FFD0BF073F832200BF09EFA56
:1006B0000AF0D6FF0BF07CFE0BF064FF0EF032FC6C
:1006C0000A200BF093FAFFF7C9FF0EF0B5FC38498A
:1006D000487008703548007828B9002088700120DB
:1006E0003449087208E00120314988702F480078A9
:1006F000022801D10BF025FF0CF082F92C49C870BB
:10070000FFF77AFD64200BF071FA4FF4E1300BF043
:10071000FDFA0A200BF06AFA4FF4E1300BF0C4FB4B
:100720004FF416500BF070FD23480BF08DFC09F0D0
:1007300000FB64200BF05AFA06F0ECFD64200BF08D
:1007400055FA4FF4E1300BF08DFA0EF011F905F087
:10075000D2FC00F041F8194991F84A01303119F002
:100760009DFA17A30222AF21052000F0BCFD012055
:1007700010BD10B5044624B10121154811F0C8FF81
:1007800003E00121124811F092FF10BD10B504469C
:100790002CB14FF480610F4811F0BAFF04E04FF420
:1007A00080610C4811F083FF10BD0000680000203C
:1007B000AC160020541C002020A10700641C00205F
:1007C00053595320696E6974204F4B21000000007B
:1007D000000C0240000802400A21F748A0F89210DD
:1007E000A0F89E101421A0F8A4100A21A0F8AA10C5
:1007F0000021A0F8B0103221A0F8B610A0F8BC106B
:10080000A0F8C210A0F8C810C821A0F8E610A0F8FF
:10081000EC10A0F8F8106421A0F8101100201BE0E3
:1008200000EB4002E449903101EB42014A8800EBC1
:100830004003E24901EB43014A8000EB4002DE49FC
:10084000903101EB42018A8800EB4003DB4901EB68
:1008500043018A80411CC8B21828E1DB704770B59B
:1008600004460D46164604F0010018B131462846EC
:10087000FFF7C9FC04F0040018B1314628460BF01C
:1008800061FD70BD3CB50246092A7CD008DC092A0E
:100890007AD2DFE802F07918B3FEFDFCFBFAF9002A
:1008A000302A72D008DC0D2A70D00E2A6FD00F2AA1
:1008B0006ED0202A68D1DCE2402A6AD0412A69D071
:1008C000FA2AF7D11AE3BE4890ED1C0ABDEEC00A21
:1008D00010EE100A00B201909DF804300C78601CF4
:1008E0000870B84803559DF805300C78601C0870F6
:1008F000B4480355B24890ED1D0ABDEEC00A10EE93
:10090000100A00B201909DF804300C78601C087049
:10091000AC4803559DF805300C78601C0870A94858
:100920000355A74890ED1E0ABDEEC00A10EE100A4E
:1009300000B201909DF804300C78601C0870A1484A
:1009400003559DF805300C78601C08709D480355D0
:100950009B4890ED160ABDEEC00A10EE100A00B2D8
:1009600001909DF804300C78601C08709548035580
:100970009DF805300C78601C08709248035590482B
:1009800090ED170A07E012E2B9E254E210E236E213
:100990006EE25EE26BE2BDEEC00A10EE100A00B23B
:1009A00001909DF804300C78601C08708548035550
:1009B0009DF805300C78601C08708248035580480B
:1009C00090ED180ABDEEC00A10EE100A00B20190B8
:1009D0009DF804300C78601C08707A4803559DF827
:1009E00005300C78601C087076480355744803780D
:1009F0000C78601C08707348035581E27248408887
:100A000001909DF804300C78601C08706D48035507
:100A10009DF805300C78601C08706A4803556A48D8
:100A2000808801909DF804300C78601C087065483F
:100A300003559DF805300C78601C0870614803551B
:100A40006148C08801909DF804300C78601C0870E3
:100A50005C4803559DF805300C78601C08705948B7
:100A600003555A4890ED030ABDEEC00A8DED000A09
:100A70009DF800300C78601C0870524803559DF8B2
:100A800001300C78601C05E054E10DE1EDE0A3E0DD
:100A900090E037E008704B4803559DF802300C7821
:100AA000601C0870474803559DF803300C78601CA3
:100AB000087044480355424890ED1F0ADFED440A90
:100AC00020EE200ABDEEC00A10EE100A00B201901E
:100AD0009DF804300C78601C08703A4803559DF866
:100AE00005300C78601C08703648035500230C78DC
:100AF000601C0870334803550C78601C087031483E
:100B00000355FDE1334890ED370ADFED310A20EE61
:100B1000200ABDEEC00A10EE100A00B201909DF846
:100B200004300C78601C0870264803559DF8053089
:100B30000C78601C087023480355264890ED380A4D
:100B4000DFED230A20EE200ABDEEC00A10EE100AE7
:100B500000B201909DF804300C78601C08701948B0
:100B600003559DF805300C78601C08701548035536
:100B7000184890ED390ADFED160A20EE200ABDEE86
:100B8000C00A10EE100A00B201909DF804300C78F3
:100B9000601C08700B4803559DF805300C78601CEC
:100BA00008700848035500230C78601C087005483D
:100BB0000355A5E1A4E100009C0C0020BC0D002021
:100BC000343400204C0E00205C0300209C310020B7
:100BD0000000C8425C010020F74890ED050ABDEE18
:100BE000C00A8DED000A9DF800300C78601C08707A
:100BF000F24803559DF801300C78601C0870EF48EE
:100C000003559DF802300C78601C0870EB480355C2
:100C10009DF803300C78601C0870E8480355E848DC
:100C2000408800909DF800300C78601C0870E34804
:100C300003559DF801300C78601C0870DF4803559F
:100C40009DF802300C78601C0870DC4803559DF854
:100C500003300C78601C0870D848035500230C78CA
:100C6000601C0870D54803554AE1D648C37D0C780E
:100C7000601C0870D1480355D248C37A0C78601CB8
:100C80000870CE48035500230C78601C0870CB48D0
:100C900003550C78601C0870C84803550C78601C1C
:100CA0000870C64803552BE1C74890ED030ABDEE16
:100CB000C00A10EE100A00B201909DF804300C78C2
:100CC000601C0870BD4803559DF805300C78601C09
:100CD0000870BA480355BC4890ED040ABDEEC00A3E
:100CE00010EE100A00B201909DF804300C78601CE0
:100CF0000870B24803559DF805300C78601C0870E8
:100D0000AE480355B14890ED050ABDEEC00A10EE9D
:100D1000100A00B201909DF804300C78601C087035
:100D2000A64803559DF805300C78601C0870A34850
:100D30000355E5E0002000909DF800300C78601C21
:100D400008709E4803559DF801300C78601C0870AF
:100D50009A4803559DF802300C78601C087097483B
:100D600003559DF803300C78601C087093480355B8
:100D7000002000909DF800300C78601C08708F48AF
:100D800003559DF801300C78601C08708B480355A2
:100D90009DF802300C78601C0870884803559DF857
:100DA00003300C78601C087084480355A8E0A7E065
:100DB000874890ED000A5FED7A0A20EE200ABDEE2A
:100DC000C00A10EE100A00B201909DF804300C78B1
:100DD000601C0870794803559DF805300C78601C3C
:100DE00008707648035500230C78601C087073481F
:100DF00003550C78601C08707048035580E07548F6
:100E000083780C78601C08706C48035500230C78BC
:100E1000601C0870694803556E4843790C78601C63
:100E20000870664803556B48C3780C78601C0870DE
:100E30006248035564E0002008E0674B1C5C0D78B5
:100E40006B1C0B705D4B5C55431CD8B21728F4DB50
:100E500056E0002008E0614B1C5C0D786B1C0B70A9
:100E6000564B5C55431CD8B21428F4DB48E047E0ED
:100E700046E05B48008801909DF804300C78601CC7
:100E800008704E4803559DF805300C78601C0870BA
:100E90004A4803555248408801909DF804300C7828
:100EA000601C0870454803559DF805300C78601C9F
:100EB0000870424803554A48808801909DF80430E4
:100EC0000C78601C08703D4803559DF805300C787F
:100ED000601C0870394803554148C08801909DF84E
:100EE00004300C78601C0870344803559DF80530B8
:100EF0000C78601C08703148035501E000E000BF29
:100F000000BF3CBD2DE9F84381460D4690460020C8
:100F10000090AA219DF80020501CC0B200902748E4
:100F200081549DF80010481CC0B20090234800F87E
:100F30000180182D01DBBDE8F8832A48465D9DF845
:100F40000010481CC0B200901C48465400219DF877
:100F50000020501CC0B200901848815469463046A9
:100F6000FFF790FC9DF80000001F1449C870002492
:100F70000027002007E01149095C2144CCB239194F
:100F8000CFB2411CC8B29DF800108842F3DB9DF837
:100F90000010481CC0B20090084844549DF800104E
:100FA000481CC0B200900548475400BFC3E7F0B5E5
:100FB00003460C46002143E0401700204C0E002061
:100FC0000403002080160020FC1B002028170020AE
:100FD000840300204601002004330020BA3300209F
:100FE0007003002030A6010801EB410000EB8110E6
:100FF000FE4D285C10BB01EB410000EB8110284442
:10100000437001EB410000EB811028448270002006
:101010000AE0265C01EB410505EB8115F34F3D44E9
:10102000ED1C2E54451CE8B29042F2DB012001EB8E
:10103000410505EB8115ED4E7055F0BD481CC1B260
:101040000529D1DB0020F8E7002010E000EB40018B
:1010500001EB8011E54A515C39B1002100EB4002FF
:1010600002EB8012E14B99547047411CC8B205282D
:10107000ECDB00BFF8E770B50446012C04D0022C6D
:1010800014D0042C37D121E001EB4106D84D05EBFB
:101090004605AA1C01EB4106D54D05EB4605281D6A
:1010A00001EB4106D24D05EB460325E001EB41057E
:1010B000D04E06EB4505AA1C01EB410506EB4505A4
:1010C000281D01EB410506EB450315E001EB410648
:1010D000C74D903D05EB4605AA1C01EB4106C44DEA
:1010E000903D05EB4605281D01EB4106C04D903DA6
:1010F00005EB460300E070BD00BF182900DBFAE7EE
:10110000158855B105881688B54203DA05886D1C27
:10111000058002E001251D70058000BFEBE72DE989
:10112000F04107460C46012F04D0022F09D0042FAE
:1011300016D10DE0AF2604EB4401AD4800EB4105AC
:1011400011E0FF2604EB4400AA4901EB40050AE048
:10115000AF2604EB4401A648903800EB410502E0BD
:101160000020BDE8F08100BF182C01DB0020F8E76B
:10117000287840B100202870324621463846FFF7D3
:10118000C1FE0120EDE70020EBE72DE9F05F82468C
:101190000E4617469846DDF828B00024AA222146BC
:1011A000641C954842542146641C46540022214642
:1011B000641C42542146641C42542146641C47541A
:1011C0002146641C00F801802146641C00F801B02F
:1011D000201F8949C87000254FF00009002009E050
:1011E0008549095C2944CDB209EB050101F0FF09ED
:1011F000411CC8B2A042F3DB2046611CCCB27E4940
:101200000D542046611CCCB27B4901F80090224667
:101210005046FFF7CCFEBDE8F09F2DE9F74181B0C5
:1012200080460E4600200090BDF80C0008F091FFAB
:1012300000900024AA222146641C6F484254214693
:10124000641C4654E2222146641C4254002221467A
:10125000641C42549DF80C202146641C42549DF8A5
:101260000D202146641C42549DF800202146641C38
:1012700042549DF801202146601CC4B25E4842548D
:101280009DF802202046611CCCB25B490A549DF8AF
:1012900003202046611CCCB257490A54201FC87055
:1012A00000250027002007E05349095C2944CDB2FE
:1012B0007919CFB2411CC8B2A042F5DB2046611CAF
:1012C000CCB24D490D542046611CCCB24A490F5452
:1012D00022464046FFF76BFEBDE8FF8100BF00BF1E
:1012E00000BF00BF70472DE9F05F834688469146F6
:1012F0001E460024AA222146641C3F48425421462F
:10130000641C00F80180A0222146641C4254002283
:101310002146641C42542146641C00F80190924608
:101320000CE05046411C01F0FF0A325C2046611C73
:10133000CCB231490A54322C00DD03E016F80A0021
:101340000028EED100BF201F2B49C87000250027C0
:10135000002007E02849095C2944CDB27919CFB2B1
:10136000411CC8B2A042F5DB2046611CCCB2224928
:101370000D542046611CCCB21F490F5422465846DA
:10138000FFF715FEBDE8F09F2DE9F04781460E46B8
:1013900017460024AA222146641C174842542146BD
:1013A000641C4654F1222146641C4254002221460A
:1013B000641C42542146641C4754201F0E49C870C7
:1013C00000254FF00008002009E00B49095C294482
:1013D000CDB208EB050101F0FF08411CC8B2A042E4
:1013E000F3DB2046611CCCB2034907E08C0E0020E1
:1013F000BC0D00209C0C0020DB0F00200D5420466B
:10140000611CCCB2F84901F8008022464846FFF73B
:10141000CEFDBDE8F0872DE9F84380460C46154621
:1014200000260027E178A81F814201D0BDE8F8839B
:10143000002006E0215C3144CEB2B919CFB2411C84
:10144000C8B2A91E8142F5DC601910F8020CB04246
:1014500004D1601910F8010CB84200D0E6E7A0787A
:10146000402875D0A0784128FBD0A0783028F8D04B
:10147000A0783228F5D0A0783328F2D0A07834288C
:10148000EFD0A0780D28ECD0A078E0286FD120799B
:10149000012804D010286DD011286AD19EE060790F
:1014A00080BBA079012861D0A079022807D1CF485C
:1014B000C07A00285AD10120CD49C87056E0A079E1
:1014C000032853D0A079042850D0A07905284DD006
:1014D000A07910284AD0A079612847D0A079622845
:1014E00044D0A079AA2804D108F080FC02F0F0FDD5
:1014F0003CE0A079AB2806D1012008F040FD02F0C5
:10150000E7FD33E00AE0A079AC282FD108F06EFCAB
:10151000022008F034FD02F0DBFD27E060790128AD
:1015200000D123E06079302820D1A079012810D1A2
:10153000AE48C07AD0B9AF480078401CAD490870B9
:101540000120AB4988700020AB4981F84A010DE0C9
:101550006EE0A079022809D1A448C07A30B90220EF
:10156000A64908700020A44981F84B0138E040E00A
:1015700000E034E0607948BBA07907281DD007DC83
:10158000072821D2DFE800F02013141516171800E1
:10159000602816D006DC082810D009280FD00A28A9
:1015A00012D10DE061280DD062280DD10BE00CE0C6
:1015B0000BE00AE009E008E007E006E005E004E0EF
:1015C00003E002E001E000E000BF06E060790128EE
:1015D00003D06079022800D000BF01E000E000BF26
:1015E00000BF0097A2783346AF214046FFF7CDFDFC
:1015F0001EE0A078E0B1A078E12805D1A288AF2153
:101600004046FFF70AFE13E0A078E2280CD1D4F898
:101610000610A08809F093F90097A2783346AF210D
:101620004046FFF7B2FD03E0A078602800D000BF7D
:1016300000BFFBE62DE9F04106460D46012E01D123
:10164000002404E0022E01D1012400E0022404EB76
:10165000440000EB84106A49084490F842000728CF
:1016600075D2DFE800F00416374875D9FC00AA2DC2
:101670000ED1012004EB440101EB8411604A1144B6
:1016800081F8420004EB440000EB841011460D5435
:1016900024E1052D03D0FF2D01D0052D10D102200E
:1016A00004EB440101EB8411554A114481F84200D6
:1016B00004EB440000EB841011460844457008E038
:1016C000002004EB440101EB84114D4A114481F8E0
:1016D000420003E1032004EB440101EB8411484A7A
:1016E000114481F8420004EB440000EB84101146E1
:1016F00008448570F2E03B2D1FDA042004EB44011E
:1017000001EB84113E4A114481F8420004EB44008D
:1017100000EB841011460844C57004EB440000EB54
:101720008410084480F84050002004EB440101EB91
:101730008411114481F8410008E0002004EB4401C9
:1017400001EB84112E4A114481F84200C6E0BBE04F
:1017500004EB440000EB84102949084490F8400051
:1017600000284FDD04EB440000EB8410084490F89F
:101770004000401E04EB440101EB8411204A114457
:1017800081F8400004EB440000EB8410114608444B
:1017900090F8410004EB440101EB8411114491F8ED
:1017A0004110491C04EB440202EB8412144B1A440E
:1017B00082F84110001D04EB440101EB84111A462C
:1017C00011440D5404EB440000EB8410114608440E
:1017D00090F84000F8B9052004EB440101EB8411B6
:1017E000114481F8420016E0DB0F00208016002033
:1017F000180500206A000020641C00205C03002003
:101800001B100020002004EB440101EB8411514A1D
:10181000114481F8420061E0062004EB440101EB31
:1018200084114C4A114481F8420004EB440000EB5F
:1018300084101146084490F8410004EB440101EB88
:101840008411114491F84110491C04EB440202EB4D
:101850008412404B1A4482F84110001D00E007E05A
:1018600004EB440101EB84111A4611440D5435E098
:10187000002004EB440101EB8411364A114481F845
:10188000420004EB440000EB84101146014404EBD9
:10189000440000EB8410104490F84100001D0D54EA
:1018A00004EB440000EB84101146084490F841001A
:1018B000401DC7B204EB440000EB841081183A4687
:1018C0003046FFF7A8FD09E0002004EB440101EBDE
:1018D0008411204A114481F8420000BF00BFBDE8D6
:1018E000F08110B5044621460420FFF7A3FE10BD89
:1018F00010B5044621460120FFF79CFE10BD10B52F
:10190000FFF7A2FB002409E021460420FFF7B3FB08
:1019100021460120FFF7AFFB601CC4B2182CF3DB9B
:10192000002405E021460420FFF7F9FB601CC4B247
:10193000182CF7DB002407E021460120FFF7EFFB1E
:1019400000B103E0601CC4B2182CF5DB00BFFEF749
:1019500074FC10BD1B10002070B5DDE904452BB1EF
:101960000E882EB10E8806440E8001E001260E80FE
:101970000E88964202DB2C7000260E8070BD7CB56E
:101980000546FE480079022824DCFD48407808BB63
:10199000FC484078B8B1FB480078A0B1F948C0785D
:1019A00050B1F648407818B10020F449487214E06C
:1019B0000120F249487210E00120F34948720220E8
:1019C000EE49487209E00120EF49C8710320EB4954
:1019D000487202E00420E9494872E848C07A0028C9
:1019E00040D1E648807A002849D0E448407A50B98E
:1019F000E248807AE149C872E4A30222AF210520BF
:101A0000FFF771FC3BE00020DC4988720846407A11
:101A1000012806D1E0A30222AF210520FFF763FCD5
:101A20002DE0D648407A022806D1DBA30222AF215E
:101A30000520FFF758FC22E0D048407A032806D161
:101A4000D5A30222AF210520FFF74DFC17E0CB48BC
:101A5000407A042813D1D4A30222AF210520FFF736
:101A600042FC0CE0C548807A28B9D5A30222AF21F8
:101A70000520FFF738FCC148807AC049C872D548B4
:101A8000B0F9040010F5967F7EDAD248B0F906006E
:101A9000002803DDCF48B0F9060003E0CD48B0F9D7
:101AA0000600404200EE100AB8EEC00AF3EE0E0A3D
:101AB000B4EEE00AF1EE10FA14DDC648B0F9020007
:101AC00000EE100AB8EEC00AFBEE0E0AB4EEE00A11
:101AD000F1EE10FA06D2A948407B30B90120A7499F
:101AE000487302E00020A5494873BA48B0F90200E3
:101AF00010F5967F12DAB748B0F90000B0F5967F7E
:101B00000CDDB448B0F9060010F5967F06DA012026
:101B1000B14908700220994948731BE0AD48B0F9FB
:101B2000020010F5967F12DAAA48B0F9000010F50D
:101B3000967F0CDAA748B0F90600B0F5967F06DD6F
:101B40000120A549087002208C49487302E000205A
:101B5000A149087000248948C07A28B100BF4FF419
:101B600096709E49088004E002244FF4FA709B4965
:101B7000088082480A30CDE90040974803789748AA
:101B800002889749284600E002E0FFF7E5FE08E0FA
:101B900000207A4948730846807A022801D1012042
:101BA00088728C48B0F9040010F5AF7F03DD002087
:101BB0007249087302E00120704908737CBD00205F
:101BC00005E00021834A22F81010411CC8B2042805
:101BD000F7DB8048B0F90400002802DD00207D49D1
:101BE000888000207B4908804880C8806348C07A8C
:101BF00048B17C48407918B903206049C87402E0B4
:101C000001205E49887101205F49C8727047F0B5B4
:101C100005AC70CC5CB100270F80CF788FB98F787E
:101C200017B18F787F1C8F700127CF7009E00027D4
:101C3000CF700F8807440F800F889F4201DD012776
:101C40008F708F78974202DD357000278F70F0BD5E
:101C50001EB504464948C07A00286ED14748007B2B
:101C6000002873D05B48B0F9020010F5AF7F17DA97
:101C70005848B0F90000B0F5AF7F11DD5548B0F914
:101C8000040010F5AF7F0BDA5248B0F90600B0F54A
:101C9000AF7F05DD0120544908705449087004E005
:101CA000002051490870514908704A48B0F90200B3
:101CB000B0F5AF7F15DD4748B0F90000B0F5AF7F54
:101CC0000FDD4448B0F9040010F5AF7F09DA414850
:101CD000B0F9060010F5AF7F03DA0120444908701F
:101CE00002E00020424908703A48B0F90200B0F51D
:101CF000AF7F15DD3748B0F90000B0F5AF7F0FDDDD
:101D00003448B0F9040010F5AF7F09DA3148B0F972
:101D10000600B0F5AF7F03DD01203649087002E010
:101D20000020344908702B48B0F90200B0F5AF7FAD
:101D300004DD01203049087008E06AE02548B0F968
:101D40000200322802DA00202B4908702B480121BA
:101D5000CDE90010254803784FF47A7228492046CF
:101D6000FFF7FAFD27480121234A12784FF47A73CE
:101D7000CDE9002102900522234947E0801600208A
:101D8000FE030020AC160020541C0020556E6C6F22
:101D9000636B204F4B210000556E6C6F636B2046C8
:101DA00061696C2100000000506F776572204C6FF4
:101DB000772C556E6C6F636B204661696C21000057
:101DC0004643204F7574707574204C6F636B656467
:101DD00021200000E41000206E0000207000002090
:101DE0006C000020460100207D0000207C000020C7
:101DF0007E0000207F000020800000201B050020C6
:101E0000720000205C030020780000202046FFF7CD
:101E1000FEFE1EBD10B504461F48007890B300209A
:101E200021E01E4931F81010A1F2DC5109B21C4A20
:101E300022F81010114631F9101011F5FA7F01DC6B
:101E400018490BE0164931F91010B1F5FA7F02DD9F
:101E50004FF4FA7102E0124931F91010104A22F8D9
:101E60001010411CC8B20828DBDB2046FFF787FDB5
:101E70002046FFF7EDFE09483A3890F8390010B1D6
:101E8000FFF79DFE06E00848C07A012802D1002035
:101E90000549C87210BD000080160020BA3300202A
:101EA000E41000200CFEFFFF541C002008B5CA48B7
:101EB000D0ED000A9FEDC91AF4EEC10AF1EE10FA56
:101EC0000BD2D0ED000AB7EE001A70EE810AC0ED19
:101ED000000A0120C249887002E00020C0498870D1
:101EE000BD48D0ED010A9FEDBD1AF4EEC10AF1EE36
:101EF00010FA0BD2D0ED010AB7EE001A70EE810A8B
:101F0000C0ED010A01208DF8000002E000208DF8EC
:101F10000000B148D0ED020A9FEDB01AF4EEC10AFC
:101F2000F1EE10FA0BD2D0ED020AB7EE001A70EE05
:101F3000810AC0ED020A01208DF8010002E00020B4
:101F40008DF801009DF8000030B19DF8010018B136
:101F50000120A349C87002E00020A149C87008BD53
:101F600030B500220024C5788B1F9D4200D030BDC3
:101F7000002306E0C55C1544EAB2A518ECB25D1C6E
:101F8000EBB28D1E9D42F5DC431813F8023C9342E0
:101F900004D1431813F8013CA34200D0E7E783784B
:101FA000512B38D103795BB943798D4D6B718379AE
:101FB0005BB2AB71C3795BB2EB71037A2B7183E0D7
:101FC0000379012B12D14379854D2B72C3886B8124
:101FD0000389AB81837A2B719FED820A7E4B83ED5F
:101FE000010A2B461B785B1C2B706DE00379022BDA
:101FF0006AD143797A4DAB73C3882B8203896B8294
:102000004389AB828389EB82C3892B83038A6B83E9
:10201000837C2B7158E08378342B0DD1D0F80730B6
:102020006F4DEB619FED6F0A6B4B83ED020A2B4600
:102030005B785B1C6B7047E08378012B0DD1838844
:10204000674D2B86C3886B860389AB864389EB86F5
:1020500083892B87C3896B8736E08378042B33D140
:10206000B0F9043000EE103AB8EEC00ADFED5E0AB7
:1020700020EE200A5A4B83ED080AB0F9063000EE34
:10208000103AB8EEC00ADFED580A20EE200A544B91
:1020900083ED090AB0F9083000EE103AB8EEC00A34
:1020A000DFED510A20EE200A4D4B83ED0A0AB0F90C
:1020B0000A3000EE103AB8EEC00ADFED4B0A20EE0F
:1020C000200A474B83ED0B0A00BF50E710B50446CA
:1020D0004648007838B9AA2C05D101204349087038
:1020E0004348047077E041480078012809D1052C65
:1020F00001D0FF2C05D102203C4908703C484470B7
:1021000069E03A480078022805D103203749087071
:10211000374884705FE03548007803280CD1FA2CEA
:102120000ADA0420314908703148C470314804701B
:102130000020314908704EE02C480078042819D15D
:102140002C480078002815DD2A480078401E2949CF
:1021500008702948007828490978491C264A1170D6
:10216000001D23490C542348007880BB05201F49DB
:10217000087030E01D48007805280DD106201B4965
:1021800008701D4800781C490978491C1A4A1170CA
:10219000001D17490C541EE014480078062817D17A
:1021A00000201249087014480078001D10490C5492
:1021B0009FED0C0A084880ED000A01200F490870C5
:1021C0000D480078401DC1B20948FFF7C9FE02E082
:1021D00000200649087010BD641100200000FA4379
:1021E000F41000200000000017B7D1388300002051
:1021F00030110020810000208200002069000020B2
:102200000179C27801EB0221FE4A1180817942797D
:1022100001EB0221FC4A11808178FC4A5170704721
:102220000020FB49087000BF28E0032818DA9FED62
:10223000F90AF6492C3101EB800181ED000A9FED8E
:10224000F50AF249383101EB800181ED000A9FED7A
:10225000F10AEE49443101EB800181ED000A03E00F
:102260000021EA4AA2F850100022E849143141F84E
:102270002020103941F82020411CC8B20428D4DBAA
:10228000704710B50446E1484178807881421FD0FC
:10229000FFF7C6FFE04890F8380068B9DF48C07D16
:1022A000012809D1DE48807810B9DD48407918B19D
:1022B0000120D64908700BE00020D4490870D9A34A
:1022C0000222AF210520FFF70EF80020CF49487009
:1022D000CE48407806286ED006DC06286CD2DFE8AF
:1022E00000F06B10416CCEFD09287DD004DC07287E
:1022F0007BD0082860D1ADE20A2877D0A028F9D198
:102300004AE0C248007860B3C448C07C70B9C04895
:10231000007830BB0120BE490870C6A30222AF215D
:102320000520FEF7E0FF05F046F81AE0BB48C07C48
:10233000022809D1C2A30222AF210520FEF7D3FF54
:102340000020B24948700CE0B448C07C022808DD87
:10235000BFA30222AF210520FEF7C5FF0020AB4935
:1023600048708EE3AD48C07C022808D1BBA302228E
:10237000AF210520FEF7B7FF05F02CF80BE0A748CA
:10238000C07C40B9B8A30222AF210520FEF7ABFF05
:1023900000209E49487074E3A048C07A50B1B5A3AC
:1023A0000222AF210520FEF79EFF00209B49887284
:1023B0009649487065E38FE162E39348008800EE38
:1023C000100AB8EE400A914880ED0D0A8E48008848
:1023D00098B38C4800884FF47A71484300EE100A95
:1023E000F8EEC00A884802E093E2D5E1ECE200880A
:1023F000002802DC9FED870A17E0A34890ED011A40
:102400008148008800EE100AB8EE400AB4EEC01A07
:10241000F1EE10FA03D29C4890ED010A05E07A48EB
:10242000008800EE100AB8EE400A80EE801ABCEE7A
:10243000C10A764880ED070A03E0FFE700217348F0
:10244000C1617248C06830B990A30222AF21052053
:10245000FEF749FF0DE06D48C169C068814208D2AE
:102460008CA30222AF210520FEF73DFF0020674923
:1024700048706648C06801196448C16001E3624859
:102480000088404200EE100AB8EEC00A5F4880EDB6
:102490000D0A5D480088A8B35A4800884FF47A7145
:1024A000484300EE100AF8EEC00A5748008800289A
:1024B00002DC9FED580A1DE0734890ED020AB1EE70
:1024C000401A5148008800EE100AB8EE400AB4EEF7
:1024D000C01AF1EE10FA07D26B4800E034E090ED3C
:1024E000020AB1EE400A05E04748008800EE100AF3
:1024F000B8EE400A80EE801ABCEEC10A434880ED77
:10250000070A03E0FFE700214048C1613F48C06877
:1025100030B963A30222AF210520FEF7E4FE0DE0EF
:102520003A48C169C068814208D260A30222AF2143
:102530000520FEF7D8FE0020344948703348C068B3
:1025400001193248C1609CE22F48008800EE100A51
:10255000B8EE400A2D4880ED0B0A2B48008878B36E
:10256000284800884FF47A71484300EE100AF8EECC
:10257000C00A25480088002802DC9FED260A17E0E3
:10258000414890ED001A2048008800EE100AB8EE8D
:10259000400AB4EEC01AF1EE10FA03D23A4890EDB8
:1025A000000A05E01848008800EE100AB8EE400A5C
:1025B00080EE801ABCEEC10A144880ED050A03E0E3
:1025C000FFE70020114948611048406830B93AA33C
:1025D0000222AF210520FEF786FE0EE00B4840697F
:1025E0000A494968884208D236A30222AF21052051
:1025F000FEF779FE002005494870044840682044F1
:10260000024967E08400002086000020701100204D
:102610008800002000000000803300208016002089
:102620004601002046432053746174652045727250
:102630006F72210054616B65206F66662100000097
:1026400054616B65206F6666204F4B2100000000CF
:10265000434D44204572726F722100004C616E64DC
:10266000696E6721000000004C616E64696E67202E
:102670004F4B2100456D657267656E6379207374F9
:102680006F70204F4B2100009C160020476F207573
:1026900070210000476F207570204F4B2100000013
:1026A000476F20646F776E2100000000476F206441
:1026B0006F776E204F4B2100476F20616865616422
:1026C00021000000476F206168656164204F4B2145
:1026D000000000004860D4E1FC480088404200EE61
:1026E000100AB8EEC00AFA4880ED0B0AF7480088D5
:1026F00078B3F84800884FF47A71484300EE100A26
:10270000F8EEC00AF1480088002802DC1FED3F0AFD
:1027100017E0F14890ED001AEC48008800EE100A2E
:10272000B8EE400AB4EEC01AF1EE10FA03D2EA484D
:1027300090ED000A05E0E548008800EE100AB8EECA
:10274000400A80EE801ABCEEC10AE14880ED050A1D
:1027500003E0FFE70020DE494861DD48406830B90A
:10276000DEA30222AF210520FEF7BDFD0EE0D84812
:102770004069D7494968884208D2DBA30222AF21C9
:102780000520FEF7B0FD0020D1494870D0484068D0
:102790002044CF49486074E1CC48008800EE100A1C
:1027A000B8EE400ACA4880ED0C0AC848008878B3E1
:1027B000C84800884FF47A71484300EE100AF8EEDA
:1027C000C00AC2480088002802DC1FED6E0A17E02C
:1027D000C14890ED001ABD48008800EE100AB8EE1E
:1027E000400AB4EEC01AF1EE10FA03D2BA4890EDE6
:1027F000000A05E0B548008800EE100AB8EE400A6D
:1028000080EE801ABCEEC10AB14880ED060A03E0F2
:10281000FFE70021AE488161AD48806830B9B5A3BB
:102820000222AF210520FEF75EFD0DE0A848816978
:102830008068814208D2B2A30222AF210520FEF7B0
:1028400052FD0020A2494870A14880680119A048A3
:10285000816016E19D480088404200EE100AB8EE03
:10286000C00A9B4880ED0C0A9848008878B39948C4
:1028700000884FF47A71484300EE100AF8EEC00A5F
:1028800092480088002802DC1FED9E0A17E092485B
:1028900090ED001A8D48008800EE100AB8EE400A4C
:1028A000B4EEC01AF1EE10FA03D28B4890ED000A94
:1028B00005E08648008800EE100AB8EE400A80EE77
:1028C000801ABCEEC10A824880ED060A03E0FFE7E9
:1028D00000217F4881617E48806830B98BA3022245
:1028E000AF210520FEF7FFFC0DE079488169806883
:1028F000814208D288A30222AF210520FEF7F3FC13
:1029000000207349487072488068011970488160DE
:10291000B7E06E48008800B26D49A1F850006B48DE
:10292000008878B36B4800884FF47A71484300EE12
:10293000100AF8EEC00A65480088002802DC1FED86
:10294000CB0A17E0644890ED031A6048008800EE57
:10295000100AB8EE400AB4EEC01AF1EE10FA03D233
:102960005D4890ED030A05E05848008800EE100A23
:10297000B8EE400A80EE801ABCEEC10A544880EDE1
:10298000080A03E0FFE7002151480162504800694E
:1029900030B965A30222AF210520FEF7A4FC0DE0AB
:1029A0004B48016A0069814208D262A30222AF212A
:1029B0000520FEF798FC002045494870444800690E
:1029C0000119434801615CE040480088404200B280
:1029D0003F49A1F850003D48008878B33D48008841
:1029E0004FF47A71484300EE100AF8EEC00A3748F7
:1029F0000088002802DC1FEDF90A17E0364890ED48
:102A0000031A3248008800EE100AB8EE400AB4EE0D
:102A1000C01AF1EE10FA03D22F4890ED030A05E038
:102A20002A48008800EE100AB8EE400A80EE801AAC
:102A3000BCEEC10A264880ED080A03E0FFE700214A
:102A4000234801622248006930B93EA30222AF2127
:102A50000520FEF748FC0DE01D48016A006981422F
:102A600008D23BA30222AF210520FEF73CFC002048
:102A7000174948701648006901191548016100E0BE
:102A800000BF00BF1248407808B9FFF7C9FB1048E3
:102A9000417881703248C07AB0B10D4A3832A2F123
:102AA000140101F1080001F068FF094A44322D4980
:102AB000A2F10C0001F042FF054890ED0D0A80EDF7
:102AC000100A80ED130A5BE04EE000008600002053
:102AD00070110020840000209C160020476F2062A7
:102AE00061636B2100000000476F206261636B200F
:102AF0004F4B2100476F206C656674210000000079
:102B0000476F206C656674204F4B2100476F207221
:102B10006967687421000000476F207269676874F4
:102B2000204F4B21000000005475726E206C6566CA
:102B3000742100005475726E206C656674204F4BD2
:102B4000210000005475726E20726967687421005C
:102B50005475726E207269676874204F4B210000B3
:102B60008016002090010020064890ED0D0A0648CE
:102B700080ED090A034890ED0E0A034880ED0A0A29
:102B800010BD00005C01002070110020AA490978E6
:102B900039B9AA2805D10121A74A1170A74908709F
:102BA00070E0A5490978012907D1302805D1022113
:102BB000A14A1170A149487064E09F49097802292F
:102BC00005D103219C4A11709C4988705AE09A49AA
:102BD0000978032905D10421974A11709749C870D3
:102BE00050E09549097804290AD10521924A1170CB
:102BF00092490871924908700521924A117041E08A
:102C00008D490978052917D18D490978002913DDE7
:102C10008B490978491E8A4A11708A490A780978CD
:102C2000491C884B1970854988548549097829BB06
:102C30000621814A117025E07F49097806291ED1B5
:102C400000217D4A11707D497E4A127888547E4960
:102C5000097899B9002105E0784A525C7B4B5A54B7
:102C60004A1CD1B2774A12789142F5DD754909784C
:102C7000491C774A11700121734A117002E000214A
:102C80006D4A1170704701466F48007800287DD06A
:102C900000206D4B1870002200BF05E06B4B1B5CE1
:102CA0001344DAB2431CD8B2694B1B785B1E8342D3
:102CB000F4DC6648664B1B78184410F8010C90420F
:102CC00000D070476148C078312875D05F48C0781F
:102CD000322871D15D48C0795C4B9B7940EA032072
:102CE00000B200EE100AB8EEC00AB1EE400ADFED05
:102CF000590A80EE201A584880ED041A5348407A49
:102D0000524B1B7A40EA032000B200EE100AB8EEE4
:102D1000C00ADFED500A80EE201A4F4880ED031AFA
:102D20004A48C07A494B9B7A40EA032000B200EE41
:102D3000100AB8EEC00ADFED470A80EE201A4648B6
:102D400080ED051A4148407B404B1B7B40EA032045
:102D500000B200EE100AB8EEC00AB1EE400ADFED94
:102D60003D0A80EE201A3C4880ED071A3748C07BA8
:102D7000364B9B7B40EA032000B200EE100AB8EE0F
:102D8000C00ADFED340A80EE201A00E018E0324875
:102D900080ED061A2D48407C2C4B1B7C40EA03201A
:102DA00000B200EE100AB8EEC00ADFED2A0A80EE8B
:102DB000201A294880ED081A0020284B188000BFEF
:102DC00026480088B0F57A7F08DA2448008808444D
:102DD000224A10800120204A507002E000201E4A42
:102DE000507000BF6DE710B504461D48C07A78B931
:102DF0000020194908701B4890ED0D0A084680ED27
:102E0000010A184890ED0E0A084680ED020A02E019
:102E1000012011490870104A2432A2F1200101F169
:102E2000080001F0AAFD0C4A3032A2F12C0101F198
:102E3000140001F0A2FD10BD8F000020001300203F
:102E40008E000020900000208B0000200012002047
:102E50008A0000200000C842C41100208C0000201D
:102E6000801600205C01002010B52DED028BF0EEE5
:102E7000408AB0EE608A2A48C0ED008A80ED018A5F
:102E800002469FED280A011D02F073FEBDEC028B85
:102E900010BD234880ED060AD0ED060A9FED221AE8
:102EA000F4EEC10AF1EE10FA02D8DFED1F0A0FE0CE
:102EB0001B48D0ED060A9FED1D1AF4EEC10AF1EE93
:102EC00010FA02DDDFED190A02E01548D0ED060A1E
:102ED0001348C0ED060A7047114880ED070AD0ED8F
:102EE000070A9FED131AF4EEC10AF1EE10FA02D8A8
:102EF000DFED0F0A0FE00A48D0ED070A9FED0D1A2B
:102F0000F4EEC10AF1EE10FA02DDDFED0A0A02E08A
:102F10000348D0ED070A0248C0ED070A70470000D9
:102F20000014002000004843000016C300001643B0
:102F30000000C8C20000C84290ED002ADFEDFC2A64
:102F400022EE222AF7EE002A82EE823AB7EE002A1B
:102F500033EE022AB7EE003AC3EE022AF54991EDAC
:102F6000002A30EE423A91ED002A02EE832A81EDEA
:102F7000002A90ED002ADFEDEE2A22EE222AF7EE5B
:102F8000002A82EE823AB7EE002A33EE022AB7EE2A
:102F9000003AC3EE022A91ED012A30EEC23A91EDD9
:102FA000012A02EE832A81ED012A91ED002ADFED4C
:102FB000E22A22EE222AE14981ED002ADD4991ED43
:102FC000012ADFEDDD2A22EE222ADC4981ED012AE9
:102FD00090ED002ADFEDD62A62EE222AB7EE003A03
:102FE00083EE222AF7EE002A32EE222AB7EE003ACA
:102FF000C3EE022AD24991ED082A31EE423A91ED10
:10300000082A02EE832A81ED082A90ED002ADFEDDE
:10301000C82A22EE222AB7EE003AC3EE022AB7EE01
:10302000002A32EE822AB7EE003AC3EE022A91ED70
:10303000092A31EEC23A91ED092A02EE832A81ED86
:10304000092A002117E0BE4A283202EB810292EDE4
:10305000002ABB4A203202EB8102D2ED002A90ED19
:10306000003A02EE832AB64A283202EB810282ED50
:10307000002A4A1CD1B20229E5DB704710B502468E
:103080000023B0480078B04C2478A0423FD0AE482E
:103090000078AC4C20708B78032003E00C5C63401C
:1030A000441CE0B20C28F9DB087B984226D1A748E3
:1030B0000078401CA54C2070887A20722046007A47
:1030C000F52803D00020A08060800DE008794C79BD
:1030D00040EA042000B29D4C60808878CC7840EAB9
:1030E000042000B2994CA0808879CC7940EA042071
:1030F0004FF47A7490FBF4F0944CE0809FED940AC6
:10310000944880ED000A0120904C607015E09148D1
:1031100090ED000AF7EE000AB4EEE00AF1EE10FAC4
:1031200008D292ED000AD0ED000A30EE200A80EDC0
:10313000000A02E00020854C607010BD10B52DED36
:10314000020B85496846FFF799FF844890ED142AE1
:10315000F0EE421A90ED132AB0EE421A804890ED3C
:103160000B2AF0EE420A90ED0A2AB0EE420A6846B7
:10317000FFF7E2FE1CBD002010E09FED750A7049CC
:10318000283101EB800181ED000A9FED710A75493C
:1031900001EB800181ED000A411CC8B20228ECDB82
:1031A000704770B52DED028B05460C46287800EE71
:1031B000100AB8EE400ADFED6C0A20EE200AB0EEED
:1031C000408A142C01DC142006E0B4F5FA7F02DDFD
:1031D0004FF4FA7000E0204600EE100AB8EEC00A84
:1031E000574880ED010A90ED020ADFED600A20EEFB
:1031F000200AD0ED010A20EE200A80ED040A90EDAD
:10320000030ADFED5A0A20EE200AD0ED010A20EE73
:10321000200A80ED050A00F11802504934311030BF
:1032200001F0ABFB4648007810B101287DD10FE0DA
:10323000012043490870B0EE000A4D4880ED000AB5
:10324000B7EE000A4B4880ED000AFFF794FFAFE0AD
:103250003E48007AF52869D100209CE038491831B1
:1032600001EB800191ED000A3549283101EB800125
:10327000D1ED000A30EE600A3F4901EB800181ED9B
:10328000000A384901EB800191ED000A3A4901EB4F
:103290008001D1ED000A374991ED001A60EE810AF4
:1032A00000EE880A2F4901EB800181ED000A2D49CB
:1032B00001EB800191ED000ADFED300AB4EEE00A87
:1032C000F1EE10FA02D89FED2D0A13E0254901EB2B
:1032D000800191ED000ADFED2A0AB4EEE00AF1EE7A
:1032E00010FA02DD9FED260A04E01E4901EB800181
:1032F00091ED000A1B4901EB800181ED000A19499B
:1033000001EB800191ED000A1B4901EB8001D1ED39
:10331000000A174991ED001A00EE810A0849283188
:1033200001EB8001D1ED000A2CE03EE036E0000028
:103330003433FB41B0000020E12E654298000020AC
:1033400090140020940000208F040020841400209A
:1033500000000000B8000020563300205C0100206F
:1033600094170020A80000206F12833A82A8FB382F
:10337000BC000020C0000020A00000200000C8C247
:103380000000C84240EE080A534901EB8001C1ED3C
:10339000000A411CC8B20228FFF660AF4E4A08324C
:1033A0004E494D4801F0CAFA02E0FFF7E4FE00BFC3
:1033B00000BFBDEC028B70BD01464948007AF5287C
:1033C00012D01FED1D0A4448283880ED030A80ED15
:1033D000020A4078052843DB3F4828384078401FE0
:1033E0003D4A283A50703BE03D48C0884FF47A721D
:1033F00092FBF0F03A4AB2F90220504300EE100A74
:10340000B8EEC00A3748D0ED010A9FED371A01EE39
:10341000200A3148283880ED020A3148C0884FF42C
:103420007A7292FBF0F02E4AB2F90420504300EE7B
:10343000100AB8EEC00A2B48D0ED000A9FED2A1AF8
:1034400001EE600A2448283880ED030A4078FA2803
:1034500006DC214828384078401D1F4A283A507021
:1034600070472248007C48B11B4828380078012862
:1034700017D1002018492839087012E0164828385A
:103480004078642804DA002013492839087008E0DD
:10349000114828384078C82803DD01200E49283912
:1034A00008700F48407830B11148007818B10120F9
:1034B0001049087202E000200E490872704701B5F9
:1034C000FFF7CFFF6846FFF777FF0B480188684694
:1034D000FFF767FE08BD0000B8140020900100202F
:1034E000841400209800002000002043780200206F
:1034F00088040020AC1600208A040020484890ED83
:103500003F0A484880ED010A454890ED400A454889
:1035100080ED020A9FED440A80ED030A404890EDD9
:10352000410A404880ED040A9FED3F0A80ED050AFC
:103530003B4890ED4E0A3D4880ED000A704710B5BB
:103540002DED028BB0EE408A3948C07C022846D16E
:10355000364890ED000A374880ED000A364840882A
:1035600000EE100AB8EE400A344880ED000AF2EE90
:10357000042A9FED332A33492A48304AD2ED001AF3
:103580002C4A92ED001ADFED280AB0EE480A02F04C
:103590000FFD2C4890ED090A2B4880ED000AD0ED74
:1035A000000ABAEE0E1AF4EEC10AF1EE10FA02D8D1
:1035B000FAEE0E0A0FE02448D0ED000AB3EE041A2A
:1035C000F4EEC10AF1EE10FA02DDF3EE040A02E0B5
:1035D0001D48D0ED000AB0EE600AFFF75AFCBDECC2
:1035E000028B10BDDFED190AB4EEE00AF1EE10FA1D
:1035F00005D2DFED160A0D48C0ED000A0FE0DFED41
:10360000140AB4EEE00AF1EE10FA05DDDFED100A5F
:103610000648C0ED000A02E0044880ED000A704749
:10362000641C0020D814002000000000C40000200A
:1036300080160020C800002004030020CC000020D9
:1036400000004842F0140020D0000020000020427A
:103650000000704310B504461648B0F9440040F22B
:103660009E7188420DDD144800882044124908806C
:103670000846008840F6B83188420BD103F09BFE23
:1036800008E00D480088002804DD00200A49088071
:1036900003F0A0FE0748B0F9460040F29E71884250
:1036A00005DD0648008820440449088000E000BF8A
:1036B00010BD000080330020D4000020D600002080
:1036C000694890ED420A694880ED010A664890ED2C
:1036D000430A664880ED020A9FED650A80ED030A01
:1036E000614890ED440A614880ED040A9FED600A4C
:1036F00080ED050A5C4890ED450A5E4880ED010AC0
:10370000594890ED460A5B4880ED020A9FED580A41
:1037100080ED030A544890ED470A564880ED040AAC
:103720009FED530A80ED050A704710B52DED028B11
:10373000B0EE408A5048C07C022872D14F480078D1
:1037400000286ED0F2EE042A9FED4D2A4D494748DD
:10375000DFED471A4C4A92ED001ADFED450AB0EE54
:10376000480A02F025FCF2EE042A9FED452A47495B
:103770004048DFED3F1A464A92ED001ADFED3C0A61
:10378000B0EE480A02F014FC3E4890ED090A4148A8
:1037900080ED000A3D4890ED090A3F4880ED000A9F
:1037A0003E4890ED001AFFEE001A21EE211A3A4829
:1037B000D0ED001AB4EEE11AF1EE10FA07DB37484B
:1037C00090ED001AFFEE001A21EE211A10E03248A7
:1037D00090ED001A3148D0ED001AB4EEE11AF1EE86
:1037E00010FA02DD90ED001A02E02B4890ED001A6D
:1037F000F0EE410A294890ED001AFFEE001A21EE82
:10380000211A2448D0ED001AB4EEE11AF1EE10FAB4
:1038100008DB224890ED001AFFEE001A21EE211A73
:1038200011E014E01B4890ED001A1C48D0ED001A7E
:10383000B4EEE11AF1EE10FA02DD90ED001A02E0AA
:10384000144890ED001AB0EE410AFFF70DFBBDECF5
:10385000028B10BD0C4880ED000A0D48C0ED000A37
:103860000E4880ED001A7047641C002018150020D7
:10387000000000003015002080160020D800002035
:103880000000484248150020DC0000207015002090
:10389000E0000020E8000020EC000020E400002010
:1038A000714890ED480A714880ED010A6E4890ED2C
:1038B000490A6E4880ED020A9FED6D0A80ED030A09
:1038C000694890ED4A0A694880ED040A9FED680A4C
:1038D00080ED050A674890ED390A674880ED000AD7
:1038E000704705E0DFED650A70EE600AB0EE600A31
:1038F000DFED630AB4EEE00AF1EE10FAF2DC05E067
:10390000DFED5E0A70EE200AB0EE600ADFED5D0AC0
:10391000B4EEE00AF1EE10FAF2D37047B0EE401ABE
:1039200071EE601AB0EE610ADFED551AB4EEE10AED
:10393000F1EE10FA06DDDFED511A70EE611AB0EE0D
:10394000610A0CE0DFED4F1AB4EEE10AF1EE10FA75
:1039500005D2DFED4A1A70EE211AB0EE610A704707
:1039600010B52DED028BB0EE408A4748C07C02288E
:1039700057D146480078E0B33F4890ED000AFFF782
:10398000B0FF434880ED000A3A48D0ED390AB0EE66
:10399000600AFFF7A6FF3F4880ED000AD0ED000A5D
:1039A000354890ED000AFFF7B9FF3B4880ED000A6B
:1039B000F2EE042A9FED392A39492C48DFED2C1A02
:1039C000354A92ED001ADFED2A0AB0EE480A02F0FD
:1039D000EFFA334890ED090A324880ED000AD0ED45
:1039E000000ABBEE0E1AF4EEC10AF1EE10FA04D88A
:1039F00000E016E0FBEE0E0A0FE02A48D0ED000AC8
:103A0000B3EE0E1AF4EEC10AF1EE10FA02DDF3EE97
:103A10000E0A02E02348D0ED000AB0EE600AFFF77C
:103A20005BFABDEC028B10BD05E0DFED140A70EE11
:103A3000600AB0EE600ADFED120AB4EEE00AF1EEC1
:103A400010FAF2DC05E0DFED0D0A70EE200AB0EEB0
:103A5000600ADFED0C0AB4EEE00AF1EE10FAF2D3E0
:103A6000054880ED000A7047641C0020981500206E
:103A7000000000005C010020F00000200000B443C2
:103A800000003443000034C38016002000010020F1
:103A9000F4000020F8000020FC0000200000484254
:103AA000B01500200401002010B500F065F910BD2C
:103AB00070B504460025002620780006617840EAAB
:103AC0000140A17840EA0120E17840EA010520792F
:103AD0000006617940EA0140A17940EA0120E179DC
:103AE00040EA01060120414908703146284600F0AD
:103AF0004FF970BD0178012902D0022902D100E0FE
:103B000000E000BF00BF4178102904D0112903D084
:103B1000122903D101E001E000E000BF00BF7047BF
:103B200070B504460E461546012C04D0022C06D072
:103B3000032C0BD107E02846FFF7DCFF06E0284600
:103B4000FFF7B6FF02E0FFF7AFFF00BF00BF70BD99
:103B500010B5044626480078052845D2DFE800F075
:103B600003090F183100AA2C02D101202049087046
:103B70003AE02048047002201D49087034E01E48D5
:103B8000047000201D4908700320194908702BE0BB
:103B90001A48007818490978884208DA18481749FD
:103BA0000978445415480078401C1449087013489B
:103BB000007811490978884202D104200C49087024
:103BC00012E0AF2C06D10E4A0B4801780948007864
:103BD000FFF7A6FF0020084908700549087007494B
:103BE00008700449087000BF00BF10BD200100200C
:103BF00008010020090100200A0100200B0100201B
:103C0000D815002010B52DED028BB0EE408A654826
:103C1000007838B16448C07C022803D1B0EE480A6D
:103C2000FFF783FDBDEC028B10BD604800780028D3
:103C300057D05F48007810B1012851D126E05D4887
:103C400090ED000AF2EE080AB4EEE00AF1EE10FA86
:103C50000ED8594890ED000AF2EE080AB4EEE00AD8
:103C6000F1EE10FA04D855480078401C534908700A
:103C700014205349087051480078142805D10120B8
:103C80004B49087000204D49087029E0494890EDE3
:103C9000000AF2EE000AB4EEE00AF1EE10FA0ED8D5
:103CA000454890ED000AF2EE000AB4EEE00AF1EEAB
:103CB00010FA04D841480078401C404908700A2096
:103CC0003F4908703D480078142808D1022038493F
:103CD000087000203949087005203949087000BF74
:103CE00000BF002031490870704710B52DED048BDE
:103CF000344890ED000AB8EEC00A10EE100A16F033
:103D00006CFA41EC190B9FED300B53EC102B16F0B5
:103D1000C2F941EC180B16F0A3FA264908602C48AA
:103D200090ED000AB8EEC00A10EE100A16F055FA2F
:103D300041EC190B9FED240B53EC102B16F0ABF953
:103D400041EC180B16F08CFA1B49086015480078F6
:103D500078B1FFF76AFF1A48007800EE100AB8EE53
:103D6000401A1548D0ED000A124890ED000AFFF7FE
:103D700071FDBDEC048B10BD00200D4908700B498E
:103D8000087014200E49087000200C490870704714
:103D900070B505460C460E4805600A480460FFF7FA
:103DA000A4FF70BD1D01002080160020200100200E
:103DB0001E01002014010020180100201C01002019
:103DC0001F01002010010020D34D62105839D43F4C
:103DD0000C01002010B51E4800681E490968401AF1
:103DE0001D4908601D4800681D490968401A1D49A1
:103DF0000860B3EE0E1A184890ED000AF8EEC00AFB
:103E000008460068404200EE100AB8EEC00AFFF70C
:103E100021FD11480068052806DC124800680528C5
:103E200002DC01201049087010BD70B505460C4633
:103E3000084805600A4804600C48007808B1FFF79C
:103E4000C9FF70BD024A1060044A1160704700004B
:103E50002C0100202401002034010020300100202A
:103E600028010020380100203D0100203C010020F5
:103E700001B535480078012806D0022810D0032863
:103E800016D0042844D12EE09DF80000FF2802D16E
:103E900001202D4908700121684608F053FA37E0E7
:103EA0009DF80000294908700320274908702FE079
:103EB000274800782749097888420ADA9DF80000E7
:103EC0002549234A1278885421480078401C20490B
:103ED00008701F4800781F490978884202D10420E1
:103EE0001949087014E09DF80000FE2806D11A4A0E
:103EF0001848017815480078FFF712FE0020154990
:103F0000087011490870124908701049087000BF04
:103F100000BF08BD37B582B005461446FF200190AA
:103F2000FE200090012101A808F00CFA012103A84D
:103F300008F008FA2146284608F004FA01216846EC
:103F400008F000FA05B030BD3E0100203F0100201E
:103F50004101002040010020101600202DE9F04111
:103F600005460E461446012D04D0022D15D0032D12
:103F700015D113E0042E0FDB6078217840EA012090
:103F800007B2E078A17840EA01200FFA80F84146B4
:103F90003846FFF74AFF00BF01E000E000BF00BF66
:103FA000BDE8F08110B5044643480078052845D2A5
:103FB000DFE800F003090F183100AA2C02D101201C
:103FC0003D4908703AE03D48047002203A490870C3
:103FD00034E03B48047000203A4908700320364919
:103FE00008702BE03748007835490978884208DAAC
:103FF000354834490978445432480078401C3149E6
:104000000870304800782E490978884202D104208F
:104010002949087012E0AF2C06D12B4A28480178B4
:1040200026480078FFF79AFF0020254908702249AA
:104030000870244908702149087000BF00BF10BDF6
:1040400017B583B01446AA200290AF200190012139
:1040500002A807F00AFF012103A807F006FF0121CB
:1040600004A807F002FF9DF81010204607F0FDFE9F
:10407000012101A807F0F9FE06B010BD08B513A094
:10408000006800906A4601210846FFF7D9FF08BD85
:1040900008B50EA0006800906A4601210220FFF7D3
:1040A000CFFF08BD08B5002000906A46012102201C
:1040B000FFF7C6FF08BD00004201002043010020B9
:1040C00044010020450100204816002001000000A6
:1040D0000748C07A08B9012000E0002005490870AF
:1040E00001204870704710B505F0E7FF10BD0000D3
:1040F00080160020FE03002090ED031AB5EEC01AD2
:10410000F1EE10FA20DD90ED051AD0ED031AF1EE74
:10411000611AB4EEE11AF1EE10FA04D890ED031A28
:10412000B1EE411A0DE090ED051AD0ED031AB4EE90
:10413000E11AF1EE10FA02DD90ED031A01E090EDC4
:10414000051AF0EE410A01E0D0ED050A90ED001AE3
:1041500031EE201A80ED061A90ED011AD0ED061A04
:1041600031EE611AD0ED021A21EE211A80ED041A07
:1041700090ED051AD0ED041A01EE801A80ED051AB3
:104180007047D0ED000A90ED041A30EE811AD0EDA0
:10419000050A41EE000AC0ED050AD0ED010A90EDD6
:1041A000051A70EEC10A90ED021A60EE810AC0EDA8
:1041B000040AD0ED030AF5EEC00AF1EE10FA1FDD95
:1041C000D0ED040A90ED031AB1EE411AF4EEC10AE3
:1041D000F1EE10FA04D8D0ED030AF1EE600A0DE01A
:1041E000D0ED040A90ED031AF4EEC10AF1EE10FAD4
:1041F00002DDD0ED030A01E0D0ED040AC0ED040AAF
:104200007047F0EE401A9FEDFC2A20EE822A22EE43
:10421000212AB7EE003AC3EE022AB7EE002A32EEA8
:10422000822AB7EE003AC3EE022A90ED002A31EE60
:10423000423A90ED002A02EE832A80ED002AB5EE84
:10424000C01AF1EE10FA02DDB0EE412A01E0B1EE43
:10425000412AB0EE420A90ED002AF1EE402AB4EE77
:10426000E22AF1EE10FA02D8B1EE402A0BE090ED0E
:10427000002AB4EEC02AF1EE10FA02DDB0EE402AB8
:1042800001E090ED002A80ED012A7047F0EE401A1F
:104290009FEDD92A20EE822A22EE212AB7EE003A9B
:1042A000C3EE022AB7EE002A32EE822AB7EE003AB7
:1042B000C3EE022A90ED002A31EE423A90ED002A38
:1042C00002EE832A80ED002A90ED002AB5EEC02A86
:1042D000F1EE10FA02DD90ED002A03E090ED002AE5
:1042E000B1EE422AB0EE420AB1EE402AB4EEC21A52
:1042F000F1EE10FA02D8B1EE402A09E0B4EEC01A8D
:10430000F1EE10FA02DDB0EE402A01E0B0EE412AF3
:1043100080ED012A7047F0EE401A9FEDB72A20EE9B
:10432000822A22EE212AB7EE003AC3EE022AB7EE25
:10433000002A32EE822AB7EE003AC3EE022A90ED4E
:10434000002A31EE423A90ED002A02EE832A80EDF7
:10435000002AB5EEC01AF1EE10FA02DDB0EE412AE5
:1043600001E0B1EE412AB0EE420A90ED002AF1EEF2
:10437000402AB4EEE22AF1EE10FA02D8B1EE402A59
:104380000BE090ED002AB4EEC02AF1EE10FA02DD47
:10439000B0EE402A01E090ED002A80ED002A80ED89
:1043A000012A70472DE9F84F04460D46DDF82880B4
:1043B0004FF001094FF0000A0126B346CDF800B0D6
:1043C0000127DFED8E0AB0EE600A00208446D2F8A5
:1043D00008B0C2F80CB092F800B00BF1010B0BF072
:1043E000FF0B82F800B0AB4502DB834682F800B0D9
:1043F00092F800B044F82B80D2F80CB0A8EB0B0B6D
:1044000000EE90BAB8EEE01A00EE903AF8EE600ACC
:10441000C1EE201AB0EE610AB5EEC00AF1EE10FA54
:1044200002DDF0EE400A01E0F1EE400AB7EE001ABC
:10443000F4EEC10AF1EE10FA2BD2B5EEC00AF1EE9D
:1044400010FA02DDB0EE401A01E0B1EE401A00EEC3
:10445000903AF8EE600A61EE200AB0EE001AF4EE2F
:10446000C10AF1EE10FA04D2DFED640AB0EE600A80
:104470000FE0B5EEC00AF1EE10FA02DD4FF0010BCD
:1044800001E04FF0FF3B00EE90BAF8EEE00AB0EE2C
:10449000600AD06800BF00210DE054F821B0ABEBFA
:1044A000000B54F821E0AEEB000E0BFB0ECC01F13B
:1044B000010B0FFA8BF1A942EFDBD2F804B0ACEBA1
:1044C0000B0BBBF1000F11DDB9F1000F03D14FF061
:1044D000000BCDF800B04FF00109012F02D14FF0D1
:1044E000FF3B01E04FF0010B5F4607E04FF0000992
:1044F0009E4203DA06F1010B0BF0FF06C2F804C07E
:104500004FF0000C00EE900AB8EEE01A00EE907A40
:10451000F8EEE00A00EE801AFDEEC10A10EE900AF5
:104520000AF1010B0BF0FF0BDA469B4502DDE34677
:10453000CDF800B0022E03DB4FF0000BCDF800B039
:10454000DDF800B0BBF1010FA5D09060D2E902BE4A
:10455000ABEB0E0BC2F810B0BDE8F88F70B5054696
:104560000C461678761CF6B21670A64201DB0026C1
:104570001670167805EB860686ED000A002009E025
:1045800005EB800696ED001A03EB800686ED001A17
:10459000461CF0B2A042F3DB002029E0002121E01C
:1045A00003EB810696ED001A4E1C03EB8606D6ED52
:1045B000001AB4EEE11AF1EE10FA11DD4E1C03EB15
:1045C0008606D6ED000A03EB810696ED001A4E1C16
:1045D00003EB860686ED001A03EB8106C6ED000AA2
:1045E0004E1CF1B2661E361A8E42D9DC461CF0B261
:1045F000661E8642D2DC70BDC3F5C84000000000D4
:1046000030B50C4615886D1CADB21580A54201DB96
:1046100000251580158800EB8505D5ED000A158865
:1046200000EB850585ED000A70EE601A01EE104A78
:10463000B8EE412A81EE821AD3ED001A31EE211A2A
:1046400083ED001A93ED001AD3ED001A70EE611A93
:10465000BFEE002AF4EEC21AF1EE10FA02D8FFEE15
:10466000001A11E0D3ED001A70EE611AB7EE002ABD
:10467000F4EEC21AF1EE10FA02DDF7EE001A03E0D2
:10468000D3ED001A70EE611A9FEDA82A02EE211AEE
:1046900083ED001A30BD5FED281A60EE211A21EE7D
:1046A000A02AF7EE002AC2EE821AB7EE002A71EEB7
:1046B000821AF7EE002A82EEA12AD0ED001A71EEDE
:1046C000612AD0ED001A42EE221AC0ED001A70479E
:1046D00070B52DED0A8BB0EE408AF0EE608AB0EE38
:1046E000419AF0EE619A044694ED001BB0EE410A47
:1046F000F0EE610A53EC102B51EC190B15F0C5FCD0
:1047000041EC1B0B1FED440A28EE000A20EE280A9C
:10471000B7EE001AC1EE000AB7EE000A30EE800ACA
:10472000F7EE000A80EE801A11EE105A284615F0B6
:1047300054FD41EC1C0B53EC1B2B15F0ACFC41EC75
:104740001A0B94ED001BB0EE410AF0EE610A53EC37
:10475000102B15F0F9FBC4E90001BDEC0A8B70BD0C
:1047600090ED001A30EEC11AB4EEC01AF1EE10FA54
:1047700006DD90ED001A31EE001A80ED001A13E00C
:1047800090ED001A30EEC11AF1EE401AB4EEE11AC3
:10479000F1EE10FA06D290ED001A31EE401A80EDDB
:1047A000001A01E0C0ED000A7047B0EE402A1FED8C
:1047B0006E0A20EE800A20EE020AB7EE003AC3EE3F
:1047C000002AB7EE000A32EE800AB7EE003AC3EED6
:1047D000002A90ED000A31EE403A90ED000A02EE18
:1047E000830A80ED000A90ED000AF1EE612AB4EE32
:1047F000E20AF1EE10FA02D8B1EE610A0BE090ED98
:10480000000AB4EEE10AF1EE10FA02DDB0EE610A40
:1048100001E090ED000A80ED000A90ED000A31EE13
:10482000400A704770B504460D461646D4ED020A9C
:1048300060EEA00A94ED011AD4ED011A41EE210AAE
:10484000B0EE600A00F038FF394880ED000AD4ED80
:10485000020A60EEA00A94ED001AD4ED001A41EEAF
:10486000210AB0EE600A00F027FF324880ED000A0E
:1048700094ED020AB5EEC00AF1EE10FA02D24FF042
:10488000FF3000E001202C49087095ED000A28480F
:10489000D0ED000A60EE200A94ED001A084690F967
:1048A000000000EE100AB8EEC00A21EE000A95EDF5
:1048B000021A40EE410AC6ED000A084690F90000CF
:1048C00000EE100AB8EEC00A1A48D0ED000A20EE39
:1048D000200AD5ED010A20EE200AD4ED010A95ED5B
:1048E000021A00EEC10A86ED010A94ED000AD5ED28
:1048F000000A20EE200AD4ED010A95ED011A00EE1F
:10490000810AD4ED020A95ED021A00EE810A86EDC5
:10491000020A70BD70B504460D4616463246294659
:104920002046FFF77FFF70BD70470000ACC52737FA
:1049300054010020580100205001002090ED000A91
:10494000D1ED000A20EE200AD0ED010A91ED011A06
:1049500000EE810A82ED000A90ED000AD1ED010A15
:10496000F1EE600A20EE200AD0ED010A91ED001A66
:1049700000EE810A82ED010A704790ED000AD1ED48
:10498000000A20EE200AD0ED010A91ED011AB1EEE5
:10499000411A00EE810A82ED000A90ED000AD1ED85
:1049A000010A20EE200AD0ED010A91ED001A00EE76
:1049B000810A82ED010A704730B502460B4600209D
:1049C00022E0DFEDFE0AB0EE600A002114E000EB09
:1049D0004004FB4D05EB840404EB810494ED001AC4
:1049E00002EB8104D4ED001AF0EE400A41EE810A98
:1049F000B0EE600A4C1CE1B20329E8DB03EB800156
:104A000081ED000A411CC8B20328DADB30BD2DE974
:104A1000F0412DED068B86B0F0EE409A05468846B3
:104A200017461E46129C94ED000AD4ED010A20EEB2
:104A3000200AE44880ED000A94ED000AD4ED020A51
:104A400020EE200AE04880ED000A94ED010A20EEF5
:104A5000000ADE4880ED000A94ED010AD4ED030A55
:104A600020EE200ADA4880ED000A94ED020A20EEDA
:104A7000000AD84880ED000A94ED020AD4ED030A3A
:104A800020EE200AD44880ED000A94ED030A20EEBF
:104A9000000AD24880ED000A94ED010AD4ED020A22
:104AA00020EE200ACE4880ED000A94ED000AD4EDF5
:104AB000030A20EE200ACB4880ED000A287DE8B3E7
:104AC00000203DE0002100EE101A00BF18E001EBCD
:104AD0004102BB4B03EB820202EB800292ED001A13
:104AE00004F17C0202EB8102D2ED001AF8EEC00A5A
:104AF00041EE810AFDEEE00AB0EE600A4A1CD1B236
:104B00000329E4DBF8EEC00A04F1880101EB80011F
:104B1000C1ED000A07EB8001D1ED000A04F1880124
:104B200001EB800191ED001A70EEC10A04F19401CD
:104B300001EB8001C1ED000A411C00E003E0C8B2B6
:104B40000328BFDB0FE000200BE007EB800191EDB5
:104B5000000A04F1940101EB800181ED000A411C7F
:104B6000C8B20328F1DBD4ED250A60EEA00A94ED6B
:104B7000261AD4ED261A41EE210A94ED271AD4ED17
:104B8000271A41EE210AB0EE600A00F06FFDF0EE48
:104B9000408AF5EEC08AF1EE10FA02D19FED870A45
:104BA00003E0F7EE000A80EEA80AB0EE40AA00206B
:104BB0000EE004F1940101EB800191ED000A20EE7A
:104BC000280A03A901EB800181ED000A411CC8B24B
:104BD0000328EEDB7F4890ED000AF0EE000A20EE9D
:104BE000200A7E48D0ED000AB0EE001A01EE200A3D
:104BF000F7EE000A30EEC00A84ED040A704880ED3A
:104C0000000A774890ED000AF0EE000A20EE200A34
:104C10007448D0ED000AB0EE001A01EE600A84ED8F
:104C2000050A674880ED010A694890ED000AF0EE38
:104C3000000A20EE200A6448D0ED000AB0EE001A07
:104C400001EE200A84ED060A5D4880ED020A644800
:104C500090ED000AF0EE000A20EE200A6148D0ED47
:104C6000000AB0EE001A01EE200A84ED070A54484B
:104C700080ED030A554890ED000AF0EE000A20EEA0
:104C8000200A5648D0ED000AB0EE001A01EE200AC4
:104C9000F7EE000A30EEC00A84ED080A484880EDBD
:104CA000040A4D4890ED000AF0EE000A20EE200ABA
:104CB0004448D0ED000AB0EE001A01EE600A84ED1F
:104CC000090A3F4880ED050A414890ED000AF0EEE0
:104CD000000A20EE200A3C48D0ED000AB0EE001A8F
:104CE00001EE600A84ED0A0A354880ED060A3A486A
:104CF00090ED000AF0EE000A20EE200A3148D0EDD7
:104D0000000AB0EE001A01EE200A84ED0B0A2C48CE
:104D100080ED070A2D4890ED000AF0EE000A20EE23
:104D2000200A2C48D0ED000AB0EE001A01EE200A4D
:104D3000F7EE000A30EEC00A84ED0C0A204880ED40
:104D4000080AD0ED000A60EEA00A90ED031AD0ED3B
:104D5000031A41EE210AB0EE600A00F087FCB0EEC3
:104D6000409A174890ED000A20EE090A84ED0D0ADA
:104D700090ED030A20EE090A84ED0E0A002019E0E6
:104D800007EB800191ED000A04F1280101EB80019D
:104D9000D1ED000A9FED141A01EE600ABDEEC00AC3
:104DA000B8EEC00A04F1400101EB800181ED000A78
:104DB000411CC8B20328E3DB002041E000000000F2
:104DC000B816002044020020480200204C020020B7
:104DD0005002002054020020580200205C020020F3
:104DE000600200206402002000407544002100EEB3
:104DF000101A00BF18E000EB4002F84B03EB8202F0
:104E000002EB810292ED001A04F1400202EB8102F2
:104E1000D2ED001AF8EEC00A41EE810AFDEEE00A7A
:104E2000B0EE600A4A1CD1B20329E4DBF8EEC00AF6
:104E300004F14C0101EB8001C1ED000A411CC8B234
:104E40000328D3DB04F15802E54904F14C00FFF7D5
:104E500075FD9DED040AD4ED0C0A20EE200AD4ED78
:104E60000B0A9DED051A00EEC10ADE4880ED000A2E
:104E70009DED030AD4ED0C0A20EE200AD4ED0A0AB7
:104E80009DED051A10EE810A80ED010A9DED040AE0
:104E9000D4ED0A0A20EE200AD4ED0B0A9DED031A88
:104EA00010EE810A80ED020A00200CE036F91010A5
:104EB00000EE101AB8EEC00ACB4901EB800181ED7B
:104EC000000A411CC8B20328F0DB308818B970888A
:104ED00008B9B088E8B304F16401C348FFF76CFD7A
:104EE000D4ED190A60EEA00A94ED1A1AD4ED1A1A3C
:104EF00041EE210AB0EE600A00F0B8FBF0EE40AAE5
:104F000094ED190A20EE2A0AB84880ED020A94EDC1
:104F10001A0A20EE2A0A80ED030A0146083000F042
:104F2000ADFEB34880ED000AB04901F1080000F081
:104F3000B2FEB04880ED000A90ED000AB5EEC00A5E
:104F4000F1EE10FA26D2AA4890ED000ADFEDAA0A87
:104F500000E020E0B4EEE00AF1EE10FA01DD0120FD
:104F60000DE0A34890ED000ADFEDA40AB4EEE00ADC
:104F7000F1EE10FA02D24FF0FF3000E0002000EE18
:104F8000100AB8EEC00AF7EE000A20EE200A984890
:104F900080ED000A00BF00207CE09FED990AB4EE8E
:104FA000C0AAF1EE10FA06DC9FED960AB4EEC0AA94
:104FB000F1EE10FA08D21FED7F0A8A4981ED020A4C
:104FC00081ED010A81ED000A8F4901EB800191ED2D
:104FD000000A844901EB8001D1ED000A9FED8B1A94
:104FE000F4EEC10AF1EE10FA02D8DFED880A13E000
:104FF0007C4901EB8001D1ED000A9FED851AF4EEAA
:10500000C10AF1EE10FA02DDDFED810A04E0754914
:1050100001EB8001D1ED000A60EEA90A7D4991ED16
:10502000001A00EE810A784901EB800181ED000A47
:105030006C4901EB800191ED000A734901EB80019D
:10504000D1ED000A70EE200A08EB800191ED000A14
:10505000714991ED001A00EE810A04F1280101EB7B
:105060008001D1ED000A624991ED001A60EE810ADB
:105070006A4991ED001A00EE810A20EE290AF0EE4D
:10508000000A80EE201A694601EB800181ED001ACA
:10509000411CC8B2032880DB94ED000AD4ED010A5C
:1050A0009DED001A00EEC10AD4ED020A9DED011A31
:1050B00000EEC10AD4ED030A9DED021A00EEC10A0A
:1050C00084ED000A94ED010AD4ED000A9DED001A6A
:1050D00000EE810AD4ED020A9DED021A00EE810A6B
:1050E000D4ED030A9DED011A00EEC10A84ED010A18
:1050F00094ED000ADDED010A20EE200AD4ED010A4C
:105100009DED021A00EEC10AD4ED020A30EE200A2B
:10511000D4ED030A9DED001A00EE810A84ED020A27
:1051200094ED000ADDED020A20EE200AD4ED010A1A
:105130009DED011A00EE810AD4ED020A9DED001AE0
:1051400000EEC10AD4ED030A30EE200A84ED030A12
:10515000D4ED000A60EEA00A94ED011AD4ED011A14
:1051600041EE210A94ED021AD4ED021A41EE210A11
:1051700094ED031AD4ED031A41EE210AB0EE600A51
:1051800000F074FAB0EE408AD4ED000AB0EE480A9E
:1051900020EE800A84ED000AD4ED010AB0EE480A40
:1051A00020EE800A84ED010AD4ED020AB0EE480A2E
:1051B00020EE800A84ED020AD4ED030AB0EE480A1C
:1051C00020EE800A84ED030AE87C58BB9FED140AA8
:1051D000124880ED000A0020687451E0B8160020E3
:1051E00090010020DC160020F41600209002002020
:1051F000680200206C020020BD378635BD3786B5B9
:105200000080844400006144E8160020CDCCCCBD71
:10521000CDCCCC3DA8020020A4020020AC0200208E
:1052200000000000FFE7687C28B3B2EE040A9C4847
:1052300080ED000A9B4890ED000AB5EEC00AF1EE41
:1052400010FA1DD090ED000AB5EEC00AF1EE10FA8A
:1052500002DD90ED000A04E0924890ED000AB1EE04
:10526000400ADFED910AB4EEE00AF1EE10FA07D23F
:105270000020687404E095ED020A894880ED000A78
:10528000A87C28B91FED1A0A884880ED000A77E04B
:10529000287C50B995ED000A844880ED000A95ED10
:1052A000010A834880ED000A6AE0B2EE040A7F48F2
:1052B00080ED000A1FED260A7D4880ED000A7D483A
:1052C00090ED000AB5EEC00AF1EE10FA02DD90EDA5
:1052D000000A04E0774890ED000AB1EE400A7548F4
:1052E000D0ED010AF5EEC00AF1EE10FA02DDD0EDC4
:1052F000010A04E06F48D0ED010AF1EE600A30EED9
:10530000200A6D4880ED000A90ED000AB5EEC00A53
:10531000F1EE10FA02D81FED3E0A0FE0664890ED5C
:10532000000AF7EE000AB4EEE00AF1EE10FA02DD30
:10533000B7EE000A02E0604890ED000A5E4880ED9A
:10534000000A90ED000ADFED5D0AB4EEE00AF1EE2E
:1053500010FA12D2687C80B95948007868B159486F
:105360000088801C5749088008460088B0F5C87F2F
:1053700006DD00200880287402E0002051490880E2
:1053800006B0BDEC068BBDE8F08110B52DED028BAB
:105390004D48D0ED060A90ED061AB7EE000A00EE71
:1053A000C10AB5EEC00AF1EE10FA02D81FED640A88
:1053B0001BE04548D0ED060A90ED061AB7EE000A4C
:1053C00000EEC10AF7EE000AB4EEE00AF1EE10FAC0
:1053D00002DDB7EE000A08E03B48D0ED060A90ED8A
:1053E000061AB7EE000A00EEC10A384880ED000A3E
:1053F000374890ED0C0AB5EEC00AF1EE10FA02DD66
:1054000090ED0C0A04E0324890ED0C0AB1EE400A2F
:10541000DFED300AB4EEE00AF1EE10FA3CDD2B4885
:1054200090ED000A00F048F9B0EE408A2648D0ED31
:10543000060AB0EE600AF0EE480A00F05CF8DFED14
:10544000260A20EE200A224880ED380A1E4890EDF8
:10545000081AF0EE410A90ED071AB0EE410A00F08A
:105460004AF8DFED1D0A20EE200A194880ED370AC0
:10547000154890ED001AF0EE410A90ED031AB0EED7
:10548000410A00F038F8B1EE400ADFED130A20EED1
:10549000200A0F4880ED390ABDEC028B10BD0000D8
:1054A000AC020020680200200AD7233CA40200209E
:1054B000A8020020DC160020700200200AD7A33CBE
:1054C0003434002074020020B8160020A00200200E
:1054D0005C010020CDCC4C3D33336542F0EE400AF8
:1054E000F5EEC00AF1EE10FA02DBB0EE600A70478A
:1054F000B1EE600AFBE700B5B0EE403AB0EE602ACC
:10550000B5EEC03AF1EE10FA07D1B5EEC02AF1EED1
:1055100010FA02D19FEDFC1A99E0B0EE430AFFF7B2
:10552000DDFFF0EE403AB0EE420AFFF7D7FFF0EEB3
:10553000402AF4EEE23AF1EE10FA02D283EEA24AE9
:1055400001E082EEA34A9FEDF10AB4EEC04AF1EE0B
:1055500010FA02D2F0EE441A2DE0DFEDED0AB6EEBD
:10556000000A14EE200AF0EE404ABDEEE40A10EE06
:10557000100A00EE100AB8EEC00A34EEC00AF0EECF
:10558000404AE44901EB800191ED000AF0EE401A37
:10559000E04A411C02EB810191ED000A114601EB4A
:1055A0008001D1ED000A70EE600AB0EE610A00EEF3
:1055B000A40AF0EE401AF4EEE32AF1EE10FA20DD30
:1055C000B5EEC02AF1EE10FA0ADBB5EEC03AF1EE04
:1055D00010FA02DBB0EE611A39E0B1EE611A36E082
:1055E0009FEDCD1AB5EEC03AF1EE10FA04DB31EEC4
:1055F000610AB0EE401A2AE031EEC10AB0EE401A5C
:1056000025E0B5EEC03AF1EE10FA10DB9FEDC31ABB
:10561000B5EEC02AF1EE10FA04DB31EE610AB0EE0D
:10562000401A14E031EE210AB0EE401A0FE09FED6F
:10563000BC1AB5EEC02AF1EE10FA04DB31EE210AF5
:10564000B0EE401A03E031EE610AB0EE401AB0EE5F
:10565000410A00BD00B5B0EE405AF0EE605AF0EEDF
:10566000450AB0EE650AFFF746FF00BDF0EE400ABE
:10567000F6EE001A60EEA11AB0EE611AB0EE600A02
:1056800010EE100AA749A1EB600000EE100A21EE0F
:10569000002AF7EE081A42EE401A61EE801AB0EEC8
:1056A000610A21EE002AF7EE081A42EE401A61EE76
:1056B000801AB0EE610A704700B5F0EE402AB0EEF5
:1056C000620AFFF7D3FF20EE220A00BD10B52DEDD0
:1056D0000A8BB0EE409AF0EE609A9FED930B53EC7C
:1056E000102B51EC190B14F08BFD18D29FED900B81
:1056F00053EC102B51EC190B14F0CDFC41EC1B0BAF
:105700009FED8D0B53EC102B14F01EFC41EC1A0B8B
:1057100053EC192B14F0BFFC41EC180B17E09FED74
:10572000840B53EC102B51EC190B14F0B4FC41EC2E
:105730001B0B9FED810B53EC102B14F0A9FC41ECDB
:105740001A0B53EC192B14F0A6FC41EC180B9FED2F
:10575000760B53EC102B51EC180B14F051FD20D2AA
:105760009FED770B53EC102B51EC180B14F0ECFB66
:1057700041EC1C0B9FED740B53EC102B14F08BFCC5
:1057800041EC1B0B9FED6E0B53EC102B14F0DCFB6C
:1057900041EC1A0B53EC182B14F07DFC41EC180B68
:1057A0001FE09FED670B53EC102B51EC180B14F01E
:1057B0006CFC41EC1C0B9FED660B53EC102B14F0B2
:1057C0006AFC41EC1B0B9FED5E0B53EC102B14F0AD
:1057D000BBFB41EC1A0B53EC182B14F05CFC41ECB6
:1057E000180BB0EE480AF0EE680ABDEC0A8B10BD4B
:1057F00010B52DED068BB0EE408AF0EE608A0124E4
:105800009FED550B53EC102B51EC180B14F010FDC1
:105810000AD89FED510B53EC102B51EC180B14F0E0
:1058200034FC41EC180BA41E204614F0A6FC41ECFD
:10583000190BB0EE480AF0EE680AFFF747FFB0EE2A
:1058400040AAF0EE60AA53EC192B51EC1A0B14F09D
:1058500022FC41EC100BBDEC068B10BD10B52DEDFC
:10586000088BB0EE408AF0EE608A01249FED3C0B7D
:1058700053EC102B51EC180B14F066FB41EC180B99
:105880009FED350B53EC102B51EC180B14F0D0FCA2
:105890000AD8A41E9FED300B53EC102B51EC180BC3
:1058A00014F0F3FB41EC180B204614F066FC41ECBD
:1058B0001A0BB0EE480AF0EE680AFFF799FFB0EE57
:1058C00040BAF0EE60BA53EC1A2B51EC1B0B14F0FB
:1058D000E2FB41EC190B14F0C3FC00EE100ABDEC26
:1058E000088B10BDF0EE401AF4EEE01AF1EE10FA5B
:1058F0003ADD31EEC10AB4EEE00AF1EE10FA3CD224
:10590000B0EE600A39E00000000000008180803BBA
:105910000000804348A60108DB0F4940DB0FC93F68
:10592000DB0FC9BFDF59375F000000000000000037
:10593000000000602FF0D93F00000060305FF43FAE
:10594000000000000000F03F000000C0CCCCCCBF45
:10595000000000C0CCCCCC3FF1D4C853FB2109409F
:10596000F1D4C853FB21F93F31EE810AB4EEE00ACD
:10597000F1EE10FA01DDB0EE600A7047F0EE401A69
:10598000B1EE412A32EE202AB4EEE12AF1EE10FA0D
:1059900009D231EE202AB4EEE12AF1EE10FA02DD4E
:1059A000B0EE600A01E0B0EE610A7047F0EE402A06
:1059B000B5EEC01AF1EE10FA02DDB0EE410A01E0D8
:1059C000B1EE410AB6EE003A22EE033A23EE213A56
:1059D000B4EEC30AF1EE10FA06D29FEDE90A20EE0A
:1059E000800AF0EE400A4DE0B5EEC01AF1EE10FA72
:1059F00002DDB0EE410A01E0B1EE410A22EE213AA9
:105A0000B4EEC30AF1EE10FA06D29FEDDE0A20EEE4
:105A1000800AF0EE400A35E0B5EEC01AF1EE10FA59
:105A200002DDB0EE410A01E0B1EE410AB4EEE10A56
:105A3000F1EE10FA06D2B6EE000A20EE800AF0EE81
:105A4000400A1FE0B5EEC01AF1EE10FA02DDB0EE2A
:105A5000410A01E0B1EE410AB0EE003A21EE833A8C
:105A6000B4EEC30AF1EE10FA06D29FEDC70A20EE9B
:105A7000800AF0EE400A05E09FEDC40A20EE800A9D
:105A8000F0EE400A9FEDC20A20EE800A20EE223A94
:105A9000F7EE003A83EE830AB7EE003A30EE030ADF
:105AA000F7EE003A83EE803A90ED000A71EE403A4C
:105AB00090ED000A03EE230A80ED000A90ED000A43
:105AC000B1EE423A23EE213AB4EEC30AF1EE10FAF7
:105AD00004D8B1EE420A20EE210A0DE090ED000A52
