:020000040800F2
:100000000041002019930108A10100082393010871
:10001000A3010008A7010008AB01000800000000D0
:10002000000000000000000000000000AF01000818
:10003000B1010008000000002F93010881C60008EC
:100040003393010833930108339301083393010874
:100050003393010833930108339301083393010864
:100060003393010833930108339301083393010854
:100070003393010833930108339301083393010844
:100080003393010833930108339301083393010834
:10009000339301083393010833930108B301000837
:1000A0003393010833930108339301083393010814
:1000B00033930108C5010008CD01000833930108FE
:1000C00033930108339301083393010833930108F4
:1000D00033930108CF010008D7010008DF010008B1
:1000E00033930108339301083393010833930108D4
:1000F00033930108339301083393010833930108C4
:1001000033930108339301083393010833930108B3
:10011000E7010008EF010008339301083393010859
:100120003393010833930108339301083393010893
:100130003393010833930108339301083393010883
:1001400033930108339301083393010805E600084F
:10015000339301083393010833930108F701000832
:100160003393010833930108339301083393010853
:100170003393010833930108339301083393010843
:100180003393010833930108DFF810D01AF070FFA1
:1001900000480047F1030008AFF300800041002051
:1001A000704700BFFEE700BFFEE700BFFEE77047F5
:1001B000704710B5802012F04CFD10B1802012F075
:1001C0009EFD10BD10B510F0FAF810BD704710B5C7
:1001D0000EF0BAFF10BD10B50CF0D9FA10BD10B575
:1001E0000CF0A5FB10BD10B50CF05DFC10BD10B5FA
:1001F0000CF041FD10BD10B510F077F810BD0000F7
:1002000010B519F09BF8012019F0A3F810BD70B5D6
:100210000246002012E0145C594B1D881B885B1CB1
:10022000574E3380574B5C5533461B88B3F57A7F66
:1002300002D1002334462380431CD8B28842EADB33
:1002400070BD10B54E4800884F490988401A04B265
:10025000002C02DA04F57A7004B23F2C24DB002073
:100260004A4908703F204A490870002014E0464976
:100270000A880988491C444B198042498A5C444BCE
:10028000411C5A5440490988B1F57A7F02D10021B6
:100290003D4A1180411CC8B23F28E8DB40223C495E
:1002A00000201AF0D6F834E038480078401C37496E
:1002B00008700846007837490978884229D100201B
:1002C0003249087032490C7000BF1BE0A04213DABB
:1002D0002D490A880988491C2B4B198029498A5CB9
:1002E0002B4B411C5A5428490988B1F57A7F07D114
:1002F0000021254A118003E00022254B411C5A545D
:10030000411CC8B23F28E1DB4022214900201AF0FD
:10031000A0F810BD10B50446012C02D0032C11D159
:100320000EE059B923B1012B05D0022B04D100E016
:1003300000BF402010BD00BF00BF00BF00BF01E0F4
:100340000120F7E700BF0020F4E72DE9F04706465B
:10035000884614469946089F022E02D0032E0CD1DF
:100360000AE0012504E0605D01F0C4FA681CC5B232
:100370002078A842F7DA00E000BF00BFBDE8F087B0
:100380000400002054050020020000200600002088
:100390003C0900200000002019F04EBF70470020EB
:1003A00070470020704700207047002070470020F1
:1003B00070470020704700207047002070470020E1
:1003C00070470020704700207047002070470020D1
:1003D00070470020704719F056BF704700207047E3
:1003E0000020704719F09ABD7047000000BFFEE77B
:1003F00000F02FF90349087000F0BCF801E000F0AC
:10040000DFF8FCE7A416002010B5804840687F495B
:1004100008600CF0E4F87D4948607D49C8607B487D
:1004200040687A490968401A7849886009F03CFCBC
:10043000012006F089FB012009F067FC09F0DFFCD0
:100440000EF0D0FE7349012007F040FD012007F0B7
:1004500097FF9FED710A03F0E3FB01F052FA0CF0F5
:10046000BEF86B49086108460069C968401A6849C6
:10047000486110BD10B59FED690A07F000FB02202E
:1004800009F0FCF9022002F000FC10BD10B505F0E7
:100490009EFC60489FED620A07F01EF89FED600A1F
:1004A0000FF042FE052009F0BBFC10BD10B50CF0AA
:1004B00096F8574908600A2001F0AEFC0A2008F0BF
:1004C00012F80A200EF0AFFE9FED560A06F016FE57
:1004D0009FED540A06F01BFD9FED520A01F0E8FC67
:1004E0000A2009F055FF0CF07AF84949486008469F
:1004F00040680968401A4649886003F071FD0A2087
:1005000003F0C0FF9FED470A03F013FE9FED450A7D
:1005100004F02EF99FED430A04F092FA10BD10B5D5
:100520001AF0F8FA142009F039FC142001F0ABFE9F
:10053000142003F036FD3749142008F02AF914205E
:100540000FF0D2F9142002F036FF142003F07BF8EC
:10055000142002F0F3FC10BD10B5322009F096FA19
:1005600032200EF07EFF10BD10B54FF4FA700AF085
:10057000D9FA10BD002000BF1FE000EB40012A4A5D
:1005800002EB810189884FF47A7292FBF1F100EB62
:100590004002254B03EB8202D18000EB40011A465A
:1005A00002EB8101C988012905DA012100EB400233
:1005B00003EB8202D180411CC8B20728DDD370470B
:1005C00070B5002400BF1EE00CF044F8054604EBB3
:1005D0004400154901EB80008068281A04EB4401AF
:1005E000114A02EB8101C98888420AD304EB440016
:1005F000114601EB8000856004EB440152F82100B4
:100600008047601CC4B2072CDED370BDA00C002054
:10061000AC0C00200C1100206F12833A6F12033BC8
:100620000AD7A33B0AD7233C1400002010B50CF0D6
:1006300042FC18B102204F49087009E00CF0B3FBEE
:1006400018B101204B49087002E0002049490870A8
:1006500010BD10B54FF480600FF0E4FE0BF08DFF7D
:1006600064200BF0E5FF09F025FD0DF013F804F010
:100670005CFA0FF0B7FB0BF0ADFD32200BF0D8FFAA
:100680000BF010FD0CF062FB0CF04AFC0FF05AFA74
:100690000A200BF0CDFFFFF7C9FF0FF0DDFA364956
:1006A000487008703348007828B90020887001200D
:1006B0003249087208E001202F4988702D480078DF
:1006C000022801D10CF00BFC0CF068FE2A49C8701E
:1006D000FFF796FD64200BF0ABFF4FF4E1300BF019
:1006E000E3FF0A200BF0A4FF4FF4E1300CF0AAF86E
:1006F00023480CF059FA22480CF074F90AF03BF840
:1007000064200BF095FF07F027FB64200BF090FFAF
:100710000EF033FB0EF04EFE06F00FFA00F040F83C
:10072000184991F84A0130311AF0C8F816A302228C
:10073000AF21052000F0D8FD012010BD10B5044602
:1007400024B10121144812F0F3FD03E00121124805
:1007500012F0BDFD10BD10B504462CB14FF4806100
:100760000E4812F0E5FD04E04FF480610B4812F0F2
:10077000AEFD10BD68000020D0160020781C0020BF
:1007800020A10700881C002053595320696E69740A
:10079000204F4B2100000000000C024000080240E6
:1007A0000A21F748A0F89210A0F89E101421A0F892
:1007B000A4100A21A0F8AA100021A0F8B01032213C
:1007C000A0F8B610A0F8BC10A0F8C210A0F8C8108D
:1007D000C821A0F8E610A0F8EC10A0F8F8106421E9
:1007E000A0F8101100201BE000EB4002E44990311A
:1007F00001EB42014A8800EB4003E24901EB43016F
:100800004A8000EB4002DE49903101EB42018A88C8
:1008100000EB4003DB4901EB43018A80411CC8B275
:100820001828E1DB704770B504460D46164604F003
:10083000010018B131462846FFF7E9FC04F0040036
:1008400018B1314628460CF04DFA70BD3CB5024651
:10085000092A7CD008DC092A7AD2DFE802F079186C
:10086000B3FEFDFCFBFAF900302A72D008DC0D2A39
:1008700070D00E2A6FD00F2A6ED0202A68D1DCE209
:10088000402A6AD0412A69D0FA2AF7D11AE3BE4831
:1008900090ED1C0ABDEEC00A10EE100A00B20190E5
:1008A0009DF804300C78601C0870B84803559DF81A
:1008B00005300C78601C0870B4480355B24890EDC0
:1008C0001D0ABDEEC00A10EE100A00B201909DF89C
:1008D00004300C78601C0870AC4803559DF8053056
:1008E0000C78601C0870A9480355A74890ED1E0AB3
:1008F000BDEEC00A10EE100A00B201909DF804305F
:100900000C78601C0870A14803559DF805300C78E0
:10091000601C08709D4803559B4890ED160ABDEE7B
:10092000C00A10EE100A00B201909DF804300C7855
:10093000601C0870954803559DF805300C78601CC4
:10094000087092480355904890ED170A07E012E2AC
:10095000B9E254E210E236E26EE25EE26BE2BDEE34
:10096000C00A10EE100A00B201909DF804300C7815
:10097000601C0870854803559DF805300C78601C94
:10098000087082480355804890ED180ABDEEC00AF1
:1009900010EE100A00B201909DF804300C78601C33
:1009A00008707A4803559DF805300C78601C087073
:1009B00076480355744803780C78601C08707348B7
:1009C000035581E27248408801909DF804300C780C
:1009D000601C08706D4803559DF805300C78601C4C
:1009E00008706A4803556A48808801909DF8043071
:1009F0000C78601C0870654803559DF805300C782C
:100A0000601C0870614803556148C08801909DF8DA
:100A100004300C78601C08705C4803559DF8053064
:100A20000C78601C0870594803555A4890ED030A29
:100A3000BDEEC00A8DED000A9DF800300C78601CF8
:100A40000870524803559DF801300C78601C05E091
:100A500054E10DE1EDE0A3E090E037E008704B4891
:100A600003559DF802300C78601C08704748035508
:100A70009DF803300C78601C0870444803554248C8
:100A800090ED1F0ADFED440A20EE200ABDEEC00AF9
:100A900010EE100A00B201909DF804300C78601C32
:100AA00008703A4803559DF805300C78601C0870B2
:100AB0003648035500230C78601C087033480355F2
:100AC0000C78601C087031480355FDE1334890ED07
:100AD000370ADFED310A20EE200ABDEEC00A10EE23
:100AE000100A00B201909DF804300C78601C087068
:100AF000264803559DF805300C78601C0870234883
:100B00000355264890ED380ADFED230A20EE200A2F
:100B1000BDEEC00A10EE100A00B201909DF804303C
:100B20000C78601C0870194803559DF805300C7846
:100B3000601C087015480355184890ED390ADFED20
:100B4000160A20EE200ABDEEC00A10EE100A00B20E
:100B500001909DF804300C78601C08700B48035518
:100B60009DF805300C78601C087008480355002378
:100B70000C78601C087005480355A5E1A4E100004D
:100B8000C40C0020E40D002054340020740E00201A
:100B900074030020C03100200000C842740100200E
:100BA000F84890ED050ABDEEC00A8DED000A9DF8EB
:100BB00000300C78601C0870F34803559DF8013034
:100BC0000C78601C0870F04803559DF802300C78D2
:100BD000601C0870EC4803559DF803300C78601CCD
:100BE0000870E9480355E948408800909DF80030B6
:100BF0000C78601C0870E44803559DF801300C78AF
:100C0000601C0870E04803559DF802300C78601CA9
:100C10000870DD4803559DF803300C78601C08709F
:100C2000D948035500230C78601C0870D64803553A
:100C30004AE1D748C37D0C78601C0870D248035540
:100C4000D348C37A0C78601C0870CF480355002342
:100C50000C78601C0870CC4803550C78601C087038
:100C6000C94803550C78601C0870C74803552BE130
:100C7000C84890ED030ABDEEC00A10EE100A00B29B
:100C800001909DF804300C78601C0870BE48035534
:100C90009DF805300C78601C0870BB480355BD48B2
:100CA00090ED040ABDEEC00A10EE100A00B20190E9
:100CB0009DF804300C78601C0870B34803559DF80B
:100CC00005300C78601C0870AF480355B24890EDB1
:100CD000050ABDEEC00A10EE100A00B201909DF8A0
:100CE00004300C78601C0870A74803559DF8053047
:100CF0000C78601C0870A4480355E5E000200090C3
:100D00009DF800300C78601C08709F4803559DF8D2
:100D100001300C78601C08709B4803559DF8023028
:100D20000C78601C0870984803559DF803300C78C7
:100D3000601C087094480355002000909DF8003016
:100D40000C78601C0870904803559DF801300C78B1
:100D5000601C08708C4803559DF802300C78601CAC
:100D60000870894803559DF803300C78601C0870A2
:100D700085480355A8E0A7E0884890ED000A5FED9C
:100D80007A0A20EE200ABDEEC00A10EE100A00B268
:100D900001909DF804300C78601C08707A48035567
:100DA0009DF805300C78601C0870774803550023C7
:100DB0000C78601C0870744803550C78601C08702F
:100DC0007148035580E0764883780C78601C087081
:100DD0006D48035500230C78601C08706A48035561
:100DE0006F4843790C78601C0870674803556C485D
:100DF000C3780C78601C08706348035564E00020D9
:100E000008E0684B1C5C0D786B1C0B705E4B5C55EE
:100E1000431CD8B21728F4DB56E0002008E0624BF0
:100E20001C5C0D786B1C0B70574B5C55431CD8B287
:100E30001428F4DB48E047E046E05C480088019075
:100E40009DF804300C78601C08704F4803559DF8DD
:100E500005300C78601C08704B4803555348408897
:100E600001909DF804300C78601C087046480355CA
:100E70009DF805300C78601C0870434803554B48BA
:100E8000808801909DF804300C78601C08703E4802
:100E900003559DF805300C78601C08703A480355DE
:100EA0004248C08801909DF804300C78601C08709E
:100EB000354803559DF805300C78601C08703248A1
:100EC000035501E000E000BF00BF3CBD2DE9F84341
:100ED00081460D46904600200090AA219DF80020F2
:100EE000501CC0B20090284881549DF80010481C46
:100EF000C0B20090244800F80180182D01DBBDE845
:100F0000F8832B48465D9DF80010481CC0B2009045
:100F10001D48465400219DF80020501CC0B200908E
:100F20001948815469463046FFF790FC9DF800004F
:100F3000001F1549C87000240027002007E012494F
:100F4000095C2144CCB23919CFB2411CC8B29DF81A
:100F500000108842F3DB9DF80010481CC0B20090DE
:100F6000094844549DF80010481CC0B2009006483F
:100F700047549DF8002001464846FFF754FC00BF47
:100F8000BDE7000064170020740E00201C03002041
:100F9000A4160020201C00204C1700209C030020D9
:100FA0005D01002024330020DA3300208803002074
:100FB000DCB40108F0B503460C4600212BE001EB40
:100FC000410000EB8110FE4D285C10BB01EB41009D
:100FD00000EB81102844437001EB410000EB8110CD
:100FE0002844827000200AE0265C01EB410505EBF5
:100FF0008115F34F3D44ED1C2E54451CE8B2904240
:10100000F2DB012001EB410505EB8115EC4E70553B
:10101000F0BD481CC1B20529D1DB0020F8E770B54E
:10102000002425E004EB440000EB8410E449085C54
:10103000E0B104EB440303EB84130D462B449A7890
:1010400004EB440303EB84132B44D91C04EB44034B
:1010500003EB84132B445878FFF7E5FB002004EBE7
:10106000440101EB84112A46505470BD601CC4B287
:10107000052CD7DB00BFF8E770B50446012C04D07F
:10108000022C14D0042C37D121E001EB4106CD4DC8
:1010900005EB4605AA1C01EB4106CA4D05EB4605CA
:1010A000281D01EB4106C74D05EB460325E001EB8A
:1010B0004105C54E06EB4505AA1C01EB410506EBB3
:1010C0004505281D01EB410506EB450315E001EB45
:1010D0004106BC4D903D05EB4605AA1C01EB4106BF
:1010E000B84D903D05EB4605281D01EB4106B54D79
:1010F000903D05EB460300E070BD00BF182900DB02
:10110000FAE7158855B105881688B54203DA0588CF
:101110006D1C058002E001251D70058000BFEBE716
:101120002DE9F04107460C46012F04D0022F09D0CB
:10113000042F16D10DE0AF2604EB4401A14800EBCB
:10114000410511E0FF2604EB44009F4901EB4005F7
:101150000AE0AF2604EB44019A48903800EB4105C1
:1011600002E00020BDE8F08100BF182C01DB002068
:10117000F8E7287840B100202870324621463846EA
:10118000FFF7A4FE0120EDE70020EBE72DE9F05F7B
:1011900082460E4617469846DDF828B00024AA225B
:1011A0002146641C894842542146641C465400224E
:1011B0002146641C42542146641C42542146641C4E
:1011C00047542146641C00F801802146641C00F845
:1011D00001B0201F7D49C87000254FF00009002094
:1011E00009E07A49095C2944CDB209EB050101F017
:1011F000FF09411CC8B2A042F3DB2046611CCCB2FF
:1012000072490D542046611CCCB2704901F800901F
:1012100022465046FFF7CEFEBDE8F09F2DE9F7418C
:1012200081B080460E4600200090BDF80C0009F009
:10123000B2FC00900024AA222146641C6348425458
:101240002146641C4654E2222146641C425400227A
:101250002146641C42549DF80C202146641C4254D3
:101260009DF80D202146641C42549DF80020214623
:10127000641C42549DF801202146601CC4B25348AE
:1012800042549DF802202046611CCCB24F490A54BA
:101290009DF803202046611CCCB24C490A54201F03
:1012A000C87000250027002007E04849095C294450
:1012B000CDB27919CFB2411CC8B2A042F5DB2046AD
:1012C000611CCCB241490D542046611CCCB23F494F
:1012D0000F5422464046FFF76DFEBDE8FF8100BF78
:1012E00000BF00BF00BF70472DE9F05F834688460E
:1012F00091461E460024AA222146641C33484254CB
:101300002146641C00F80180A0222146641C42543E
:1013100000222146641C42542146641C00F80190BE
:1013200092460CE05046411C01F0FF0A325C204618
:10133000611CCCB225490A54322C00DD03E016F8BA
:101340000A000028EED100BF201F2049C8700025E8
:101350000027002007E01D49095C2944CDB2791916
:10136000CFB2411CC8B2A042F5DB2046611CCCB212
:1013700016490D542046611CCCB214490F54224624
:101380005846FFF717FEBDE8F09F2DE9F04781466C
:101390000E4617460024AA222146641C0B484254DC
:1013A0002146641C4654F1222146641C425400220A
:1013B0002146641C42542146641C4754201F07E008
:1013C000B40E0020E40D0020C40C00200310002007
:1013D000FE49C87000254FF00008002009E0FB49D5
:1013E000095C2944CDB208EB050101F0FF08411C5E
:1013F000C8B2A042F3DB2046611CCCB2F3490D54C5
:101400002046611CCCB2F14901F8008022464846D2
:10141000FFF7D0FDBDE8F0872DE9F84380460C4684
:10142000154600260027E178A81F814201D0BDE8BB
:10143000F883002006E0215C3144CEB2B919CFB266
:10144000411CC8B2A91E8142F5DC601910F8020CDB
:10145000B04204D1601910F8010CB84200D0E6E7A0
:10146000A078402875D0A0784128FBD0A0783028FB
:10147000F8D0A0783228F5D0A0783328F2D0A07820
:101480003428EFD0A0780D28ECD0A078E0286FD1D8
:101490002079012804D010286DD011286AD19EE04F
:1014A000607980BBA079012861D0A079022807D19A
:1014B000C748C07A00285AD10120C649C87056E0F2
:1014C000A079032853D0A079042850D0A07905280A
:1014D0004DD0A07910284AD0A079612847D0A079B2
:1014E000622844D0A079AA2804D109F0A1F903F018
:1014F00011FB3CE0A079AB2806D1012009F061FA8C
:1015000003F008FB33E00AE0A079AC282FD109F002
:101510008FF9022009F055FA03F0FCFA27E0607910
:10152000012800D123E06079302820D1A07901285A
:1015300010D1A748C07AD0B9A7480078401CA64966
:1015400008700120A34988700020A44981F84A014D
:101550000DE06EE0A079022809D19D48C07A30B92B
:1015600002209F49087000209C4981F84B0138E017
:1015700040E000E034E0607948BBA07907281DD046
:1015800007DC072821D2DFE800F020131415161716
:101590001800602816D006DC082810D009280FD0C3
:1015A0000A2812D10DE061280DD062280DD10BE080
:1015B0000CE00BE00AE009E008E007E006E005E0E7
:1015C00004E003E002E001E000E000BF06E0607933
:1015D000012803D06079022800D000BF01E000E0BC
:1015E00000BF00BF0097A2783346AF214046FFF707
:1015F000CDFD1EE0A078E0B1A078E12805D1A28859
:10160000AF214046FFF70AFE13E0A078E2280CD194
:10161000D4F80610A08809F0B4FE0097A2783346EB
:10162000AF214046FFF7B2FD03E0A078602800D06C
:1016300000BF00BFFBE62DE9F04106460D46012E36
:1016400001D1002404E0022E01D1012400E0022493
:1016500004EB440000EB84106249084490F8420017
:10166000072875D2DFE800F00416374875DAFD0068
:10167000AA2D0ED1012004EB440101EB8411594A3B
:10168000114481F8420004EB440000EB8410114641
:101690000D5425E1052D03D0FF2D01D0052D10D1CE
:1016A000022004EB440101EB84114E4A114481F8FD
:1016B000420004EB440000EB8410114608444570DE
:1016C00008E0002004EB440101EB8411454A114479
:1016D00081F8420004E1032004EB440101EB841192
:1016E000404A114481F8420004EB440000EB8410AE
:1016F000114608448570F3E03B2D1FDA042004EB0B
:10170000440101EB8411374A114481F8420004EB93
:10171000440000EB841011460844C57004EB4400FB
:1017200000EB8410084480F84050002004EB440192
:1017300001EB8411114481F8410008E0002004EB22
:10174000440101EB8411274A114481F84200C7E0AB
:10175000BCE004EB440000EB84102249084490F8FC
:101760004000002850DD04EB440000EB84100844E6
:1017700090F84000401E04EB440101EB8411194A2B
:10178000114481F8400004EB440000EB8410114642
:10179000084490F8410004EB440101EB841111442A
:1017A00091F84110491C04EB440202EB84120D4BEA
:1017B0001A4482F84110001D04EB440101EB84112E
:1017C0001A4611440D5404EB44000DE003100020B0
:1017D000A4160020340500206A000020881C002088
:1017E000740300204310002000EB841011460844CD
:1017F00090F8400088B9052004EB440101EB841106
:10180000114481F8420008E0002004EB440101EBA0
:101810008411514A114481F8420061E0062004EB32
:10182000440101EB84114C4A114481F8420004EB5D
:10183000440000EB84101146084490F8410004EB8A
:10184000440101EB8411114491F84110491C04EB4F
:10185000440202EB8412404B1A4482F84110001DEE
:1018600000E007E004EB440101EB84111A46114447
:101870000D5435E0002004EB440101EB8411364A9D
:10188000114481F8420004EB440000EB841011463F
:10189000014404EB440000EB8410104490F8410034
:1018A000001D0D5404EB440000EB84101146084465
:1018B00090F84100401DC7B204EB440000EB8410D7
:1018C00081183A463046FFF7A7FD09E0002004EBF7
:1018D000440101EB8411204A114481F8420000BF09
:1018E00000BFBDE8F08110B5044621460420FFF793
:1018F000A2FE10BD10B5044621460120FFF79BFE55
:1019000010BD10B5FFF78BFB002409E02146042031
:10191000FFF7B2FB21460120FFF7AEFB601CC4B20B
:10192000182CF3DB002405E021460420FFF7F8FB28
:10193000601CC4B2182CF7DB002407E0214601200C
:10194000FFF7EEFB00B103E0601CC4B2182CF5DB1E
:1019500000BFFEF776FC10BD4310002070B5DDE936
:1019600004452BB10E882EB10E8806440E8001E08E
:1019700001260E800E88964202DB2C7000260E8017
:1019800070BD7CB50546FE480079022824DCFD4880
:10199000407808BBFC484078B8B1FB480078A0B15B
:1019A000F948C07850B1F648407818B10020F449A1
:1019B000487214E00120F249487210E00120F34916
:1019C00048720220EE49487209E00120EF49C871CF
:1019D0000320EB49487202E00420E9494872E848D4
:1019E000C07A002840D1E648807A002849D0E448EF
:1019F000407A50B9E248807AE149C872E4A30222F1
:101A0000AF210520FFF770FC3BE00020DC49887225
:101A10000846407A012806D1E0A30222AF21052022
:101A2000FFF762FC2DE0D648407A022806D1DBA3FE
:101A30000222AF210520FFF757FC22E0D048407A70
:101A4000032806D1D5A30222AF210520FFF74CFCC5
:101A500017E0CB48407A042813D1D4A30222AF2147
:101A60000520FFF741FC0CE0C548807A28B9D5A3D2
:101A70000222AF210520FFF737FCC148807AC04918
:101A8000C872D548B0F9040010F5967F7EDAD248C6
:101A9000B0F90600002803DDCF48B0F9060003E0E6
:101AA000CD48B0F90600404200EE100AB8EEC00A78
:101AB000F3EE0E0AB4EEE00AF1EE10FA14DDC648B9
:101AC000B0F9020000EE100AB8EEC00AFBEE0E0AF2
:101AD000B4EEE00AF1EE10FA06D2A948407B30B924
:101AE0000120A749487302E00020A5494873BA487D
:101AF000B0F9020010F5967F12DAB748B0F900008D
:101B0000B0F5967F0CDDB448B0F9060010F5967F6D
:101B100006DA0120B14908700220994948731BE098
:101B2000AD48B0F9020010F5967F12DAAA48B0F974
:101B3000000010F5967F0CDAA748B0F90600B0F562
:101B4000967F06DD0120A549087002208C49487364
:101B500002E00020A149087000248948C07A28B119
:101B600000BF4FF496709E49088004E002244FF4B1
:101B7000FA709B49088082480A30CDE900409748B6
:101B80000378974802889749284600E002E0FFF76B
:101B9000E5FE08E000207A4948730846807A02286A
:101BA00001D1012088728C48B0F9040010F5AF7F94
:101BB00003DD00207249087302E0012070490873B8
:101BC0007CBD002005E00021834A22F81010411C52
:101BD000C8B20428F7DB8048B0F90400002802DD11
:101BE00000207D49888000207B4908804880C8808B
:101BF0006348C07A48B17C48407918B903206049ED
:101C0000C87402E001205E49887101205F49C872F2
:101C10007047F0B505AC70CC5CB100270F80CF7871
:101C20008FB98F7817B18F787F1C8F700127CF7095
:101C300009E00027CF700F8807440F800F889F426C
:101C400001DD01278F708F78974202DD3570002704
:101C50008F70F0BD1EB504464948C07A00286ED189
:101C60004748007B002873D05B48B0F9020010F5AC
:101C7000AF7F17DA5848B0F90000B0F5AF7F11DD3B
:101C80005548B0F9040010F5AF7F0BDA5248B0F9AF
:101C90000600B0F5AF7F05DD0120544908705449B6
:101CA000087004E0002051490870514908704A4802
:101CB000B0F90200B0F5AF7F15DD4748B0F900007C
:101CC000B0F5AF7F0FDD4448B0F9040010F5AF7FE9
:101CD00009DA4148B0F9060010F5AF7F03DA0120B8
:101CE0004449087002E00020424908703A48B0F9BF
:101CF0000200B0F5AF7F15DD3748B0F90000B0F550
:101D0000AF7F0FDD3448B0F9040010F5AF7F09DA7A
:101D10003148B0F90600B0F5AF7F03DD0120364948
:101D2000087002E00020344908702B48B0F9020026
:101D3000B0F5AF7F04DD01203049087008E06AE0AB
:101D40002548B0F90200322802DA00202B49087039
:101D50002B480121CDE90010254803784FF47A7211
:101D600028492046FFF7FAFD27480121234A127827
:101D70004FF47A73CDE9002102900522234947E010
:101D8000A416002016040020D0160020781C002085
:101D9000556E6C6F636B204F4B210000556E6C6F5E
:101DA000636B204661696C2100000000506F77650D
:101DB00072204C6F772C556E6C6F636B2046616997
:101DC0006C2100004643204F7574707574204C6F71
:101DD000636B6564212000000C1100206E00002060
:101DE000700000206C0000205D0100207D000020BC
:101DF0007C0000207E0000207F000020800000206A
:101E000037050020720000207403002078000020B5
:101E10002046FFF7FEFE1EBD10B504461F480078A1
:101E200090B3002021E01E4931F81010A1F2DC51DE
:101E300009B21C4A22F81010114631F9101011F5A0
:101E4000FA7F01DC18490BE0164931F91010B1F5A1
:101E5000FA7F02DD4FF4FA7102E0124931F91010F5
:101E6000104A22F81010411CC8B20828DBDB2046BB
:101E7000FFF787FD2046FFF7EDFE09483A3890F856
:101E8000390010B1FFF79DFE06E00848C07A01282E
:101E900002D100200549C87210BD0000A416002020
:101EA000DA3300200C1100200CFEFFFF781C00200C
:101EB00008B5CA48D0ED000A9FEDC91AF4EEC10A70
:101EC000F1EE10FA0BD2D0ED000AB7EE001A70EE68
:101ED000810AC0ED000A0120C249887002E000209A
:101EE000C0498870BD48D0ED010A9FEDBD1AF4EEDF
:101EF000C10AF1EE10FA0BD2D0ED010AB7EE001ACA
:101F000070EE810AC0ED010A01208DF8000002E0A8
:101F100000208DF80000B148D0ED020A9FEDB01A04
:101F2000F4EEC10AF1EE10FA0BD2D0ED020AB7EED0
:101F3000001A70EE810AC0ED020A01208DF801003E
:101F400002E000208DF801009DF8000030B19DF8FE
:101F5000010018B10120A349C87002E00020A14986
:101F6000C87008BD30B500220024C5788B1F9D4283
:101F700000D030BD002306E0C55C1544EAB2A518C8
:101F8000ECB25D1CEBB28D1E9D42F5DC431813F8DC
:101F9000023C934204D1431813F8013CA34200D001
:101FA000E7E78378512B38D103795BB943798D4DBD
:101FB0006B7183795BB2AB71C3795BB2EB71037AFE
:101FC0002B7183E00379012B12D14379854D2B725C
:101FD000C3886B810389AB81837A2B719FED820A61
:101FE0007E4B83ED010A2B461B785B1C2B706DE04A
:101FF0000379022B6AD143797A4DAB73C3882B8264
:1020000003896B824389AB828389EB82C3892B83EB
:10201000038A6B83837C2B7158E08378342B0DD13A
:10202000D0F807306F4DEB619FED6F0A6B4B83ED7E
:10203000020A2B465B785B1C6B7047E08378012BB0
:102040000DD18388674D2B86C3886B860389AB8649
:102050004389EB8683892B87C3896B8736E0837836
:10206000042B33D1B0F9043000EE103AB8EEC00AB8
:10207000DFED5E0A20EE200A5A4B83ED080AB0F924
:10208000063000EE103AB8EEC00ADFED580A20EE36
:10209000200A544B83ED090AB0F9083000EE103ADB
:1020A000B8EEC00ADFED510A20EE200A4D4B83ED59
:1020B0000A0AB0F90A3000EE103AB8EEC00ADFEDB5
:1020C0004B0A20EE200A474B83ED0B0A00BF50E776
:1020D00010B504464648007838B9AA2C05D101202D
:1020E000434908704348047077E04148007801286C
:1020F00009D1052C01D0FF2C05D102203C490870E4
:102100003C48447069E03A480078022805D1032031
:1021100037490870374884705FE0354800780328F5
:102120000CD1FA2C0ADA0420314908703148C47005
:10213000314804700020314908704EE02C48007886
:10214000042819D12C480078002815DD2A48007889
:10215000401E294908702948007828490978491CF7
:10216000264A1170001D23490C542348007880BB77
:1021700005201F49087030E01D48007805280DD162
:1021800006201B4908701D4800781C490978491C25
:102190001A4A1170001D17490C541EE014480078AB
:1021A000062817D100201249087014480078001D35
:1021B00010490C549FED0C0A084880ED000A0120DC
:1021C0000F4908700D480078401DC1B20948FFF75B
:1021D000C9FE02E000200649087010BD8C110020E5
:1021E0000000FA431C1100200000000017B7D1388E
:1021F0008300002058110020810000208200002070
:10220000690000200179C27801EB0221FE4A1180A9
:102210008179427901EB0221FC4A11808178FC4AE4
:10222000517070470020FB49087000BF28E0032868
:1022300018DA9FEDF90AF6492C3101EB800181EDA6
:10224000000A9FEDF50AF249383101EB800181ED7A
:10225000000A9FEDF10AEE49443101EB800181ED66
:10226000000A03E00021EA4AA2F850100022E849DF
:10227000143141F82020103941F82020411CC8B207
:102280000428D4DB704710B50446E14841788078D3
:1022900081421FD0FFF7C6FFE04890F8380068B9C8
:1022A000DF48C07D012809D1DE48807810B9DD48BB
:1022B000407918B10120D64908700BE00020D449BC
:1022C0000870D9A30222AF210520FFF70DF80020E6
:1022D000CF494870CE48407806286ED006DC0628E4
:1022E0006CD2DFE800F06B10416CCEFD09287DD088
:1022F00004DC07287BD0082860D1ADE20A2877D01B
:10230000A028F9D14AE0C248007860B3C448C07C34
:1023100070B9C048007830BB0120BE490870C6A320
:102320000222AF210520FEF7DFFF05F066FD1AE06F
:10233000BB48C07C022809D1C2A30222AF210520DC
:10234000FEF7D2FF0020B24948700CE0B448C07CD0
:10235000022808DDBFA30222AF210520FEF7C4FF3B
:102360000020AB4948708EE3AD48C07C022808D1FC
:10237000BBA30222AF210520FEF7B6FF05F04CFDFE
:102380000BE0A748C07C40B9B8A30222AF210520CA
:10239000FEF7AAFF00209E49487074E3A048C07A67
:1023A00050B1B5A30222AF210520FEF79DFF00200A
:1023B0009B4988729649487065E38FE162E39348D0
:1023C000008800EE100AB8EE400A914880ED0D0A30
:1023D0008E48008898B38C4800884FF47A7148433F
:1023E00000EE100AF8EEC00A884802E093E2D5E158
:1023F000ECE20088002802DC9FED870A17E0A34882
:1024000090ED011A8148008800EE100AB8EE400AEB
:10241000B4EEC01AF1EE10FA03D29C4890ED010A16
:1024200005E07A48008800EE100AB8EE400A80EE17
:10243000801ABCEEC10A764880ED070A03E0FFE788
:1024400000217348C1617248C06830B990A302226C
:10245000AF210520FEF748FF0DE06D48C169C06857
:10246000814208D28CA30222AF210520FEF73CFF57
:102470000020674948706648C06801196448C16017
:1024800001E362480088404200EE100AB8EEC00A3C
:102490005F4880ED0D0A5D480088A8B35A4800885F
:1024A0004FF47A71484300EE100AF8EEC00A57481C
:1024B0000088002802DC9FED580A1DE0734890ED6B
:1024C000020AB1EE401A5148008800EE100AB8EE38
:1024D000400AB4EEC01AF1EE10FA07D26B4800E0E1
:1024E00034E090ED020AB1EE400A05E0474800886A
:1024F00000EE100AB8EE400A80EE801ABCEEC10A67
:10250000434880ED070A03E0FFE700214048C1612E
:102510003F48C06830B963A30222AF210520FEF70F
:10252000E3FE0DE03A48C169C068814208D260A369
:102530000222AF210520FEF7D7FE00203449487063
:102540003348C06801193248C1609CE22F480088B6
:1025500000EE100AB8EE400A2D4880ED0B0A2B4819
:10256000008878B3284800884FF47A71484300EE19
:10257000100AF8EEC00A25480088002802DC9FED0A
:10258000260A17E0414890ED001A2048008800EE26
:10259000100AB8EE400AB4EEC01AF1EE10FA03D2F7
:1025A0003A4890ED000A05E01848008800EE100A4D
:1025B000B8EE400A80EE801ABCEEC10A144880EDE5
:1025C000050A03E0FFE70020114948611048406810
:1025D00030B93AA30222AF210520FEF785FE0EE0B6
:1025E0000B4840690A494968884208D236A302224A
:1025F000AF210520FEF778FE002005494870044809
:1026000040682044024967E08400002086000020E2
:10261000981100208800002000000000A033002056
:10262000A41600205D0100204643205374617465A8
:10263000204572726F72210054616B65206F66666F
:102640002100000054616B65206F6666204F4B21AE
:1026500000000000434D44204572726F722100005B
:102660004C616E64696E6721000000004C616E640D
:10267000696E67204F4B2100456D657267656E631B
:10268000792073746F70204F4B210000C01600201A
:10269000476F207570210000476F207570204F4BE9
:1026A00021000000476F20646F776E21000000005A
:1026B000476F20646F776E204F4B2100476F20617A
:1026C0006865616421000000476F2061686561648E
:1026D000204F4B21000000004860D4E1FC480088F6
:1026E000404200EE100AB8EEC00AFA4880ED0B0A2C
:1026F000F748008878B3F84800884FF47A71484367
:1027000000EE100AF8EEC00AF1480088002802DC4A
:102710001FED3F0A17E0F14890ED001AEC480088E1
:1027200000EE100AB8EE400AB4EEC01AF1EE10FA4C
:1027300003D2EA4890ED000A05E0E548008800EE83
:10274000100AB8EE400A80EE801ABCEEC10AE148D9
:1027500080ED050A03E0FFE70020DE494861DD481F
:10276000406830B9DEA30222AF210520FEF7BCFD90
:102770000EE0D8484069D7494968884208D2DBA3AF
:102780000222AF210520FEF7AFFD0020D14948709D
:10279000D04840682044CF49486074E1CC48008864
:1027A00000EE100AB8EE400ACA4880ED0C0AC8488C
:1027B000008878B3C84800884FF47A71484300EE27
:1027C000100AF8EEC00AC2480088002802DC1FED9B
:1027D0006E0A17E0C14890ED001ABD48008800EE6F
:1027E000100AB8EE400AB4EEC01AF1EE10FA03D2A5
:1027F000BA4890ED000A05E0B548008800EE100ADE
:10280000B8EE400A80EE801ABCEEC10AB14880EDF5
:10281000060A03E0FFE70021AE488161AD48806809
:1028200030B9B5A30222AF210520FEF75DFD0DE012
:10283000A84881698068814208D2B2A30222AF21F0
:102840000520FEF751FD0020A2494870A14880688C
:102850000119A048816016E19D480088404200EEC1
:10286000100AB8EEC00A9B4880ED0C0A9848008810
:1028700078B3994800884FF47A71484300EE100A03
:10288000F8EEC00A92480088002802DC1FED9E0A7C
:1028900017E0924890ED001A8D48008800EE100A6B
:1028A000B8EE400AB4EEC01AF1EE10FA03D28B482B
:1028B00090ED000A05E08648008800EE100AB8EEA8
:1028C000400A80EE801ABCEEC10A824880ED060AFA
:1028D00003E0FFE700217F4881617E48806830B9CE
:1028E0008BA30222AF210520FEF7FEFC0DE0794804
:1028F00081698068814208D288A30222AF21052025
:10290000FEF7F2FC00207349487072488068011994
:1029100070488160B7E06E48008800B26D49A1F848
:1029200050006B48008878B36B4800884FF47A7188
:10293000484300EE100AF8EEC00A654800880028F7
:1029400002DC1FEDCB0A17E0644890ED031A6048E3
:10295000008800EE100AB8EE400AB4EEC01AF1EE9C
:1029600010FA03D25D4890ED030A05E0584800884C
:1029700000EE100AB8EE400A80EE801ABCEEC10AE2
:10298000544880ED080A03E0FFE700215148016246
:102990005048006930B965A30222AF210520FEF737
:1029A000A3FC0DE04B48016A0069814208D262A392
:1029B0000222AF210520FEF797FC00204549487010
:1029C000444800690119434801615CE040480088BF
:1029D000404200B23F49A1F850003D48008878B31A
:1029E0003D4800884FF47A71484300EE100AF8EE33
:1029F000C00A37480088002802DC1FEDF90A17E0FA
:102A0000364890ED031A3248008800EE100AB8EEFE
:102A1000400AB4EEC01AF1EE10FA03D22F4890ED3E
:102A2000030A05E02A48008800EE100AB8EE400AC2
:102A300080EE801ABCEEC10A264880ED080A03E049
:102A4000FFE70021234801622248006930B93EA314
:102A50000222AF210520FEF747FC0DE01D48016A68
:102A60000069814208D23BA30222AF210520FEF774
:102A70003BFC0020174948701648006901191548A9
:102A8000016100E000BF00BF1248407808B9FFF7BD
:102A9000C9FB1048417881703248C07AB0B10D4A04
:102AA0003832A2F1140101F1080002F088FC094A51
:102AB00044322D49A2F10C0002F062FC054890ED71
:102AC0000D0A80ED100A80ED130A5BE04EE0000075
:102AD000860000209811002084000020C0160020ED
:102AE000476F206261636B2100000000476F206226
:102AF00061636B204F4B2100476F206C656674212A
:102B000000000000476F206C656674204F4B210069
:102B1000476F20726967687421000000476F207258
:102B200069676874204F4B21000000005475726E75
:102B3000206C6566742100005475726E206C6566A9
:102B400074204F4B210000005475726E207269672B
:102B5000687421005475726E207269676874204F22
:102B60004B210000A4160020A8010020064890ED8B
:102B70000D0A064880ED090A034890ED0E0A034845
:102B800080ED0A0A10BD0000740100209811002099
:102B9000AA49097839B9AA2805D10121A74A117093
:102BA000A749087070E0A5490978012907D13028A4
:102BB00005D10221A14A1170A149487064E09F49E2
:102BC0000978022905D103219C4A11709C4988701B
:102BD0005AE09A490978032905D10421974A1170CE
:102BE0009749C87050E09549097804290AD1052110
:102BF000924A117092490871924908700521924ACF
:102C0000117041E08D490978052917D18D4909785E
:102C1000002913DD8B490978491E8A4A11708A49B7
:102C20000A780978491C884B197085498854854968
:102C3000097829BB0621814A117025E07F4909786E
:102C400006291ED100217D4A11707D497E4A1278E5
:102C500088547E49097899B9002105E0784A525C88
:102C60007B4B5A544A1CD1B2774A12789142F5DD17
:102C700075490978491C774A11700121734A11700E
:102C800002E000216D4A1170704701466F480078DC
:102C900000287DD000206D4B1870002200BF05E099
:102CA0006B4B1B5C1344DAB2431CD8B2694B1B78E4
:102CB0005B1E8342F4DC6648664B1B78184410F8B0
:102CC000010C904200D070476148C078312875D01F
:102CD0005F48C078322871D15D48C0795C4B9B79E0
:102CE00040EA032000B200EE100AB8EEC00AB1EECE
:102CF000400ADFED590A80EE201A584880ED041A88
:102D00005348407A524B1B7A40EA032000B200EE4F
:102D1000100AB8EEC00ADFED500A80EE201A4F48C4
:102D200080ED031A4A48C07A494B9B7A40EA032057
:102D300000B200EE100AB8EEC00ADFED470A80EEDE
:102D4000201A464880ED051A4148407B404B1B7BCA
:102D500040EA032000B200EE100AB8EEC00AB1EE5D
:102D6000400ADFED3D0A80EE201A3C4880ED071A4C
:102D70003748C07B364B9B7B40EA032000B200EE15
:102D8000100AB8EEC00ADFED340A80EE201A00E027
:102D900018E0324880ED061A2D48407C2C4B1B7CF5
:102DA00040EA032000B200EE100AB8EEC00ADFEDE0
:102DB0002A0A80EE201A294880ED081A0020284BA4
:102DC000188000BF26480088B0F57A7F08DA2448CA
:102DD00000880844224A10800120204A507002E0F6
:102DE00000201E4A507000BF6DE710B504461D4814
:102DF000C07A78B90020194908701B4890ED0D0A77
:102E0000084680ED010A184890ED0E0A084680ED4C
:102E1000020A02E0012011490870104A2432A2F18E
:102E2000200101F1080002F0CAFA0C4A3032A2F186
:102E30002C0101F1140002F0C2FA10BD8F00002035
:102E4000281300208E000020900000208B0000201E
:102E5000281200208A0000200000C842EC11002047
:102E60008C000020A41600207401002010B52DED68
:102E7000028BF0EE408AB0EE608A2A48C0ED008AEC
:102E800080ED018A02469FED280A011D03F093FBA5
:102E9000BDEC028B10BD234880ED060AD0ED060A7A
:102EA0009FED221AF4EEC10AF1EE10FA02D8DFED1E
:102EB0001F0A0FE01B48D0ED060A9FED1D1AF4EE25
:102EC000C10AF1EE10FA02DDDFED190A02E0154841
:102ED000D0ED060A1348C0ED060A7047114880ED90
:102EE000070AD0ED070A9FED131AF4EEC10AF1EEBE
:102EF00010FA02D8DFED0F0A0FE00A48D0ED070AFA
:102F00009FED0D1AF4EEC10AF1EE10FA02DDDFEDCD
:102F10000A0A02E00348D0ED070A0248C0ED070A9A
:102F2000704700002814002000004843000016C32A
:102F3000000016430000C8C20000C84201B5344872
:102F40008088282802DD0120324948703248C07A42
:102F500010B900202F4948703048807860B12F4860
:102F6000C07948B12B48407830B12B48007E012809
:102F700002D12849087002E000202649087028483C
:102F80008078012813D100202249887008460178F2
:102F9000684600F02BFA234890ED0C1AF0EE410A37
:102FA00090ED0B1AB0EE410AFFF760FF2EE01C48CF
:102FB000807802281AD100201649887008460178C6
:102FC000684600F0BAFC184890ED061AF0EE410A87
:102FD00090ED051AB0EE410AFFF748FF1248D0ED18
:102FE000070AB0EE600AFFF779FF0FE00948807822
:102FF00060B9012007498870DFED0C0A9FED0B0ACC
:10300000FFF734FF9FED090AFFF768FF08BD0000D6
:103010001C03002091000020A41600205D01002068
:103020005C330020481400208C14002000000000B5
:103030000CB5B1F5FA7F06DA00EE101AB8EEC00A48
:10304000FD4A82ED000AFD4A92ED050AFC4A82ED36
:10305000000AFA4A92ED060AF94A82ED010AF64A96
:1030600092ED000ADFEDF70A20EE200AF34AD2EDD6
:10307000030A20EE200A82ED050AEF4A92ED000ACB
:10308000DFEDF00A20EE200AEC4AD2ED040A20EE31
:10309000200A82ED060A02784FF47A7393FBF2F26B
:1030A00000EE102AB8EEC00AE44AD2ED050AE44A5E
:1030B00092ED001A70EEC10A20EE200A8DED000A92
:1030C000027893FBF2F200EE102AB8EEC00ADB4A57
:1030D000D2ED060ADA4A92ED011A70EEC10A20EE2C
:1030E000200A8DED010A9DED000AD44AD2ED070AAF
:1030F00070EE600A92ED070A9FEDD31A01EE200AE6
:1031000082ED070A9DED010AD2ED080A70EE600A11
:1031100092ED080A9FEDCC1A01EE200A82ED080A12
:10312000D2ED070AC94AB2F9002000EE102AB8EE23
:10313000C00A30EE800AC14A82ED090AD2ED080ABF
:10314000C24AB2F9022000EE102AB8EEC00A30EEF0
:10315000800ABA4A82ED0A0A0CBD017801EE901A83
:10316000F8EE611A9FEDBA2A61EE821AB0EE611A8A
:10317000B849497929B10021B04A1170B64A118085
:103180000EE0B5490988B1F57A7F06DA0178B24ACE
:1031900012881144B04A118002E00121A74A11703F
:1031A000AC490989A54A5180AA49C98849420AB24D
:1031B000A2498A80A7494979002962D0DFEDA71A80
:1031C00060EEA11AFDEEE11A11EE901A09B29B4AC7
:1031D000D180DFEDA21A60EE211AFDEEE11A11EEA8
:1031E000901A0AB295490A81B1F9061011F13C0F03
:1031F00002DC6FF03B0109E09049B1F906103C296F
:1032000001DD3C2102E08D49B1F906108B4AD180E5
:103210001146B1F9081011F1500F02DC6FF04F01A7
:1032200009E08649B1F90810502901DD502102E07A
:103230008249B1F90810814A11818949C97909B1D6
:10324000012100E00021012907D18649898A7F4AAE
:1032500011808449C98A518017E08349D1ED0C1A45
:10326000FDEEE11A11EE901A09B2784A11807E49FA
:10327000D1ED0D1AFDEEE11A11EE901A09B251804E
:1032800003E00021714A118051806C490978E9BB43
:103290006A49B1F90210694AB2F90620891A01EEA9
:1032A000901AF8EEE11A714991ED002A31EEC22A26
:1032B000D1ED001ADFED642A42EE821AC1ED001A48
:1032C0005E49B1F90420B1F90810511A01EE901AC3
:1032D000F8EEE11A654991ED012A31EEC22AD1EDED
:1032E000011ADFED592A42EE821AC1ED011AD1ED21
:1032F000001A91ED022A31EEC22AD1ED021ADFED59
:10330000522A42EE821AC1ED021A00E019E0D1ED14
:10331000011A91ED032A31EEC22AD1ED031ADFED35
:103320004A2A42EE821AC1ED031AD1ED021A43492C
:10333000C1ED031A4D49D1ED031A4049C1ED041AFC
:1033400038E0DFED4B1A21EE212AF7EE002AC2EE1B
:10335000821AB7EE002A71EE821AF7EE002A82EE88
:10336000A12A3649D1ED031ADFED422A72EEE12A95
:10337000D1ED031A42EE221AC1ED031ADFED3C1A19
:1033800021EE212AF7EE002AC2EE821AB7EE002AB9
:1033900071EE821AF7EE002A82EEA12AD1ED041A0C
:1033A000DFED342A72EEE12AD1ED041A42EE221A40
:1033B000C1ED041A704701B526488078012811D163
:1033C0002D4890ED381AF0EE410A90ED371AB0EE24
:1033D000410A6846FFF7C1FE284881886846FFF722
:1033E00027FE02E001201549087008BD19B3134AF1
:1033F00092ED090ADFED140A20EE200AD2ED050A4B
:103400009FED1F1A01EE200AD2ED070A9FED0E1A5A
:1034100001EE200A82ED0B0A92ED0A0ADFED0A0A9C
:1034200020EE200AD2ED060A9FED151A01EE200AC1
:10343000D2ED080A26E02CE09C0000204814002071
:10344000A00000200AD7233CCDCC4C3E96000020A3
:103450006F12833A5C330020940000209A9919C0BF
:10346000D01600201C110020B81400207C1400206D
:103470009CC4A03F00000000740100201C03002039
:10348000CDCC4C3F1FED101A01EE200A82ED0C0A44
:1034900006E01FED080A034A82ED0C0A82ED0B0AD2
:1034A0007047000048140020B1F5FA7F06DA00EEFC
:1034B000101AB8EEC00AFD4A82ED000AFC4A92EDED
:1034C000030AFC4A82ED000AF84A92ED000ADFED99
:1034D000FA0A20EE200AF64AD2ED020A20EE200A6D
:1034E00082ED030A02784FF47A7393FBF2F200EE56
:1034F000102AB8EEC00AEE4AD2ED030AED4A92ED68
:10350000001A70EEC10A20EE200AE94A82ED040A90
:103510007047B0EE601A017801EE901AF8EE611A69
:103520009FEDE62A61EE821AF0EE610AE449097B1A
:1035300029B10021DE4A1170E24A11800EE0E14912
:103540000988B1F57A7F06DA0178DE4A12881144DB
:10355000DC4A118002E00121D54A1170D849098A5C
:10356000494209B2D24A5180D549097BF1B1DFED18
:10357000D61A60EE211AFDEEE11A11EE901A09B288
:1035800091801146B1F9041011F1500F02DC6FF077
:103590004F0109E0C649B1F90410502901DD50215D
:1035A00002E0C349B1F90410C14A9180C0490978C9
:1035B00059BBBF49B1F90210BD4AB2F90420891ABA
:1035C00001EE901AF8EEE11AC04991ED002A31EEB1
:1035D000C22AD1ED001ADFEDBE2A42EE821AC1EDF9
:1035E000001AD1ED001A91ED012A31EEC22AD1ED77
:1035F000011ADFEDB72A42EE821AC1ED011AD1EDB0
:10360000011AAB49C1ED021A1CE0DFEDB21A60EEFF
:10361000A11AB7EE002AC2EE212AF7EE001A72EEC6
:10362000A11AF7EE002A82EEA12AA149D1ED021AD1
:10363000DFEDA92A72EEE12AD1ED021A42EE221A3A
:10364000C1ED021A704701B59D488078022811D15A
:10365000A24890ED381AF0EE410A90ED371AB0EE1C
:10366000410A6846FFF755FF9D4881886846FFF785
:103670001BFF02E001208E49087008BD99490978B6
:1036800004297ED007DC79B1012921D0022941D05B
:1036900003296BD157E0052969D00C2968D00D2981
:1036A00067D01429F5D1F0E09FED8B0A804981EDB8
:1036B000070A9FED890A81ED050A9FED870A81EDD2
:1036C000060A0021884A11800121864A117032E1E0
:1036D0000021864A11707A49097B012905D19FEDA5
:1036E000840A734981ED050A13E07549097B0229B3
:1036F00002D17C4A11700CE07149097B032902D187
:10370000784A117005E06E49097B11B90021754AAC
:10371000117010E16A49097B022903D00121714A25
:1037200011700FE0714909780A2905DA6F490978A3
:10373000491C6E4A117005E000216C4A1170042189
:10374000684A1170F7E05E49097B032903D0012123
:10375000644A117014E0654909780A290ADA634954
:103760000978491C614A11700AE00AE0E2E025E0AC
:1037700041E065E000215D4A11700521594A117050
:10378000D9E0B2EE040A4A4981ED050A9FED520ADA
:1037900081ED060A5449098840F2DC52914206DA6A
:1037A0000178514A128811444F4A118005E00021E6
:1037B0004D4A11800C214B4A1170BCE0B2EE040A54
:1037C0003B4981ED050A9FED440A81ED060A464911
:1037D000098840F2DC52914206DA0178424A1288A6
:1037E0001144414A118005E000213F4A11800D211A
:1037F0003C4A11709FE0B3EE0E0A2D4981ED050A97
:103800009FED350A81ED060A9FED3A0A81ED070A20
:1038100035490988B1F57A7F06DA0178324A12888B
:103820001144314A11800AE09FED2B0A204981EDB5
:10383000070A00212C4A118014212A4A11707AE0CB
:10384000B3EE0E0A1A4981ED050A9FED230A81EDB8
:10385000060A9FED290A81ED070A23490988B1F577
:103860007A7F06DA0178204A128811441E4A1180B4
:103870000AE09FED190A0E4981ED070A00211A4A54
:1038800011801421174A117055E00178164A1288E8
:103890001144154A11801146098864292EDA0178ED
:1038A00012881144104A118043E00000B800002043
:1038B0008C140020BC0000200AD7233C6F12833AEE
:1038C0005C330020A80000209A9919C0AC000020A9
:1038D000CDCC4C3E9CC4A03F0000000074010020F1
:1038E0001C030020B4000020C2000020C000002003
:1038F000000048420000B4C20000B4423F490988B9
:10390000B1F5167F0FDA01783C4A128811443B4A20
:1039100011801FED090A3A4981ED050A1FED120ACF
:1039200081ED060A05E00021344A11800121354A63
:10393000117000E000BF00BF704710B504460B4691
:10394000CBB32F4890ED030ADFED2F0A20EE200ABB
:10395000D0ED040A9FED2D1A01EE200A80ED060A33
:103960002B48007B01282ED12948B0F90E00404297
:1039700000EB4000400000EE100AB8EEC00A2048FC
:1039800080ED070A90ED070ADFED220AB4EEE00AA7
:10399000F1EE10FA02D89FED1F0A10E0184890EDE2
:1039A000070ADFED1D0AB4EEE00AF1EE10FA03DDBE
:1039B0009FED190A03E00FE0114890ED070A104847
:1039C00080ED070A04E01FED3C0A0D4880ED070A70
:1039D0002046FFF753FE0FE01FED410A084880ED37
:1039E000050A1FED430A80ED060A1FED450A80ED2A
:1039F000070A00200349087010BD0000C200002023
:103A00008C140020B4000020CDCC4C3FCDCC4C3DDC
:103A10005C3300200000C8C20000C84290ED002ABC
:103A2000DFEDFC2A22EE222AF7EE002A82EE823A0D
:103A3000B7EE002A33EE022AB7EE003AC3EE022AAE
:103A4000F54991ED002A30EE423A91ED002A02EE5E
:103A5000832A81ED002A90ED002ADFEDEE2A22EE86
:103A6000222AF7EE002A82EE823AB7EE002A33EEDF
:103A7000022AB7EE003AC3EE022A91ED012A30EE97
:103A8000C23A91ED012A02EE832A81ED012A91EDDD
:103A9000002ADFEDE22A22EE222AE14981ED002A06
:103AA000DD4991ED012ADFEDDD2A22EE222ADC49F3
:103AB00081ED012A90ED002ADFEDD62A62EE222A5E
:103AC000B7EE003A83EE222AF7EE002A32EE222ADF
:103AD000B7EE003AC3EE022AD24991ED082A31EE40
:103AE000423A91ED082A02EE832A81ED082A90EDF0
:103AF000002ADFEDC82A22EE222AB7EE003AC3EEF2
:103B0000022AB7EE002A32EE822AB7EE003AC3EE5E
:103B1000022A91ED092A31EEC23A91ED092A02EE0C
:103B2000832A81ED092A002117E0BE4A283202EBE0
:103B3000810292ED002ABB4A203202EB8102D2EDD3
:103B4000002A90ED003A02EE832AB64A283202EBB0
:103B5000810282ED002A4A1CD1B20229E5DB7047BE
:103B600010B502460023B0480078B04C2478A0423B
:103B70003FD0AE480078AC4C20708B78032003E037
:103B80000C5C6340441CE0B20C28F9DB087B9842D3
:103B900026D1A7480078401CA54C2070887A207256
:103BA0002046007AF52803D00020A08060800DE038
:103BB00008794C7940EA042000B29D4C60808878F6
:103BC000CC7840EA042000B2994CA0808879CC7966
:103BD00040EA04204FF47A7490FBF4F0944CE080B7
:103BE0009FED940A944880ED000A0120904C60708B
:103BF00015E0914890ED000AF7EE000AB4EEE00AF5
:103C0000F1EE10FA08D292ED000AD0ED000A30EE83
:103C1000200A80ED000A02E00020854C607010BD93
:103C200010B52DED020B85496846FFF799FF8448D2
:103C300090ED142AF0EE421A90ED132AB0EE421ADB
:103C4000804890ED0B2AF0EE420A90ED0A2AB0EE81
:103C5000420A6846FFF7E2FE1CBD002010E09FED1F
:103C6000750A7049283101EB800181ED000A9FED52
:103C7000710A754901EB800181ED000A411CC8B24F
:103C80000228ECDB704770B52DED028B05460C4623
:103C9000287800EE100AB8EE400ADFED6C0A20EE3C
:103CA000200AB0EE408A142C01DC142006E0B4F5A2
:103CB000FA7F02DD4FF4FA7000E0204600EE100AB1
:103CC000B8EEC00A574880ED010A90ED020ADFED18
:103CD000600A20EE200AD0ED010A20EE200A80EDD5
:103CE000040A90ED030ADFED5A0A20EE200AD0ED17
:103CF000010A20EE200A80ED050A00F11802504961
:103D00003431103001F05BFB4648007810B10128D7
:103D10007DD10FE0012043490870B0EE000A4D4804
:103D200080ED000AB7EE000A4B4880ED000AFFF76D
:103D300094FFAFE03E48007AF52869D100209CE06E
:103D40003849183101EB800191ED000A35492831DD
:103D500001EB8001D1ED000A30EE600A3F4901EB32
:103D6000800181ED000A384901EB800191ED000AE4
:103D70003A4901EB8001D1ED000A374991ED001A73
:103D800060EE810A00EE880A2F4901EB800181ED87
:103D9000000A2D4901EB800191ED000ADFED300AA8
:103DA000B4EEE00AF1EE10FA02D89FED2D0A13E00E
:103DB000254901EB800191ED000ADFED2A0AB4EEFE
:103DC000E00AF1EE10FA02DD9FED260A04E01E493A
:103DD00001EB800191ED000A1B4901EB800181EDAF
:103DE000000A194901EB800191ED000A1B4901EB22
:103DF0008001D1ED000A174991ED001A00EE810A09
:103E00000849283101EB8001D1ED000A2CE03EE0A9
:103E100036E000003433FB41E0000020E12E654233
:103E2000C8000020B8140020C4000020AB0400200B
:103E3000AC14002000000000E800002076330020D1
:103E400074010020B8170020D80000206F12833AB8
:103E500082A8FB38EC000020F0000020D0000020F9
:103E60000000C8C20000C84240EE080A534901EBF6
:103E70008001C1ED000A411CC8B20228FFF660AF04
:103E80004E4A08324E494D4801F07AFA02E0FFF7F7
:103E9000E4FE00BF00BFBDEC028B70BD0146494887
:103EA000007AF52812D01FED1D0A4448283880ED0D
:103EB000030A80ED020A4078052843DB3F48283892
:103EC0004078401F3D4A283A50703BE03D48C0884A
:103ED0004FF47A7292FBF0F03A4AB2F90220504362
:103EE00000EE100AB8EEC00A3748D0ED010A9FED87
:103EF000371A01EE200A3148283880ED020A31488D
:103F0000C0884FF47A7292FBF0F02E4AB2F9042086
:103F1000504300EE100AB8EEC00A2B48D0ED000A5C
:103F20009FED2A1A01EE600A2448283880ED030A22
:103F30004078FA2806DC214828384078401D1F4A7E
:103F4000283A507070472248007C48B11B482838F6
:103F50000078012817D1002018492839087012E08C
:103F6000164828384078642804DA00201349283994
:103F7000087008E0114828384078C82803DD01207F
:103F80000E49283908700F48407830B11148007840
:103F900018B101201049087202E000200E49087291
:103FA000704701B5FFF7CFFF6846FFF777FF0B4873
:103FB00001886846FFF767FE08BD0000E014002096
:103FC000A8010020AC140020C800002000002043FD
:103FD00090020020A0040020D0160020A20400209F
:103FE00000B58DB0AA200390AF200290012001906F
:103FF00024200090002016E03A4901EB800191ED69
:10400000000A394901EB800181ED000A3549183970
:1040100001EB800191ED000A33490C3101EB800185
:1040200081ED000A401C0328E6DB304890ED370A9A
:104030002D4880ED060A2D4890ED380A2A4880ED7B
:10404000070A2A4890ED390A274880ED080A0246F7
:1040500007CA04AB07C3244A0C3207CA07AB07C31D
:10406000214A183207CA0AAB07C3012103A808F086
:10407000CAFB012101A808F0C6FB0121684608F02F
:10408000C2FB242104A808F0BEFB012102A808F00D
:10409000BAFB0DB000BD77B583B014469DF8105043
:1040A000284617F02BF90646AA200290AF2001906F
:1040B000012102A808F0A7FB012103A808F0A3FB37
:1040C000012104A808F09FFB9DF81010204608F07D
:1040D0009AFB012101A808F096FB304617F0E6F89C
:1040E00006B070BDC434002000150020740100200B
:1040F000524890ED3F0A524880ED010A4F4890ED3A
:10410000400A4F4880ED020A9FED4E0A80ED030AF7
:104110004A4890ED410A4A4880ED040A9FED490A59
:1041200080ED050A454890ED4E0A474880ED000AAB
:10413000704710B52DED028BB0EE408A4348C07C2D
:10414000022846D1404890ED000A414880ED000A1F
:104150004048408800EE100AB8EE400A3E4880ED24
:10416000000AF2EE042A9FED3D2A3D4934483A4ABE
:10417000D2ED001A364A92ED001ADFED320AB0EEA7
:10418000480A02F037FC364890ED090A354880EDC0
:10419000000AD0ED000ABAEE0E1AF4EEC10AF1EEF2
:1041A00010FA02D8FAEE0E0A0FE02E48D0ED000AFF
:1041B000B3EE041AF4EEC10AF1EE10FA02DDF3EEEA
:1041C000040A02E02748D0ED000AB0EE600AFEF7CC
:1041D00062FEBDEC028B10BD10B52DED048BB0EE70
:1041E000408A18EE100A16F008FE41EC190B9FEDFC
:1041F0001E0B53EC102B16F013FE05D29FED1C0A7C
:10420000114880ED000A15E018EE100A16F0F5FDD1
:1042100041EC190B9FED170B53EC102B16F018FE09
:1042200005D29FED160A084880ED000A02E0064814
:1042300080ED008ABDEC048B10BD0000881C0020BE
:104240002415002000000000F4000020A416002027
:10425000F80000201C030020FC0000200000484261
:104260003C150020000100209A9999999999D93F0D
:10427000CDCCCC3ECDCCCCCCCCCCFC3F6666E63FA6
:1042800010B53B480078002864D03A48C07C02282A
:1042900060D1394890ED001ADFED381AB4EEE11A1A
:1042A000F1EE10FA02D89FED351A0FE0324890ED8A
:1042B000001ADFED331AB4EEE11AF1EE10FA02DD66
:1042C0009FED2F1A02E02C4890ED001AF0EE410A03
:1042D0002C4890ED001ADFED291AB4EEE11AF1EE48
:1042E00010FA02D89FED251A0FE0264890ED001A2B
:1042F000DFED231AB4EEE11AF1EE10FA02DD9FEDC4
:10430000201A02E01F4890ED001AB0EE410AFEF7B5
:10431000ADFD1D48D0ED000ABBEE0E1AF4EEC10A49
:10432000F1EE10FA02D8FBEE0E0A0FE01648D0EDBF
:10433000000AB3EE0E1AF4EEC10AF1EE10FA02DD35
:10434000F3EE0E0A02E01048D0ED000AB0EE600A6B
:10435000FEF7C4FD10BD0B4880ED000A0648C0ED15
:10436000000A094880ED001A70470149087070473B
:1043700004010020A41600200C01002000000CC243
:1043800000000C420801002010010020FEB5064686
:104390000D461446012E06D0022E16D0032E15D03F
:1043A000042E15D113E00C2D0ED120680290606808
:1043B0000190A06800909DED001ADDED010A9DEDD1
:1043C000020AFFF7C8FF00BF02E001E000E000BF03
:1043D00000BFFEBD10B5044625480078052845D22B
:1043E000DFE800F003090F183100AA2C02D10120E8
:1043F0001F4908703AE01F48047002201C490870E9
:1044000034E01D48047003201949087000201B493E
:1044100008702BE01948007817490978884208DAB3
:10442000174816490978445414480078401C134929
:1044300008701248007810490978884202D1042097
:104440000B49087012E0AF2C06D10D4A0A480178DA
:1044500008480078FFF79AFF0020074908700449D0
:104460000870064908700349087000BF00BF10BDFE
:104470001401002015010020160100201701002062
:104480006415002010B504461B48B0F9440040F202
:104490009E7188420DDD1948008820441749088024
:1044A0000846008840F6B83188420BD103F0A5FCDD
:1044B00008E012480088002804DD00200F49088029
:1044C00003F0AAFC0C48B0F9460040F29E71884205
:1044D00008DD0B480088204409490880012009496B
:1044E000087008E006480088002804DD0020044920
:1044F00008800449087010BDA03300201801002076
:104500001A0100205C0100205C4890ED420A5C48E2
:1045100080ED010A594890ED430A594880ED020A9E
:104520009FED580A80ED030A544890ED440A544820
:1045300080ED040A9FED530A80ED050A4F4890ED87
:10454000450A514880ED010A4C4890ED460A4E4814
:1045500080ED020A9FED4B0A80ED030A474890ED7B
:10456000470A494880ED040A9FED460A80ED050A96
:10457000704710B52DED028BB0EE408A4348C07CE9
:10458000002870D04248007800286CD0F2EE042A4F
:104590009FED402A40493A48DFED3A1A3F4A92EDF2
:1045A000001ADFED380AB0EE480A02F023FAF2EE04
:1045B000042A9FED382A3A493348DFED321A394A46
:1045C00092ED001ADFED2F0AB0EE480A02F012FA5F
:1045D000314890ED090A344880ED000A304890EDEA
:1045E000090A324880ED000A90ED001AFAEE041A2A
:1045F000B4EEE11AF1EE10FA02D8BAEE041A0FE0A6
:104600002A4890ED001AF2EE041AB4EEE11AF1EE27
:1046100010FA02DDB2EE041A02E0244890ED001A0E
:10462000F0EE410A204890ED001AFAEE041AB4EEBA
:10463000E11AF1EE10FA02D8BAEE041A0FE01A48A5
:1046400090ED001AF2EE041AB4EEE11AF1EE10FA4F
:1046500002DDB2EE041A02E0134890ED001AB0EE4B
:10466000410AFEF703FCBDEC028B10BD0B4880ED48
:10467000000A0C48C0ED000A70470000881C0020AA
:10468000AC15002000000000C4150020A416002076
:104690001C01002000004842DC1500202001002001
:1046A0000416002024010020280100202C010020F5
:1046B000714890ED480A714880ED010A6E4890ED0E
:1046C000490A6E4880ED020A9FED6D0A80ED030AEB
:1046D000694890ED4A0A694880ED040A9FED680A2E
:1046E00080ED050A674890ED390A674880ED000AB9
:1046F000704705E0DFED650A70EE600AB0EE600A13
:10470000DFED630AB4EEE00AF1EE10FAF2DC05E048
:10471000DFED5E0A70EE200AB0EE600ADFED5D0AA2
:10472000B4EEE00AF1EE10FAF2D37047B0EE401AA0
:1047300071EE601AB0EE610ADFED551AB4EEE10ACF
:10474000F1EE10FA06DDDFED511A70EE611AB0EEEF
:10475000610A0CE0DFED4F1AB4EEE10AF1EE10FA57
:1047600005D2DFED4A1A70EE211AB0EE610A7047E9
:1047700010B52DED028BB0EE408A4748C07C022870
:1047800057D146480078E0B33F4890ED000AFFF764
:10479000B0FF434880ED000A3A48D0ED390AB0EE48
:1047A000600AFFF7A6FF3F4880ED000AD0ED000A3F
:1047B000354890ED000AFFF7B9FF3B4880ED000A4D
:1047C000F2EE042A9FED392A39492C48DFED2C1AE4
:1047D000354A92ED001ADFED2A0AB0EE480A02F0DF
:1047E00009F9334890ED090A324880ED000AD0ED0E
:1047F000000ABBEE0E1AF4EEC10AF1EE10FA04D86C
:1048000000E016E0FBEE0E0A0FE02A48D0ED000AA9
:10481000B3EE0E1AF4EEC10AF1EE10FA02DDF3EE79
:104820000E0A02E02348D0ED000AB0EE600AFEF75F
:1048300055FBBDEC028B10BD05E0DFED140A70EEF8
:10484000600AB0EE600ADFED120AB4EEE00AF1EEA3
:1048500010FAF2DC05E0DFED0D0A70EE200AB0EE92
:10486000600ADFED0C0AB4EEE00AF1EE10FAF2D3C2
:10487000054880ED000A7047881C00202C16002097
:104880000000000074010020300100200000B4434B
:1048900000003443000034C3A4160020400100206F
:1048A00034010020380100203C0100200000484273
:1048B000441600204401002070B588B0044600254D
:1048C000002620780006617840EA0140A17840EA9D
:1048D0000120E17840EA010520790006617940EA8B
:1048E0000140A17940EA0120E17940EA0106314620
:1048F000284600F0F5F82B4648A2182102A8009699
:1049000016F0F4FB02AB0222AF210520FCF7ECFC11
:1049100008B070BD0178012902D0022902D100E05F
:1049200000E000BF00BF4178102904D0112903D056
:10493000122903D101E001E000E000BF00BF704791
:1049400070B504460E461546012C02D0022C08D143
:1049500003E02846FFF7DEFF03E02846FFF7ACFF41
:1049600000BF00BF70BD01B50121684608F01BF80B
:104970002E48007805284FD2DFE800F0030B131E05
:1049800039009DF80000AA2802D1012027490870AB
:1049900042E09DF800002649087002202349087073
:1049A0003AE09DF800002349087000202249087071
:1049B00003201E4908702FE01F4800781D49097820
:1049C00088420ADA9DF800001C491B4A1278885474
:1049D00019480078401C1849087017480078154994
:1049E0000978884202D104201049087014E09DF82B
:1049F0000000AF2806D1114A0E4801780C48007813
:104A0000FFF79EFF00200B490870084908700A490B
:104A100008700749087000BF00BF08BD583A20253C
:104A2000642C20593A202564000000004801002031
:104A3000490100204A0100204B0100206C16002093
:104A400010B52DED028BB0EE408A2A48007801287F
:104A500007D12948C07C022803D1B0EE480AFFF7ED
:104A600088FDBDEC028B10BD10B52DED048B2348E5
:104A700090ED000AB8EEC00A10EE100A16F0BDF96B
:104A800041EC190B9FED1E0B53EC102B16F013F994
:104A900041EC180B16F0F4F91B4908601B4890ED27
:104AA000000AB8EEC00A10EE100A16F0A6F941ECA2
:104AB000190B9FED130B53EC102B16F0FCF841EC87
:104AC000180B16F0DDF9124908600846D0ED000A0F
:104AD0000D4890ED000AFFF7C9FDBDEC048B10BD39
:104AE00070B505460C460548056008480460FFF7A8
:104AF000BBFF70BD5C010020A41600204C0100200B
:104B0000D34D62105839D43F540100205001002089
:104B1000580100200748C07A08B9012000E00020B1
:104B20000549087001204870704710B505F0E7FF8F
:104B300010BD0000A41600201604002090ED031AFA
:104B4000B5EEC01AF1EE10FA20DD90ED051AD0EDA9
:104B5000031AF1EE611AB4EEE11AF1EE10FA04D87C
:104B600090ED031AB1EE411A0DE090ED051AD0ED6B
:104B7000031AB4EEE11AF1EE10FA02DD90ED031A19
:104B800001E090ED051AF0EE410A01E0D0ED050AD2
:104B900090ED001A31EE201A80ED061A90ED011A00
:104BA000D0ED061A31EE611AD0ED021A21EE211A6B
:104BB00080ED041A90ED051AD0ED041A01EE801A6A
:104BC00080ED051A7047D0ED000A90ED041A30EE22
:104BD000811AD0ED050A41EE000AC0ED050AD0EDBC
:104BE000010A90ED051A70EEC10A90ED021A60EE0E
:104BF000810AC0ED040AD0ED030AF5EEC00AF1EE19
:104C000010FA1FDDD0ED040A90ED031AB1EE411A3F
:104C1000F4EEC10AF1EE10FA04D8D0ED030AF1EE79
:104C2000600A0DE0D0ED040A90ED031AF4EEC10A1B
:104C3000F1EE10FA02DDD0ED030A01E0D0ED040A36
:104C4000C0ED040A7047F0EE401A9FEDFC2A20EEFA
:104C5000822A22EE212AB7EE003AC3EE022AB7EEEC
:104C6000002A32EE822AB7EE003AC3EE022A90ED15
:104C7000002A31EE423A90ED002A02EE832A80EDBE
:104C8000002AB5EEC01AF1EE10FA02DDB0EE412AAC
:104C900001E0B1EE412AB0EE420A90ED002AF1EEB9
:104CA000402AB4EEE22AF1EE10FA02D8B1EE402A20
:104CB0000BE090ED002AB4EEC02AF1EE10FA02DD0E
:104CC000B0EE402A01E090ED002A80ED012A704705
:104CD000F0EE401A9FEDD92A20EE822A22EE212AF8
:104CE000B7EE003AC3EE022AB7EE002A32EE822A6D
:104CF000B7EE003AC3EE022A90ED002A31EE423AB6
:104D000090ED002A02EE832A80ED002A90ED002A21
:104D1000B5EEC02AF1EE10FA02DD90ED002A03E0B4
:104D200090ED002AB1EE422AB0EE420AB1EE402ADE
:104D3000B4EEC21AF1EE10FA02D8B1EE402A09E040
:104D4000B4EEC01AF1EE10FA02DDB0EE402A01E036
:104D5000B0EE412A80ED012A7047F0EE401A9FED37
:104D6000B72A20EE822A22EE212AB7EE003AC3EEBD
:104D7000022AB7EE002A32EE822AB7EE003AC3EEDC
:104D8000022A90ED002A31EE423A90ED002A02EE1E
:104D9000832A80ED002AB5EEC01AF1EE10FA02DD8A
:104DA000B0EE412A01E0B1EE412AB0EE420A90EDA8
:104DB000002AF1EE402AB4EEE22AF1EE10FA02D80F
:104DC000B1EE402A0BE090ED002AB4EEC02AF1EEDD
:104DD00010FA02DDB0EE402A01E090ED002A80EDED
:104DE000002A80ED012A70472DE9F84F04460D4650
:104DF000DDF828804FF001094FF0000A0126B34684
:104E0000CDF800B00127DFED8E0AB0EE600A002079
:104E10008446D2F808B0C2F80CB092F800B00BF19A
:104E2000010B0BF0FF0B82F800B0AB4502DB8346B1
:104E300082F800B092F800B044F82B80D2F80CB0A1
:104E4000A8EB0B0B00EE90BAB8EEE01A00EE903A29
:104E5000F8EE600AC1EE201AB0EE610AB5EEC00AA3
:104E6000F1EE10FA02DDF0EE400A01E0F1EE400A48
:104E7000B7EE001AF4EEC10AF1EE10FA2BD2B5EE3D
:104E8000C00AF1EE10FA02DDB0EE401A01E0B1EE18
:104E9000401A00EE903AF8EE600A61EE200AB0EE99
:104EA000001AF4EEC10AF1EE10FA04D2DFED640A42
:104EB000B0EE600A0FE0B5EEC00AF1EE10FA02DDC6
:104EC0004FF0010B01E04FF0FF3B00EE90BAF8EE1F
:104ED000E00AB0EE600AD06800BF00210DE054F88F
:104EE00021B0ABEB000B54F821E0AEEB000E0BFB56
:104EF0000ECC01F1010B0FFA8BF1A942EFDBD2F8D6
:104F000004B0ACEB0B0BBBF1000F11DDB9F1000FDE
:104F100003D14FF0000BCDF800B04FF00109012F85
:104F200002D14FF0FF3B01E04FF0010B5F4607E07D
:104F30004FF000099E4203DA06F1010B0BF0FF0669
:104F4000C2F804C04FF0000C00EE900AB8EEE01A70
:104F500000EE907AF8EEE00A00EE801AFDEEC10A4B
:104F600010EE900A0AF1010B0BF0FF0BDA469B459D
:104F700002DDE346CDF800B0022E03DB4FF0000B5C
:104F8000CDF800B0DDF800B0BBF1010FA5D0906006
:104F9000D2E902BEABEB0E0BC2F810B0BDE8F88F41
:104FA00070B505460C461678761CF6B21670A64209
:104FB00001DB00261670167805EB860686ED000AE2
:104FC000002009E005EB800696ED001A03EB800651
:104FD00086ED001A461CF0B2A042F3DB002029E067
:104FE000002121E003EB810696ED001A4E1C03EB35
:104FF0008606D6ED001AB4EEE11AF1EE10FA11DDD4
:105000004E1C03EB8606D6ED000A03EB810696EDF7
:10501000001A4E1C03EB860686ED001A03EB810690
:10502000C6ED000A4E1CF1B2661E361A8E42D9DC5D
:10503000461CF0B2661E8642D2DC70BDC3F5C84085
:105040000000000030B50C4615886D1CADB215800F
:10505000A54201DB00251580158800EB8505D5EDFF
:10506000000A158800EB850585ED000A70EE601AD0
:1050700001EE104AB8EE412A81EE821AD3ED001AF1
:1050800031EE211A83ED001A93ED001AD3ED001AC8
:1050900070EE611ABFEE002AF4EEC21AF1EE10FAB9
:1050A00002D8FFEE001A11E0D3ED001A70EE611A7B
:1050B000B7EE002AF4EEC21AF1EE10FA02DDF7EEB6
:1050C000001A03E0D3ED001A70EE611A9FEDA82AD2
:1050D00002EE211A83ED001A30BD5FED281A60EE52
:1050E000211A21EEA02AF7EE002AC2EE821AB7EEAC
:1050F000002A71EE821AF7EE002A82EEA12AD0ED84
:10510000001A71EE612AD0ED001A42EE221AC0EDAB
:10511000001A704770B52DED0A8BB0EE408AF0EEA4
:10512000608AB0EE419AF0EE619A044694ED001B5D
:10513000B0EE410AF0EE610A53EC102B51EC190B62
:1051400015F0B3FD41EC1B0B1FED440A28EE000ADD
:1051500020EE280AB7EE001AC1EE000AB7EE000AE8
:1051600030EE800AF7EE000A80EE801A11EE105A37
:10517000284615F042FE41EC1C0B53EC1B2B15F09E
:105180009AFD41EC1A0B94ED001BB0EE410AF0EED3
:10519000610A53EC102B15F0E7FCC4E90001BDECEB
:1051A0000A8B70BD90ED001A30EEC11AB4EEC01A31
:1051B000F1EE10FA06DD90ED001A31EE001A80EDE6
:1051C000001A13E090ED001A30EEC11AF1EE401A09
:1051D000B4EEE11AF1EE10FA06D290ED001A31EEBB
:1051E000401A80ED001A01E0C0ED000A7047B0EEF1
:1051F000402A1FED6E0A20EE800A20EE020AB7EE6A
:10520000003AC3EE002AB7EE000A32EE800AB7EE8B
:10521000003AC3EE002A90ED000A31EE403A90EDDC
:10522000000A02EE830A80ED000A90ED000AF1EE1A
:10523000612AB4EEE20AF1EE10FA02D8B1EE610A88
:105240000BE090ED000AB4EEE10AF1EE10FA02DD97
:10525000B0EE610A01E090ED000A80ED000A90EDE9
:10526000000A31EE400A704770B504460D461646F6
:10527000D4ED020A60EEA00A94ED011AD4ED011AF1
:1052800041EE210AB0EE600A00F038FF394880EDA7
:10529000000AD4ED020A60EEA00A94ED001AD4EDE3
:1052A000001A41EE210AB0EE600A00F027FF3248F2
:1052B00080ED000A94ED020AB5EEC00AF1EE10FA94
:1052C00002D24FF0FF3000E001202C49087095ED2C
:1052D000000A2848D0ED000A60EE200A94ED001A7A
:1052E000084690F9000000EE100AB8EEC00A21EE60
:1052F000000A95ED021A40EE410AC6ED000A084682
:1053000090F9000000EE100AB8EEC00A1A48D0ED7D
:10531000000A20EE200AD5ED010A20EE200AD4ED85
:10532000010A95ED021A00EEC10A86ED010A94ED1C
:10533000000AD5ED000A20EE200AD4ED010A95ED11
:10534000011A00EE810AD4ED020A95ED021A00EE70
:10535000810A86ED020A70BD70B504460D461646F8
:10536000324629462046FFF77FFF70BD7047000098
:10537000ACC527376C0100207001002068010020B7
:1053800090ED000AD1ED000A20EE200AD0ED010ACE
:1053900091ED011A00EE810A82ED000A90ED000AFB
:1053A000D1ED010AF1EE600A20EE200AD0ED010AEB
:1053B00091ED001A00EE810A82ED010A704790ED2E
:1053C000000AD1ED000A20EE200AD0ED010A91ED8D
:1053D000011AB1EE411A00EE810A82ED000A90ED49
:1053E000000AD1ED010A20EE200AD0ED010A91ED6C
:1053F000001A00EE810A82ED010A704730B50246BC
:105400000B46002022E0DFEDFE0AB0EE600A00212C
:1054100014E000EB4004FB4D05EB840404EB810435
:1054200094ED001A02EB8104D4ED001AF0EE400A6C
:1054300041EE810AB0EE600A4C1CE1B20329E8DBC0
:1054400003EB800181ED000A411CC8B20328DADBBE
:1054500030BD2DE9F0412DED068B86B0F0EE409A7F
:105460000546884617461E46129C94ED000AD4ED68
:10547000010A20EE200AE44880ED000A94ED000ABB
:10548000D4ED020A20EE200AE04880ED000A94EDF7
:10549000010A20EE000ADE4880ED000A94ED010AC0
:1054A000D4ED030A20EE200ADA4880ED000A94EDDC
:1054B000020A20EE000AD84880ED000A94ED020AA4
:1054C000D4ED030A20EE200AD44880ED000A94EDC2
:1054D000030A20EE000AD24880ED000A94ED010A8A
:1054E000D4ED020A20EE200ACE4880ED000A94EDA9
:1054F000000AD4ED030A20EE200ACB4880ED000A12
:10550000287DE8B300203DE0002100EE101A00BF26
:1055100018E001EB4102BB4B03EB820202EB80027D
:1055200092ED001A04F17C0202EB8102D2ED001A26
:10553000F8EEC00A41EE810AFDEEE00AB0EE600A24
:105540004A1CD1B20329E4DBF8EEC00A04F1880159
:1055500001EB8001C1ED000A07EB8001D1ED000AEB
:1055600004F1880101EB800191ED001A70EEC10A8F
:1055700004F1940101EB8001C1ED000A411C00E03F
:1055800003E0C8B20328BFDB0FE000200BE007EB0D
:10559000800191ED000A04F1940101EB800181ED9D
:1055A000000A411CC8B20328F1DBD4ED250A60EEE5
:1055B000A00A94ED261AD4ED261A41EE210A94EDA4
:1055C000271AD4ED271A41EE210AB0EE600A00F046
:1055D0006FFDF0EE408AF5EEC08AF1EE10FA02D1CE
:1055E0009FED870A03E0F7EE000A80EEA80AB0EE0E
:1055F00040AA00200EE004F1940101EB800191ED3E
:10560000000A20EE280A03A901EB800181ED000ABF
:10561000411CC8B20328EEDB7F4890ED000AF0EE93
:10562000000A20EE200A7E48D0ED000AB0EE001AF3
:1056300001EE200AF7EE000A30EEC00A84ED040AFB
:10564000704880ED000A774890ED000AF0EE000AFD
:1056500020EE200A7448D0ED000AB0EE001A01EEE8
:10566000600A84ED050A674880ED010A694890EDFB
:10567000000AF0EE000A20EE200A6448D0ED000A8D
:10568000B0EE001A01EE200A84ED060A5D4880EDB6
:10569000020A644890ED000AF0EE000A20EE200AAB
:1056A0006148D0ED000AB0EE001A01EE200A84ED48
:1056B000070A544880ED030A554890ED000AF0EEC1
:1056C000000A20EE200A5648D0ED000AB0EE001A7B
:1056D00001EE200AF7EE000A30EEC00A84ED080A57
:1056E000484880ED040A4D4890ED000AF0EE000AAB
:1056F00020EE200A4448D0ED000AB0EE001A01EE78
:10570000600A84ED090A3F4880ED050A414890EDA2
:10571000000AF0EE000A20EE200A3C48D0ED000A14
:10572000B0EE001A01EE600A84ED0A0A354880EDF9
:10573000060A3A4890ED000AF0EE000A20EE200A30
:105740003148D0ED000AB0EE001A01EE200A84EDD7
:105750000B0A2C4880ED070A2D4890ED000AF0EE68
:10576000000A20EE200A2C48D0ED000AB0EE001A04
:1057700001EE200AF7EE000A30EEC00A84ED0C0AB2
:10578000204880ED080AD0ED000A60EEA00A90EDF6
:10579000031AD0ED031A41EE210AB0EE600A00F0C0
:1057A00087FCB0EE409A174890ED000A20EE090AF7
:1057B00084ED0D0A90ED030A20EE090A84ED0E0A2D
:1057C000002019E007EB800191ED000A04F12801A7
:1057D00001EB8001D1ED000A9FED141A01EE600A81
:1057E000BDEEC00AB8EEC00A04F1400101EB800131
:1057F00081ED000A411CC8B20328E3DB002041E030
:1058000000000000DC1600205C0200206002002086
:1058100064020020680200206C0200207002002058
:1058200074020020780200207C02002000407544B1
:10583000002100EE101A00BF18E000EB4002F84B08
:1058400003EB820202EB810292ED001A04F14002A6
:1058500002EB8102D2ED001AF8EEC00A41EE810A95
:10586000FDEEE00AB0EE600A4A1CD1B20329E4DB87
:10587000F8EEC00A04F14C0101EB8001C1ED000A11
:10588000411CC8B20328D3DB04F15802E54904F1F6
:105890004C00FFF775FD9DED040AD4ED0C0A20EED7
:1058A000200AD4ED0B0A9DED051A00EEC10ADE4870
:1058B00080ED000A9DED030AD4ED0C0A20EE200ACB
:1058C000D4ED0A0A9DED051A10EE810A80ED010A59
:1058D0009DED040AD4ED0A0A20EE200AD4ED0B0A4D
:1058E0009DED031A10EE810A80ED020A00200CE003
:1058F00036F9101000EE101AB8EEC00ACB4901EBD1
:10590000800181ED000A411CC8B20328F0DB308819
:1059100018B9708808B9B088E8B304F16401C348C5
:10592000FFF76CFDD4ED190A60EEA00A94ED1A1A87
:10593000D4ED1A1A41EE210AB0EE600A00F0B8FB6D
:10594000F0EE40AA94ED190A20EE2A0AB84880ED3C
:10595000020A94ED1A0A20EE2A0A80ED030A014693
:10596000083000F0ADFEB34880ED000AB04901F107
:10597000080000F0B2FEB04880ED000A90ED000A89
:10598000B5EEC00AF1EE10FA26D2AA4890ED000A50
:10599000DFEDAA0A00E020E0B4EEE00AF1EE10FA32
:1059A00001DD01200DE0A34890ED000ADFEDA40A1F
:1059B000B4EEE00AF1EE10FA02D24FF0FF3000E050
:1059C000002000EE100AB8EEC00AF7EE000A20EE42
:1059D000200A984880ED000A00BF00207CE09FED7F
:1059E000990AB4EEC0AAF1EE10FA06DC9FED960A11
:1059F000B4EEC0AAF1EE10FA08D21FED7F0A8A4970
:105A000081ED020A81ED010A81ED000A8F4901EB67
:105A1000800191ED000A844901EB8001D1ED000A7B
:105A20009FED8B1AF4EEC10AF1EE10FA02D8DFED09
:105A3000880A13E07C4901EB8001D1ED000A9FED5B
:105A4000851AF4EEC10AF1EE10FA02DDDFED810AEB
:105A500004E0754901EB8001D1ED000A60EEA90A6E
:105A60007D4991ED001A00EE810A784901EB800131
:105A700081ED000A6C4901EB800191ED000A734948
:105A800001EB8001D1ED000A70EE200A08EB8001E5
:105A900091ED000A714991ED001A00EE810A04F1BE
:105AA000280101EB8001D1ED000A624991ED001A55
:105AB00060EE810A6A4991ED001A00EE810A20EE3B
:105AC000290AF0EE000A80EE201A694601EB8001F7
:105AD00081ED001A411CC8B2032880DB94ED000A56
