:020000040800F2
:100000006040002065910108A10100086F9101087E
:10001000A3010008A7010008AB01000800000000D0
:10002000000000000000000000000000AF01000818
:10003000B1010008000000007B9101081DC6000806
:100040007F9101087F9101087F9101087F9101084C
:100050007F9101087F9101087F9101087F9101083C
:100060007F9101087F9101087F9101087F9101082C
:100070007F9101087F9101087F9101087F9101081C
:100080007F9101087F9101087F9101087F9101080C
:100090007F9101087F9101087F910108B301000859
:1000A0007F9101087F9101087F9101087F910108EC
:1000B0007F910108C5010008CD0100087F9101086A
:1000C0007F9101087F9101087F9101087F910108CC
:1000D0007F910108CF010008D7010008DF01000867
:1000E0007F9101087F9101087F9101087F910108AC
:1000F0007F9101087F9101087F9101087F9101089C
:100100007F9101087F9101087F9101087F9101088B
:10011000E7010008EF0100087F9101087F910108C5
:100120007F9101087F9101087F9101087F9101086B
:100130007F9101087F9101087F9101087F9101085B
:100140007F9101087F9101087F910108F9E600087D
:100150007F9101087F9101087F910108F701000854
:100160007F9101087F9101087F9101087F9101082B
:100170007F9101087F9101087F9101087F9101081B
:100180007F9101087F910108DFF810D01AF080FEFE
:1001900000480047F1030008AFF3008060400020F2
:1001A000704700BFFEE700BFFEE700BFFEE77047F5
:1001B000704710B5802012F072FC10B1802012F050
:1001C000C4FC10BD10B510F020F810BD704710B57C
:1001D0000CF08CFA10BD10B50CF049FB10BD10B539
:1001E0000CF015FC10BD10B50CF0E8FC10BD10B5FE
:1001F0000CF0B1FD10BD10B50FF09DFF10BD00005B
:1002000010B518F0C1FF012018F0C9FF10BD70B57E
:100210000246002012E0145C594B1D881B885B1CB1
:10022000574E3380574B5C5533461B88B3F57A7F66
:1002300002D1002334462380431CD8B28842EADB33
:1002400070BD10B54E4800884F490988401A04B265
:10025000002C02DA04F57A7004B23F2C24DB002073
:100260004A4908703F204A490870002014E0464976
:100270000A880988491C444B198042498A5C444BCE
:10028000411C5A5440490988B1F57A7F02D10021B6
:100290003D4A1180411CC8B23F28E8DB40223C495E
:1002A000002019F0FCFF34E038480078401C374942
:1002B00008700846007837490978884229D100201B
:1002C0003249087032490C7000BF1BE0A04213DABB
:1002D0002D490A880988491C2B4B198029498A5CB9
:1002E0002B4B411C5A5428490988B1F57A7F07D114
:1002F0000021254A118003E00022254B411C5A545D
:10030000411CC8B23F28E1DB40222149002019F0FE
:10031000C6FF10BD10B50446012C02D0032C11D12C
:100320000EE059B923B1012B05D0022B04D100E016
:1003300000BF402010BD00BF00BF00BF00BF01E0F4
:100340000120F7E700BF0020F4E72DE9F04706465B
:10035000884614469946089F022E02D0032E0CD1DF
:100360000AE0012504E0605D01F0A2FA681CC5B254
:100370002078A842F7DA00E000BF00BFBDE8F087B0
:100380000400002074050020020000200600002068
:100390005C0900200000002019F074BE70470020A6
:1003A00070470020704700207047002070470020F1
:1003B00070470020704700207047002070470020E1
:1003C00070470020704700207047002070470020D1
:1003D00070470020704719F07CBE704700207047BE
:1003E0000020704719F0C0BC7047000000BFFEE756
:1003F00000F01BF90349087000F0A8F801E000F0D4
:10040000CBF8FCE70018002010B576484068754925
:1004100008600CF0B2F8734948607349C8607148CD
:10042000406870490968401A6E49886009F00AFC02
:10043000012006F057FB012009F035FC09F0ADFC66
:100440000EF0EBFE6949012007F00EFD012007F0D8
:1004500065FF9FED670A02F051FE01F030FA0CF0E3
:100460008CF86149086108460069C968401A5E490C
:10047000486110BD10B59FED5F0A07F0CEFA02206B
:1004800009F0CAF9022002F0DEFB10BD10B505F03C
:100490006CFC56489FED580A06F0ECFF9FED560A9B
:1004A0000FF068FD052009F089FC10BD10B50CF0B7
:1004B00064F84D4908600A2001F08CFC0A2007F01E
:1004C000E0FF9FED4E0A06F0E7FD9FED4C0A06F0B7
:1004D000ECFC9FED4A0A01F0C9FC0A2009F026FF56
:1004E0000CF04BF840494860084640680968401ADB
:1004F0003D4988600A2003F057FC9FED400A02F056
:10050000FEFF9FED3E0A03F016FE9FED3C0A03F04E
:10051000DCFC10BD10B51AF023FA142001F091FE96
:10052000142002F0ACFF3149142008F000F910BD8E
:1005300010B5322009F078FA32200EF0A6FF10BD77
:1005400010B54FF4FA700AF0BBFA10BD002000BFDE
:100550001FE000EB40012A4A02EB810189884FF439
:100560007A7292FBF1F100EB4002254B03EB820221
:10057000D18000EB40011A4602EB8101C9880129B4
:1005800005DA012100EB400203EB8202D180411C1D
:10059000C8B20728DDD3704770B5002400BF1EE045
:1005A0000CF026F8054604EB4400154901EB8000E9
:1005B0008068281A04EB4401114A02EB8101C988C2
:1005C00088420AD304EB4400114601EB80008560A9
:1005D00004EB440152F821008047601CC4B2072C90
:1005E000DED370BDC00C0020CC0C00202C110020EC
:1005F0006F12833A6F12033B0AD7A33B0AD7233CFF
:100600001800002010B50CF0D0FC18B1022052499F
:10061000087009E00CF041FC18B101204E49087047
:1006200002E000204C49087010BD10B54FF4806006
:100630000FF01EFE0BF06FFF64200BF0C7FF09F0F8
:1006400007FD0DF0A1F804F03EFA0FF0F1FA0BF0FF
:100650008FFD32200BF0BAFF0BF0F2FC0CF0F0FB38
:100660000CF0D8FC0FF094F90A200BF0AFFFFFF765
:10067000C9FF0FF017FA39494870087036480078FA
:1006800028B90020887001203549087208E001204F
:100690003249887030480078022801D10CF099FC6A
:1006A0000CF0F6FE2D49C870FFF7AAFD64200BF090
:1006B0008DFF4FF4E1300CF067F80A200BF086FF55
:1006C0004FF4E1300CF02EF94FF416500CF0DCFA38
:1006D00024480CF012FA0AF01CF864200BF076FFA4
:1006E00007F008FB64200BF071FF4FF4E1300BF0D2
:1006F000A9FF04F015F90EF071FE06F0ECF900F018
:1007000041F8194991F84A01303119F0FDFF17A35A
:100710000222AF21052000F0CAFD012010BD10B556
:10072000044624B10121154812F028FD03E00121FF
:10073000124812F0F2FC10BD10B504462CB14FF473
:1007400080610F4812F01AFD04E04FF480610C48FC
:1007500012F0E3FC10BD00006C0000202C180020FB
:10076000D41D002020A10700E41D00205359532070
:10077000696E6974204F4B2100000000000C02409C
:10078000000802400A21FE48A0F89210A0F89E102E
:100790001421A0F8A4100A21A0F8AA100021A0F8A2
:1007A000B0103221A0F8B610A0F8BC10A0F8C2100A
:1007B000A0F8C810C821A0F8E610A0F8EC10A0F826
:1007C000F8106421A0F8101100201BE000EB40029B
:1007D000EB49903101EB42014A8800EB4003E949C3
:1007E00001EB43014A8000EB4002E549903101EB07
:1007F00042018A8800EB4003E24901EB43018A8011
:10080000411CC8B21828E1DB704770473CB502466E
:10081000092A7CD008DC092A7AD2DFE802F07918AC
:10082000B3FEFDFCFBFAF900302A72D008DC0D2A79
:1008300070D00E2A6FD00F2A6ED0202A68D1DEE247
:10084000402A6AD0412A69D0FA2AF7D11CE3CE485F
:1008500090ED1C0ABDEEC00A10EE100A00B2019025
:100860009DF804300C78601C0870C84803559DF84A
:1008700005300C78601C0870C4480355C24890EDE0
:100880001D0ABDEEC00A10EE100A00B201909DF8DC
:1008900004300C78601C0870BC4803559DF8053086
:1008A0000C78601C0870B9480355B74890ED1E0AD3
:1008B000BDEEC00A10EE100A00B201909DF804309F
:1008C0000C78601C0870B14803559DF805300C7811
:1008D000601C0870AD480355AB4890ED160ABDEE9C
:1008E000C00A10EE100A00B201909DF804300C7896
:1008F000601C0870A54803559DF805300C78601CF5
:100900000870A2480355A04890ED170A07E014E2CA
:10091000BBE256E212E238E270E260E26DE2BDEE66
:10092000C00A10EE100A00B201909DF804300C7855
:10093000601C0870954803559DF805300C78601CC4
:10094000087092480355904890ED180ABDEEC00A11
:1009500010EE100A00B201909DF804300C78601C73
:1009600008708A4803559DF805300C78601C0870A3
:1009700086480355844803780C78601C08708348C7
:10098000035583E28248408801909DF804300C783A
:10099000601C08707D4803559DF805300C78601C7C
:1009A00008707A4803557A48808801909DF8043091
:1009B0000C78601C0870754803559DF805300C785C
:1009C000601C0870714803557148C08801909DF8FB
:1009D00004300C78601C08706C4803559DF8053095
:1009E0000C78601C0870694803556A4890ED030A4A
:1009F000BDEEC00A8DED000A9DF800300C78601C39
:100A00000870624803559DF801300C78601C05E0C1
:100A100056E10FE1EFE092E090E037E008705B48CC
:100A200003559DF802300C78601C08705748035538
:100A30009DF803300C78601C0870544803555248E8
:100A400090ED1F0ADFED540A20EE200ABDEEC00A29
:100A500010EE100A00B201909DF804300C78601C72
:100A600008704A4803559DF805300C78601C0870E2
:100A70004648035500230C78601C08704348035512
:100A80000C78601C087041480355FFE1434890ED25
:100A9000370ADFED410A20EE200ABDEEC00A10EE53
:100AA000100A00B201909DF804300C78601C0870A8
:100AB000364803559DF805300C78601C08703348A3
:100AC0000355364890ED380ADFED330A20EE200A50
:100AD000BDEEC00A10EE100A00B201909DF804307D
:100AE0000C78601C0870294803559DF805300C7877
:100AF000601C087025480355284890ED390ADFED41
:100B0000260A20EE200ABDEEC00A10EE100A00B23E
:100B100001909DF804300C78601C08701B48035548
:100B20009DF805300C78601C0870184803550023A8
:100B30000C78601C087015480355A7E1A6E1184819
:100B400090ED050ABDEEC00A8DED000A9DF800305B
:100B50000C78601C08700D4803559DF801300C7826
:100B6000601C0870094803559DF802300C78601C21
:100B70000870064803559DF803300C78601C11E09E
:100B8000E40C0020040E0020B4370020940E002056
:100B9000A00300201C3500200000C842A001002056
:100BA000C01800200870FE480355FE484088009099
:100BB0009DF800300C78601C0870F94803559DF8CA
:100BC00001300C78601C0870F54803559DF8023020
:100BD0000C78601C0870F24803559DF803300C78BF
:100BE000601C0870EE48035500230C78601C0870E8
:100BF000EB4803554AE1EC48C37D0C78601C087053
:100C0000E7480355E848C37A0C78601C0870E4484C
:100C1000035500230C78601C0870E14803550C78DC
:100C2000601C0870DE4803550C78601C0870DC48B6
:100C300003552BE1DD4890ED030ABDEEC00A10EE2E
:100C4000100A00B201909DF804300C78601C087006
:100C5000D34803559DF805300C78601C0870D048C7
:100C60000355D24890ED040ABDEEC00A10EE100AFA
:100C700000B201909DF804300C78601C0870C848E0
:100C800003559DF805300C78601C0870C448035566
:100C9000C74890ED050ABDEEC00A10EE100A00B27A
:100CA00001909DF804300C78601C0870BC48035516
:100CB0009DF805300C78601C0870B9480355E5E0D4
:100CC000002000909DF800300C78601C0870B4483B
:100CD00003559DF801300C78601C0870B04803552E
:100CE0009DF802300C78601C0870AD4803559DF8E3
:100CF00003300C78601C0870A94803550020009050
:100D00009DF800300C78601C0870A54803559DF8CC
:100D100001300C78601C0870A14803559DF8023022
:100D20000C78601C08709E4803559DF803300C78C1
:100D3000601C08709A480355A8E0A7E09D4890ED14
:100D4000000A5FED6B0A20EE200ABDEEC00A10EE2D
:100D5000100A00B201909DF804300C78601C0870F5
:100D60008F4803559DF805300C78601C08708C483E
:100D7000035500230C78601C0870894803550C78D3
:100D8000601C08708648035580E08B4883780C7897
:100D9000601C08708248035500230C78601C0870A2
:100DA0007F480355844843790C78601C08707C4860
:100DB00003558148C3780C78601C08707848035547
:100DC00064E0002008E07D4B1C5C0D786B1C0B7010
:100DD000734B5C55431CD8B21728F4DB56E0002057
:100DE00008E0774B1C5C0D786B1C0B706C4B5C55F2
:100DF000431CD8B21428F4DB48E047E046E07148D1
:100E0000008801909DF804300C78601C08706448DC
:100E100003559DF805300C78601C08706048035538
:100E20006848408801909DF804300C78601C087078
:100E30005B4803559DF805300C78601C08705848D5
:100E400003556048808801909DF804300C78601C40
:100E50000870534803559DF805300C78601C0870E5
:100E60004F4803555748C08801909DF804300C78CE
:100E7000601C08704A4803559DF805300C78601CCA
:100E800008704748035501E000E000BF00BF3CBDCB
:100E90002DE9F84381460D46904600200090AA2196
:100EA0009DF80020501CC0B200903D4881549DF830
:100EB0000010481CC0B20090394800F80180182D7D
:100EC00001DBBDE8F8834048465D9DF80010481CF2
:100ED000C0B200903248465400219DF80020501CBA
:100EE000C0B200902E48815469463046FFF78EFC10
:100EF0009DF80000001F2A49C87000240027002028
:100F000007E02749095C2144CCB23919CFB2411C12
:100F1000C8B29DF800108842F3DB9DF80010481C11
:100F2000C0B200901E4844549DF80010481CC0B246
:100F300000901B4847549DF8002001464846FFF7A3
:100F400064FC00BFBDE7F0B503460C46002145E058
:100F500001EB410000EB81101C4D285CC0BB01EB94
:100F6000410000EB81102844437001EB410000EB8D
:100F700081102844827000200AE0265C01EB4105C4
:100F800005EB8115114F3D44ED1C2E54451CE8B274
:100F90009042F2DB012001EB410505EB811518E0E1
:100FA000940E002048030020001800207C1D002023
:100FB000A8180020C80300208901002084360020E2
:100FC0003A370020B40300209CB00108D40E002062
:100FD00002E0FE4E7055F0BD481CC1B20529B7DBDA
:100FE0000020F8E730B5002325E003EB430000EBD9
:100FF0008310F649085CE0B103EB430404EB83146F
:101000000D462C44A27803EB430404EB83142C44D8
:10101000E11C03EB430404EB83142C446078FFF7DA
:10102000F4FB002003EB430101EB83112A465054EB
:1010300030BD581CC3B2052BD7DB00BFF8E770B535
:101040000446012C04D0022C14D0042C37D121E00A
:1010500001EB4106DE4D05EB4605AA1C01EB4106FE
:10106000DB4D05EB4605281D01EB4106D84D05EB90
:10107000460325E001EB4105D64E06EB4505AA1CCB
:1010800001EB410506EB4505281D01EB410506EB8B
:10109000450315E001EB4106CD4D903D05EB4605BE
:1010A000AA1C01EB4106CA4D903D05EB4605281DE3
:1010B00001EB4106C64D903D05EB460300E070BDD7
:1010C00000BF182900DBFAE7158855B10588168896
:1010D000B54203DA05886D1C058002E001251D700C
:1010E000058000BFEBE72DE9F04107460C46012FD4
:1010F00004D0022F09D0042F16D10DE0AF2604EB47
:101100004401B34800EB410511E0FF2604EB440025
:10111000B04901EB40050AE0AF2604EB4401AC48BE
:10112000903800EB410502E00020BDE8F08100BFEF
:10113000182C01DB0020F8E7287840B10020287047
:10114000324621463846FFF7A3FE0120EDE7002096
:10115000EBE72DE9F05F82460E4617469846DDF82C
:1011600028B00024AA222146641C9B4842542146F0
:10117000641C465400222146641C42542146641CCF
:1011800042542146641C47542146641C00F80180E7
:101190002146641C00F801B0201F8F49C87000254B
:1011A0004FF00009002009E08B49095C2944CDB2C9
:1011B00009EB050101F0FF09411CC8B2A042F3DBB5
:1011C0002046611CCCB284490D542046611CCCB22F
:1011D000814901F8009022465046FFF7B4FEBDE871
:1011E000F09F2DE9F74181B080460E460020009027
:1011F000BDF80C0009F09DFC00900024AA222146B5
:10120000641C754842542146641C4654E22221461F
:10121000641C425400222146641C42549DF80C2058
:101220002146641C42549DF80D202146641C425402
:101230009DF800202146641C42549DF8012021465F
:10124000601CC4B2644842549DF802202046611CD0
:10125000CCB261490A549DF803202046611CCCB2EF
:101260005D490A54201FC87000250027002007E0B0
:101270005949095C2944CDB27919CFB2411CC8B291
:10128000A042F5DB2046611CCCB253490D542046E8
:10129000611CCCB250490F5422464046FFF753FE22
:1012A000BDE8FF8100BF00BF00BF00BF70472DE950
:1012B000F05F8346884691461E460024AA222146B6
:1012C000641C454842542146641C00F80180A02259
:1012D0002146641C425400222146641C425421468B
:1012E000641C00F8019092460CE05046411C01F04D
:1012F000FF0A325C2046611CCCB237490A54322CBA
:1013000000DD03E016F80A000028EED100BF201F20
:101310003149C87000250027002007E02E49095CEC
:101320002944CDB27919CFB2411CC8B2A042F5DB35
:101330002046611CCCB228490D542046611CCCB219
:1013400025490F5422465846FFF7FDFDBDE8F09FA2
:101350002DE9F04781460E4617460024AA22214671
:10136000641C1D4842542146641C4654F122214607
:10137000641C425400222146641C42542146641CD1
:101380004754201F1449C87000254FF00008002062
:1013900009E01149095C2944CDB208EB050101F0CF
:1013A000FF08411CC8B2A042F3DB2046611CCCB24E
:1013B00009490D542046611CCCB2074901F8008050
:1013C00022464846FFF7BFFDBDE8F087D40E002057
:1013D000040E0020E40C0020231000202DE9F84327
:1013E00080460C46154600260027E178A81F81425A
:1013F00001D0BDE8F883002006E0215C3144CEB284
:10140000B919CFB2411CC8B2A91E8142F5DC6019DE
:1014100010F8020CB04204D1601910F8010CB84267
:1014200000D0E6E7A078402875D0A0784128FBD00E
:10143000A0783028F8D0A0783228F5D0A0783328CA
:10144000F2D0A0783428EFD0A0780D28ECD0A07886
:10145000E0286FD12079012804D010286DD0112800
:101460006AD19EE0607980BBA079012861D0A07923
:10147000022807D1FE48C07A00285AD10120FD4930
:10148000C87056E0A079032853D0A079042850D022
:10149000A07905284DD0A07910284AD0A0796128DC
:1014A00047D0A079622844D0A079AA2804D109F0B5
:1014B0008DF903F0FDFA3CE0A079AB2806D10120BC
:1014C00009F04DFA03F0F4FA33E00AE0A079AC2811
:1014D0002FD109F07BF9022009F041FA03F0E8FA74
:1014E00027E06079012800D123E06079302820D1FD
:1014F000A079012810D1DE48C07AD0B9DE48007842
:10150000401CDD4908700120DA4988700020DB4961
:1015100081F84A010DE06EE0A079022809D1D44893
:10152000C07A30B90220D64908700020D34981F82A
:101530004B0138E040E000E034E0607948BBA0793E
:1015400007281DD007DC072821D2DFE800F0201390
:10155000141516171800602816D006DC082810D0BD
:1015600009280FD00A2812D10DE061280DD0622879
:101570000DD10BE00CE00BE00AE009E008E007E029
:1015800006E005E004E003E002E001E000E000BF67
:1015900006E06079012803D06079022800D000BFFE
:1015A00001E000E000BF00BF0097A2783346AF2102
:1015B0004046FFF7CEFD1EE0A078E0B1A078E1281C
:1015C00005D1A288AF214046FFF70BFE13E0A078BB
:1015D000E2280CD1D4F80610A08809F0A0FE0097EC
:1015E000A2783346AF214046FFF7B3FD03E0A07871
:1015F000602800D000BF00BFFBE62DE9F0410646A1
:101600000D46012E01D1002404E0022E01D1012457
:1016100000E0022404EB440000EB841099490844E4
:1016200090F84200072875D2DFE800F0041637482A
:1016300075CBF600AA2D0ED1012004EB440101EB7D
:101640008411904A114481F8420004EB440000EBFD
:10165000841011460D5421E1052D03D0FF2D01D03A
:10166000052D10D1022004EB440101EB8411854AC1
:10167000114481F8420004EB440000EB8410114651
:101680000844457008E0002004EB440101EB84119C
:101690007C4A114481F8420000E1032004EB44013C
:1016A00001EB8411774A114481F8420004EB4400B5
:1016B00000EB8410114608448570EFE03B2D1FDAE3
:1016C000042004EB440101EB84116E4A114481F8BB
:1016D000420004EB440000EB841011460844C5703E
:1016E00004EB440000EB8410084480F840500020D4
:1016F00004EB440101EB8411114481F8410008E03E
:10170000002004EB440101EB84115E4A114481F88E
:101710004200C3E0B8E004EB440000EB84105949F8
:10172000084490F84000002841DD04EB440000EB41
:101730008410084490F84000401E04EB440101EB83
:101740008411504A114481F8400004EB440000EB3E
:1017500084101146084490F8410004EB440101EB69
:101760008411114491F84110491C04EB440202EB2E
:101770008412444B1A4482F84110001D04EB4401CA
:1017800001EB84111A4611440D5404EB440000EBA4
:1017900084101146084490F8400088B9052004EBF5
:1017A000440101EB8411114481F8420008E000205B
:1017B00004EB440101EB8411324A114481F84200E8
:1017C0006CE0062004EB440101EB84112D4A114426
:1017D00081F8420004EB440000EB841011460844F9
:1017E00090F8410004EB440101EB8411114491F89D
:1017F0004110491C04EB440202EB8412214B1A44B1
:1018000082F84110001D04EB440101EB84111A46DB
:1018100011440D5442E0FFE7002004EB440101EBCA
:101820008411184A114481F8420004EB440000EB93
:1018300084101146014404EB440000EB8410104472
:1018400090F84100001D0D5404EB440000EB84109F
:101850001146084490F84100401DC7B204EB440013
:1018600000EB841081183A463046FFF7B7FD15E0CB
:10187000001800205C0500206E000020E41D002000
:10188000A003002063100020002004EB440101EBC2
:101890008411204A114481F8420000BF00BFBDE816
:1018A000F08110B5044621460420FFF7A6FE10BDC6
:1018B00010B5044621460120FFF79FFE10BD10B56C
:1018C000FFF790FB002409E021460420FFF7B7FB57
:1018D00021460120FFF7B3FB601CC4B2182CF3DBD8
:1018E000002405E021460420FFF7FDFB601CC4B284
:1018F000182CF7DB002407E021460120FFF7F3FB5B
:1019000000B103E0601CC4B2182CF5DB00BFFEF789
:1019100098FC10BD6310002070B5DDE904452BB1C3
:101920000E882EB10E8806440E8001E001260E803E
:101930000E88964202DB2C7000260E8070BD7CB5AE
:101940000546FE480079022824DCFD48407808BBA3
:10195000FC484078B8B1FB480078A0B1F948C0789D
:1019600050B1F648407818B10020F449487214E0AC
:101970000120F249487210E00120F3494872022028
:10198000EE49487209E00120EF49C8710320EB4994
:10199000487202E00420E9494872E848C07A002809
:1019A00040D1E648807A002849D0E448407A50B9CE
:1019B000E248807AE149C872E4A30222AF210520FF
:1019C000FFF775FC3BE00020DC4988720846407A4E
:1019D000012806D1E0A30222AF210520FFF767FC12
:1019E0002DE0D648407A022806D1DBA30222AF219F
:1019F0000520FFF75CFC22E0D048407A032806D19E
:101A0000D5A30222AF210520FFF751FC17E0CB48F8
:101A1000407A042813D1D4A30222AF210520FFF776
:101A200046FC0CE0C548807A28B9D5A30222AF2134
:101A30000520FFF73CFCC148807AC049C872D548F0
:101A4000B0F9040010F5967F7EDAD248B0F90600AE
:101A5000002803DDCF48B0F9060003E0CD48B0F917
:101A60000600404200EE100AB8EEC00AF3EE0E0A7D
:101A7000B4EEE00AF1EE10FA14DDC648B0F9020047
:101A800000EE100AB8EEC00AFBEE0E0AB4EEE00A51
:101A9000F1EE10FA06D2A948407B30B90120A749DF
:101AA000487302E00020A5494873BA48B0F9020023
:101AB00010F5967F12DAB748B0F90000B0F5967FBE
:101AC0000CDDB448B0F9060010F5967F06DA012067
:101AD000B14908700220994948731BE0AD48B0F93C
:101AE000020010F5967F12DAAA48B0F9000010F54E
:101AF000967F0CDAA748B0F90600B0F5967F06DDB0
:101B00000120A549087002208C49487302E000209A
:101B1000A149087000248948C07A28B100BF4FF459
:101B200096709E49088004E002244FF4FA709B49A5
:101B3000088082480A30CDE90040974803789748EA
:101B400002889749284600E002E0FFF7E5FE08E03A
:101B500000207A4948730846807A022801D1012082
:101B600088728C48B0F9040010F5AF7F03DD0020C7
:101B70007249087302E00120704908737CBD00209F
:101B800005E00021834A22F81010411CC8B2042845
:101B9000F7DB8048B0F90400002802DD00207D4911
:101BA000888000207B4908804880C8806348C07ACC
:101BB00048B17C48407918B903206049C87402E0F4
:101BC00001205E49887101205F49C8727047F0B5F5
:101BD00005AC70CC5CB100270F80CF788FB98F78BF
:101BE00017B18F787F1C8F700127CF7009E0002715
:101BF000CF700F8807440F800F889F4201DD0127B7
:101C00008F708F78974202DD357000278F70F0BD9E
:101C10001EB504464948C07A00286ED14748007B6B
:101C2000002873D05B48B0F9020010F5AF7F17DAD7
:101C30005848B0F90000B0F5AF7F11DD5548B0F954
:101C4000040010F5AF7F0BDA5248B0F90600B0F58A
:101C5000AF7F05DD0120544908705449087004E045
:101C6000002051490870514908704A48B0F90200F3
:101C7000B0F5AF7F15DD4748B0F90000B0F5AF7F94
:101C80000FDD4448B0F9040010F5AF7F09DA414890
:101C9000B0F9060010F5AF7F03DA0120444908705F
:101CA00002E00020424908703A48B0F90200B0F55D
:101CB000AF7F15DD3748B0F90000B0F5AF7F0FDD1D
:101CC0003448B0F9040010F5AF7F09DA3148B0F9B3
:101CD0000600B0F5AF7F03DD01203649087002E051
:101CE0000020344908702B48B0F90200B0F5AF7FEE
:101CF00004DD01203049087008E06AE02548B0F9A9
:101D00000200322802DA00202B4908702B480121FA
:101D1000CDE90010254803784FF47A72284920460F
:101D2000FFF7FAFD27480121234A12784FF47A730E
:101D3000CDE9002102900522234947E00018002048
:101D4000420400202C180020D41D0020556E6C6F1A
:101D5000636B204F4B210000556E6C6F636B204608
:101D600061696C2100000000506F776572204C6F34
:101D7000772C556E6C6F636B204661696C21000097
:101D80004643204F7574707574204C6F636B6564A7
:101D9000212000002C11002072000020740000207F
:101DA00070000020890100208100002080000020B8
:101DB0008200002083000020840000205F050020B6
:101DC00076000020A00300207C0000202046FFF7C2
:101DD000FEFE1EBD10B504461F48007890B30020DB
:101DE00021E01E4931F81010A1F2DC5109B21C4A61
:101DF00022F81010114631F9101011F5FA7F01DCAC
:101E000018490BE0164931F91010B1F5FA7F02DDDF
:101E10004FF4FA7102E0124931F91010104A22F819
:101E20001010411CC8B20828DBDB2046FFF787FDF5
:101E30002046FFF7EDFE09483A3890F8390010B116
:101E4000FFF79DFE06E00848C07A012802D1002075
:101E50000549C87210BD0000001800203A37002064
:101E60002C1100200CFEFFFFD41D002008B5CA482D
:101E7000D0ED000A9FEDC91AF4EEC10AF1EE10FA96
:101E80000BD2D0ED000AB7EE001A70EE810AC0ED59
:101E9000000A0120C249887002E00020C049887011
:101EA000BD48D0ED010A9FEDBD1AF4EEC10AF1EE76
:101EB00010FA0BD2D0ED010AB7EE001A70EE810ACB
:101EC000C0ED010A01208DF8000002E000208DF82D
:101ED0000000B148D0ED020A9FEDB01AF4EEC10A3D
:101EE000F1EE10FA0BD2D0ED020AB7EE001A70EE46
:101EF000810AC0ED020A01208DF8010002E00020F5
:101F00008DF801009DF8000030B19DF8010018B176
:101F10000120A349C87002E00020A149C87008BD93
:101F200030B500220024C5788B1F9D4200D030BD03
:101F3000002306E0C55C1544EAB2A518ECB25D1CAE
:101F4000EBB28D1E9D42F5DC431813F8023C934220
:101F500004D1431813F8013CA34200D0E7E783788B
:101F6000512B38D103795BB943798D4D6B718379EE
:101F70005BB2AB71C3795BB2EB71037A2B7183E017
:101F80000379012B12D14379854D2B72C3886B8164
:101F90000389AB81837A2B719FED820A7E4B83ED9F
:101FA000010A2B461B785B1C2B706DE00379022B1A
:101FB0006AD143797A4DAB73C3882B8203896B82D4
:101FC0004389AB828389EB82C3892B83038A6B832A
:101FD000837C2B7158E08378342B0DD1D0F80730F7
:101FE0006F4DEB619FED6F0A6B4B83ED020A2B4641
:101FF0005B785B1C6B7047E08378012B0DD1838885
:10200000674D2B86C3886B860389AB864389EB8635
:1020100083892B87C3896B8736E08378042B33D180
:10202000B0F9043000EE103AB8EEC00ADFED5E0AF7
:1020300020EE200A5A4B83ED080AB0F9063000EE74
:10204000103AB8EEC00ADFED580A20EE200A544BD1
:1020500083ED090AB0F9083000EE103AB8EEC00A74
:10206000DFED510A20EE200A4D4B83ED0A0AB0F94C
:102070000A3000EE103AB8EEC00ADFED4B0A20EE4F
:10208000200A474B83ED0B0A00BF50E710B504460A
:102090004648007838B9AA2C05D101204349087078
:1020A0004348047077E041480078012809D1052CA5
:1020B00001D0FF2C05D102203C4908703C484470F7
:1020C00069E03A480078022805D1032037490870B2
:1020D000374884705FE03548007803280CD1FA2C2B
:1020E0000ADA0420314908703148C470314804705C
:1020F0000020314908704EE02C480078042819D19E
:102100002C480078002815DD2A480078401E29490F
:1021100008702948007828490978491C264A117016
:10212000001D23490C542348007880BB05201F491B
:10213000087030E01D48007805280DD106201B49A5
:1021400008701D4800781C490978491C1A4A11700A
:10215000001D17490C541EE014480078062817D1BA
:1021600000201249087014480078001D10490C54D2
:102170009FED0C0A084880ED000A01200F49087005
:102180000D480078401DC1B20948FFF7C9FE02E0C2
:1021900000200649087010BDAC1100200000FA4371
:1021A0003C1100200000000017B7D1388700002044
:1021B0007811002085000020860000206D0000209E
:1021C0000179C27801EB0221FE4A118081794279BE
:1021D00001EB0221FC4A11808178FC4A5170704762
:1021E0000020FB49087000BF28E0032818DA9FEDA3
:1021F000F90AF6492C3101EB800181ED000A9FEDCF
:10220000F50AF249383101EB800181ED000A9FEDBA
:10221000F10AEE49443101EB800181ED000A03E04F
:102220000021EA4AA2F850100022E849143141F88E
:102230002020103941F82020411CC8B20428D4DBEA
:10224000704710B50446E1484178807881421FD03C
:10225000FFF7C6FFE04890F8380068B9DF48C07D56
:10226000012809D1DE48807810B9DD48407918B1DD
:102270000120D64908700BE00020D4490870D9A38A
:102280000222AF210520FFF712F80020CF49487045
:10229000CE48407806286ED006DC06286CD2DFE8EF
:1022A00000F06B10416CCEFD09287DD004DC0728BE
:1022B0007BD0082860D1ADE20A2877D0A028F9D1D8
:1022C0004AE0C248007860B3C448C07C70B9C048D6
:1022D000007830BB0120BE490870C6A30222AF219E
:1022E0000520FEF7E4FF05F056FD1AE0BB48C07C70
:1022F000022809D1C2A30222AF210520FEF7D7FF91
:102300000020B24948700CE0B448C07C022808DDC7
:10231000BFA30222AF210520FEF7C9FF0020AB4971
:1023200048708EE3AD48C07C022808D1BBA30222CE
:10233000AF210520FEF7BBFF05F03CFD0BE0A748F1
:10234000C07C40B9B8A30222AF210520FEF7AFFF41
:1023500000209E49487074E3A048C07A50B1B5A3EC
:102360000222AF210520FEF7A2FF00209B498872C0
:102370009649487065E38FE162E39348008800EE78
:10238000100AB8EE400A914880ED0D0A8E48008888
:1023900098B38C4800884FF47A71484300EE100AD5
:1023A000F8EEC00A884802E093E2D5E1ECE200884A
:1023B000002802DC9FED870A17E0A34890ED011A80
:1023C0008148008800EE100AB8EE400AB4EEC01A48
:1023D000F1EE10FA03D29C4890ED010A05E07A482C
:1023E000008800EE100AB8EE400A80EE801ABCEEBB
:1023F000C10A764880ED070A03E0FFE70021734831
:10240000C1617248C06830B990A30222AF21052093
:10241000FEF74DFF0DE06D48C169C068814208D2EA
:102420008CA30222AF210520FEF741FF002067495F
:1024300048706648C06801196448C16001E3624899
:102440000088404200EE100AB8EEC00A5F4880EDF6
:102450000D0A5D480088A8B35A4800884FF47A7185
:10246000484300EE100AF8EEC00A574800880028DA
:1024700002DC9FED580A1DE0734890ED020AB1EEB0
:10248000401A5148008800EE100AB8EE400AB4EE37
:10249000C01AF1EE10FA07D26B4800E034E090ED7C
:1024A000020AB1EE400A05E04748008800EE100A33
:1024B000B8EE400A80EE801ABCEEC10A434880EDB7
:1024C000070A03E0FFE700214048C1613F48C068B8
:1024D00030B963A30222AF210520FEF7E8FE0DE02C
:1024E0003A48C169C068814208D260A30222AF2184
:1024F0000520FEF7DCFE0020344948703348C068F0
:1025000001193248C1609CE22F48008800EE100A91
:10251000B8EE400A2D4880ED0B0A2B48008878B3AE
:10252000284800884FF47A71484300EE100AF8EE0C
:10253000C00A25480088002802DC9FED260A17E023
:10254000414890ED001A2048008800EE100AB8EECD
:10255000400AB4EEC01AF1EE10FA03D23A4890EDF8
:10256000000A05E01848008800EE100AB8EE400A9C
:1025700080EE801ABCEEC10A144880ED050A03E023
:10258000FFE70020114948611048406830B93AA37C
:102590000222AF210520FEF78AFE0EE00B484069BB
:1025A0000A494968884208D236A30222AF21052091
:1025B000FEF77DFE0020054948700448406820442D
:1025C000024967E0880000208A000020B81100203E
:1025D0008C000020000000000037002000180020C0
:1025E000890100204643205374617465204572724E
:1025F0006F72210054616B65206F666621000000D8
:1026000054616B65206F6666204F4B21000000000F
:10261000434D44204572726F722100004C616E641C
:10262000696E6721000000004C616E64696E67206E
:102630004F4B2100456D657267656E637920737439
:102640006F70204F4B2100001C180020476F207531
:1026500070210000476F207570204F4B2100000053
:10266000476F20646F776E2100000000476F206481
:102670006F776E204F4B2100476F20616865616462
:1026800021000000476F206168656164204F4B2185
:10269000000000004860D4E1FC480088404200EEA1
:1026A000100AB8EEC00AFA4880ED0B0AF748008815
:1026B00078B3F84800884FF47A71484300EE100A66
:1026C000F8EEC00AF1480088002802DC1FED3F0A3E
:1026D00017E0F14890ED001AEC48008800EE100A6F
:1026E000B8EE400AB4EEC01AF1EE10FA03D2EA488E
:1026F00090ED000A05E0E548008800EE100AB8EE0B
:10270000400A80EE801ABCEEC10AE14880ED050A5D
:1027100003E0FFE70020DE494861DD48406830B94A
:10272000DEA30222AF210520FEF7C1FD0EE0D8484E
:102730004069D7494968884208D2DBA30222AF2109
:102740000520FEF7B4FD0020D1494870D04840680C
:102750002044CF49486074E1CC48008800EE100A5C
:10276000B8EE400ACA4880ED0C0AC848008878B321
:10277000C84800884FF47A71484300EE100AF8EE1A
:10278000C00AC2480088002802DC1FED6E0A17E06C
:10279000C14890ED001ABD48008800EE100AB8EE5E
:1027A000400AB4EEC01AF1EE10FA03D2BA4890ED26
:1027B000000A05E0B548008800EE100AB8EE400AAD
:1027C00080EE801ABCEEC10AB14880ED060A03E033
:1027D000FFE70021AE488161AD48806830B9B5A3FC
:1027E0000222AF210520FEF762FD0DE0A8488169B5
:1027F0008068814208D2B2A30222AF210520FEF7F1
:1028000056FD0020A2494870A14880680119A048DF
:10281000816016E19D480088404200EE100AB8EE43
:10282000C00A9B4880ED0C0A9848008878B3994804
:1028300000884FF47A71484300EE100AF8EEC00A9F
:1028400092480088002802DC1FED9E0A17E092489B
:1028500090ED001A8D48008800EE100AB8EE400A8C
:10286000B4EEC01AF1EE10FA03D28B4890ED000AD4
:1028700005E08648008800EE100AB8EE400A80EEB7
:10288000801ABCEEC10A824880ED060A03E0FFE729
:1028900000217F4881617E48806830B98BA3022285
:1028A000AF210520FEF703FD0DE0794881698068BE
:1028B000814208D288A30222AF210520FEF7F7FC4F
:1028C000002073494870724880680119704881601F
:1028D000B7E06E48008800B26D49A1F850006B481F
:1028E000008878B36B4800884FF47A71484300EE53
:1028F000100AF8EEC00A65480088002802DC1FEDC7
:10290000CB0A17E0644890ED031A6048008800EE97
:10291000100AB8EE400AB4EEC01AF1EE10FA03D273
:102920005D4890ED030A05E05848008800EE100A63
:10293000B8EE400A80EE801ABCEEC10A544880ED21
:10294000080A03E0FFE7002151480162504800698E
:1029500030B965A30222AF210520FEF7A8FC0DE0E7
:102960004B48016A0069814208D262A30222AF216A
:102970000520FEF79CFC002045494870444800694A
:102980000119434801615CE040480088404200B2C0
:102990003F49A1F850003D48008878B33D48008881
:1029A0004FF47A71484300EE100AF8EEC00A374837
:1029B0000088002802DC1FEDF90A17E0364890ED88
:1029C000031A3248008800EE100AB8EE400AB4EE4E
:1029D000C01AF1EE10FA03D22F4890ED030A05E079
:1029E0002A48008800EE100AB8EE400A80EE801AED
:1029F000BCEEC10A264880ED080A03E0FFE700218B
:102A0000234801622248006930B93EA30222AF2167
:102A10000520FEF74CFC0DE01D48016A006981426B
:102A200008D23BA30222AF210520FEF740FC002084
:102A3000174948701648006901191548016100E0FE
:102A400000BF00BF1248407808B9FFF7C9FB104823
:102A5000417881703248C07AB0B10D4A3832A2F163
:102A6000140101F1080002F078FC094A44322D49B2
:102A7000A2F10C0002F052FC054890ED0D0A80ED29
:102A8000100A80ED130A5BE04EE000008A0000208F
:102A9000B8110020880000201C180020476F206219
:102AA00061636B2100000000476F206261636B204F
:102AB0004F4B2100476F206C6566742100000000B9
:102AC000476F206C656674204F4B2100476F207262
:102AD0006967687421000000476F20726967687435
:102AE000204F4B21000000005475726E206C65660B
:102AF000742100005475726E206C656674204F4B13
:102B0000210000005475726E20726967687421009C
:102B10005475726E207269676874204F4B210000F3
:102B200000180020D4010020064890ED0D0A064848
:102B300080ED090A034890ED0E0A034880ED0A0A69
:102B400010BD0000A0010020B8110020AA4909789A
:102B500039B9AA2805D10121A74A1170A7490870DF
:102B600070E0A5490978012907D1302805D1022153
:102B7000A14A1170A149487064E09F49097802296F
:102B800005D103219C4A11709C4988705AE09A49EA
:102B90000978032905D10421974A11709749C87013
:102BA00050E09549097804290AD10521924A11700B
:102BB00092490871924908700521924A117041E0CA
:102BC0008D490978052917D18D490978002913DD28
:102BD0008B490978491E8A4A11708A490A7809780E
:102BE000491C884B1970854988548549097829BB47
:102BF0000621814A117025E07F49097806291ED1F6
:102C000000217D4A11707D497E4A127888547E49A0
:102C1000097899B9002105E0784A525C7B4B5A54F7
:102C20004A1CD1B2774A12789142F5DD754909788C
:102C3000491C774A11700121734A117002E000218A
:102C40006D4A1170704701466F48007800287DD0AA
:102C500000206D4B1870002200BF05E06B4B1B5C21
:102C60001344DAB2431CD8B2694B1B785B1E834213
:102C7000F4DC6648664B1B78184410F8010C90424F
:102C800000D070476148C078312875D05F48C0785F
:102C9000322871D15D48C0795C4B9B7940EA0320B2
:102CA00000B200EE100AB8EEC00AB1EE400ADFED45
:102CB000590A80EE201A584880ED041A5348407A89
:102CC000524B1B7A40EA032000B200EE100AB8EE25
:102CD000C00ADFED500A80EE201A4F4880ED031A3B
:102CE0004A48C07A494B9B7A40EA032000B200EE82
:102CF000100AB8EEC00ADFED470A80EE201A4648F7
:102D000080ED051A4148407B404B1B7B40EA032085
:102D100000B200EE100AB8EEC00AB1EE400ADFEDD4
:102D20003D0A80EE201A3C4880ED071A3748C07BE8
:102D3000364B9B7B40EA032000B200EE100AB8EE4F
:102D4000C00ADFED340A80EE201A00E018E03248B5
:102D500080ED061A2D48407C2C4B1B7C40EA03205A
:102D600000B200EE100AB8EEC00ADFED2A0A80EECB
:102D7000201A294880ED081A0020284B188000BF2F
:102D800026480088B0F57A7F08DA2448008808448D
:102D9000224A10800120204A507002E000201E4A82
:102DA000507000BF6DE710B504461D48C07A78B971
:102DB0000020194908701B4890ED0D0A084680ED67
:102DC000010A184890ED0E0A084680ED020A02E05A
:102DD000012011490870104A2432A2F1200101F1AA
:102DE000080002F0BAFA0C4A3032A2F12C0101F1CB
:102DF000140002F0B2FA10BD930000204813002026
:102E000092000020940000208F0000204812002033
:102E10008E0000200000C8420C120020900000200C
:102E200000180020A001002010B52DED028BF0EE5F
:102E3000408AB0EE608A2A48C0ED008A80ED018A9F
:102E400002469FED280A011D03F083FBBDEC028BB7
:102E500010BD234880ED060AD0ED060A9FED221A28
:102E6000F4EEC10AF1EE10FA02D8DFED1F0A0FE00E
:102E70001B48D0ED060A9FED1D1AF4EEC10AF1EED3
:102E800010FA02DDDFED190A02E01548D0ED060A5E
:102E90001348C0ED060A7047114880ED070AD0EDCF
:102EA000070A9FED131AF4EEC10AF1EE10FA02D8E8
:102EB000DFED0F0A0FE00A48D0ED070A9FED0D1A6B
:102EC000F4EEC10AF1EE10FA02DDDFED0A0A02E0CB
:102ED0000348D0ED070A0248C0ED070A704700001A
:102EE0004814002000004843000016C300001643A9
:102EF0000000C8C20000C84290ED002ADFEDFC2AA5
:102F000022EE222AF7EE002A82EE823AB7EE002A5B
:102F100033EE022AB7EE003AC3EE022AF54991EDEC
:102F2000002A30EE423A91ED002A02EE832A81ED2A
:102F3000002A90ED002ADFEDEE2A22EE222AF7EE9B
:102F4000002A82EE823AB7EE002A33EE022AB7EE6A
:102F5000003AC3EE022A91ED012A30EEC23A91ED19
:102F6000012A02EE832A81ED012A91ED002ADFED8C
:102F7000E22A22EE222AE14981ED002ADD4991ED83
:102F8000012ADFEDDD2A22EE222ADC4981ED012A29
:102F900090ED002ADFEDD62A62EE222AB7EE003A43
:102FA00083EE222AF7EE002A32EE222AB7EE003A0A
:102FB000C3EE022AD24991ED082A31EE423A91ED50
:102FC000082A02EE832A81ED082A90ED002ADFED1F
:102FD000C82A22EE222AB7EE003AC3EE022AB7EE42
:102FE000002A32EE822AB7EE003AC3EE022A91EDB1
:102FF000092A31EEC23A91ED092A02EE832A81EDC7
:10300000092A002117E0BE4A283202EB810292ED24
:10301000002ABB4A203202EB8102D2ED002A90ED59
:10302000003A02EE832AB64A283202EB810282ED90
:10303000002A4A1CD1B20229E5DB704710B50246CE
:103040000023B0480078B04C2478A0423FD0AE486E
:103050000078AC4C20708B78032003E00C5C63405C
:10306000441CE0B20C28F9DB087B984226D1A74823
:103070000078401CA54C2070887A20722046007A87
:10308000F52803D00020A08060800DE008794C79FD
:1030900040EA042000B29D4C60808878CC7840EAF9
:1030A000042000B2994CA0808879CC7940EA0420B1
:1030B0004FF47A7490FBF4F0944CE0809FED940A06
:1030C000944880ED000A0120904C607015E0914812
:1030D00090ED000AF7EE000AB4EEE00AF1EE10FA05
:1030E00008D292ED000AD0ED000A30EE200A80ED01
:1030F000000A02E00020854C607010BD10B52DED77
:10310000020B85496846FFF799FF844890ED142A21
:10311000F0EE421A90ED132AB0EE421A804890ED7C
:103120000B2AF0EE420A90ED0A2AB0EE420A6846F7
:10313000FFF7E2FE1CBD002010E09FED750A70490C
:10314000283101EB800181ED000A9FED710A75497C
:1031500001EB800181ED000A411CC8B20228ECDBC2
:10316000704770B52DED028B05460C46287800EEB1
:10317000100AB8EE400ADFED6C0A20EE200AB0EE2D
:10318000408A142C01DC142006E0B4F5FA7F02DD3D
:103190004FF4FA7000E0204600EE100AB8EEC00AC4
:1031A000574880ED010A90ED020ADFED600A20EE3B
:1031B000200AD0ED010A20EE200A80ED040A90EDED
:1031C000030ADFED5A0A20EE200AD0ED010A20EEB4
:1031D000200A80ED050A00F1180250493431103000
:1031E00002F0BBF84648007810B101287DD10FE00D
:1031F000012043490870B0EE000A4D4880ED000AF6
:10320000B7EE000A4B4880ED000AFFF794FFAFE0ED
:103210003E48007AF52869D100209CE038491831F1
:1032200001EB800191ED000A3549283101EB800165
:10323000D1ED000A30EE600A3F4901EB800181EDDB
:10324000000A384901EB800191ED000A3A4901EB8F
:103250008001D1ED000A374991ED001A60EE810A34
:1032600000EE880A2F4901EB800181ED000A2D490B
:1032700001EB800191ED000ADFED300AB4EEE00AC7
:10328000F1EE10FA02D89FED2D0A13E0254901EB6B
:10329000800191ED000ADFED2A0AB4EEE00AF1EEBA
:1032A00010FA02DD9FED260A04E01E4901EB8001C1
:1032B00091ED000A1B4901EB800181ED000A1949DB
:1032C00001EB800191ED000A1B4901EB8001D1ED7A
:1032D000000A174991ED001A00EE810A08492831C9
:1032E00001EB8001D1ED000A2CE03EE036E0000069
:1032F0003433FB41B4000020E12E65429C000020E5
:10330000D814002098000020D3040020CC14002002
:1033100000000000BC000020D6360020A0010020E4
:1033200014190020AC0000206F12833A82A8FB38E9
:10333000C0000020C4000020A40000200000C8C27B
:103340000000C84240EE080A534901EB8001C1ED7C
:10335000000A411CC8B20228FFF660AF4E4A08328C
:103360004E494D4801F0DAFF02E0FFF7E4FE00BFEE
:1033700000BFBDEC028B70BD01464948007AF528BC
:1033800012D01FED1D0A4448283880ED030A80ED55
:10339000020A4078052843DB3F4828384078401F20
:1033A0003D4A283A50703BE03D48C0884FF47A725D
:1033B00092FBF0F03A4AB2F90220504300EE100AB4
:1033C000B8EEC00A3748D0ED010A9FED371A01EE7A
:1033D000200A3148283880ED020A3148C0884FF46D
:1033E0007A7292FBF0F02E4AB2F90420504300EEBC
:1033F000100AB8EEC00A2B48D0ED000A9FED2A1A39
:1034000001EE600A2448283880ED030A4078FA2843
:1034100006DC214828384078401D1F4A283A507061
:1034200070472248007C48B11B48283800780128A2
:1034300017D1002018492839087012E0164828389A
:103440004078642804DA002013492839087008E01D
:10345000114828384078C82803DD01200E49283952
:1034600008700F48407830B11148007818B1012039
:103470001049087202E000200E490872704701B539
:10348000FFF7CFFF6846FFF777FF0B4801886846D4
:10349000FFF767FE08BD000000150020D4010020E2
:1034A000CC1400209C00002000002043BC0200201F
:1034B000CC0400202C180020CE040020634890ED9E
:1034C0003F0A634880ED010A604890ED400A604879
:1034D00080ED020A9FED5F0A80ED030A5B4890EDE4
:1034E000410A5B4880ED040A9FED5A0A80ED050A07
:1034F000564890ED4E0A584880ED000A704710B5C6
:103500002DED028BB0EE408A5448C07C02285CD17D
:10351000514890ED000A524880ED000A5148408819
:1035200000EE100AB8EE400A4F4880ED000A4C4801
:1035300090ED000A4C48D0ED000A30EE600A4B488E
:1035400080ED000AF2EE042A9FED492A49494048DD
:10355000DFED401A454A92ED001ADFED3E0AB0EE6B
:10356000480A03F015FA434890ED090A424880EDF5
:10357000000A4248D0ED000ABFEE001A60EE810A50
:103580003D4890ED001AF4EEC10AF1EE10FA07DBA7
:103590003A48D0ED000ABFEE001A60EE810A10E052
:1035A0003548D0ED000A354890ED001AF4EEC10A16
:1035B000F1EE10FA02DDD0ED000A02E02E48D0ED67
:1035C000000AB0EE600AFFF744FC2648408800EE8F
:1035D000900AF8EE600A204890ED001A71EE600A39
:1035E000B0EE600A02F06AFCF1EE040AB4EEE00A02
:1035F000F1EE10FA03D201202149087002E0002008
:103600001F490870BDEC028B10BD9FED1E1AB4EE71
:10361000C10AF1EE10FA05D29FED1A1A0E4880ED9C
:10362000001A0FE09FED181AB4EEC10AF1EE10FA7D
:1036300005DD9FED151A084880ED001A02E00648E6
:1036400080ED000A0D48C0ED000A7047E41D00201F
:103650002015002000000000C800002000180020F5
:10366000CC00002048030020D0000020D40000201F
:103670000000484238150020E0000020DC00002057
:10368000D80000200000204200007043FB49097868
:1036900031B1012908D0022907D0032907D105E05B
:1036A0000021F74A1180704701E000E000BF00BF31
:1036B00000BFF8E7704710B50446F24800682044A0
:1036C000F049086008460068C82803D12046FFF783
:1036D000F1FF32E2EB48006840F6B831884202D18F
:1036E00004F059FB29E2E748006840F6B831884207
:1036F000EFD3E5480078182829D2DFE800F00C293C
:1037000037526C86A3BDD7FDFB2828282828FAF954
:10371000F8F7F6F5F4F3DD48C07C022817D1012054
:10372000D9490870F2EE0E0A9FEDD90A00F072FD39
:10373000F2EE040A9FEDD70AFFF767FF0120D64992
:103740000870DFEDD30A9FEDD20AFFF76DFBF3E1BE
:103750000120D2490870D249087005224B21084641
:1037600000F03EFF0220C8490870E5E1CD4800782E
:10377000B0B1CD4800682044CB49086008460068D5
:10378000B0F5FA7F0CD300F03FFF0A220021084673
:1037900000F026FF0320BC4908700020C2490860E1
:1037A000CAE1C0480078A8B1BF4800682044BE49BB
:1037B000086008460068B0F5FA7F0BD30A220021A2
:1037C0006FF0130000F00CFF0420AF4908700020D8
:1037D000B5490860B0E1B3480078A8B1B2480068C4
:1037E0002044B149086008460068B0F5FA7F0BD361
:1037F0000A22C8216FF0130000F0F2FE0520A24952
:1038000008700020A849086096E1A6480078C0B179
:10381000A54800682044A449086008460068B0F53F
:10382000FA7F0ED3F2EE040A9FEDA00AFFF7EDFE39
:1038300002209949087006209349087000209A498F
:10384000086079E19A480078A8B197480068204458
:103850009549086008460068B0F5FA7F0BD30A2244
:103860006FF01801481D00F0BBFE07208649087064
:1038700000208D4908605FE18A480078A8B18A4835
:10388000006820448849086008460068B0F5FA7F5F
:103890000BD30A226FF02701AF2000F0A1FE082011
:1038A0007949087000208049086045E17D4800782A
:1038B000B8B17D48006820447B490860084600682C
:1038C000B0F5FA7F0DD302207A4908700A22C82188
:1038D000AF2000F085FE09206B4908700020724976
:1038E000086029E11FE101E1E6E0ACE090E072E070
:1038F00054E038E01DE0FFE76A480078C0B16A484C
:10390000006820446849086008460068B0F5FA7FFE
:103910000ED3F2EE040A9FED5F0AFFF776FE012058
:103920005D4908700A205849087000205E49086007
:1039300002E15C480078A8B15B48006820445A491D
:10394000086008460068B0F5FA7F0BD30A226FF0D2
:103950002701AF2000F044FE10204B4908700020E2
:1039600051490860E8E04F480078B0B14E4800681F
:1039700020444D49086008460068B0F5FA7F0CD332
:103980000A226FF027014FF4AF7000F029FE1120DA
:103990003D490870002044490860CDE04148007866
:1039A000C0B14148006820443F49086008460068AB
:1039B000B0F5FA7F0ED303203E4908700A22C821D1
:1039C0004FF4AF7000F00CFE12202F490870002059
:1039D00035490860B0E033480078C0B1324800682B
:1039E00020443149086008460068B0F5FA7F0ED3DC
:1039F000F2EE040A9FED2D0AFFF707FE022026498A
:103A0000087013202049087000202749086093E0BF
:103A100027480078B0B12448006820442249086053
:103A200008460068B0F5FA7F0CD30A226FF0270130
:103A30004FF4AF7000F0D4FD14201349087000203B
:103A40001949086078E017480078A8B1164800685E
:103A500020441549086008460068B0F5FA7F0BD38A
:103A60000A22FA214FF4AF7000F0BAFD1520064982
:103A7000087000200C4908605EE00000E4000020AF
:103A8000E6000020EC000020F400002000180020D8
:103A90000000000000000C43F6000020140100208C
:103AA000790100207A010020F00000200000DC42B3
:103AB000D8000020F5000020AF480078A8B1AF483A
:103AC00000682044AD49086008460068B0F5FA7FF8
:103AD0000BD30A22FA214FF4AF7000F081FD1620BB
:103AE000A74908700020A549086025E0A248007891
:103AF000C0B1A24800682044A04908600846006898
:103B0000B0F5FA7F0ED300209E4908705FED200AC1
:103B10001FED210AFFF788F9172099490870002046
:103B20009649086008E05FED260A1FED270AFFF7B7
:103B30007BF904F03FF900BF00BF10BD38B5044663
:103B4000022000906A46012100F06DFC6A460121C6
:103B5000022000F080FF01208B4908708B4800781C
:103B600000280BD08A48006820448949086008462C
:103B70000068C82803D12046FFF79CFDE5E0844893
:103B8000006840F6B831884202D104F004F9DCE064
:103B90007F48006840F6B8318842EFD37848007813
:103BA000042870D007DC68B1012828D0022834D05E
:103BB000032823D14CE005287ED007287DD0172884
:103BC000F7D1B8E07348C07C022817D101206C49B6
:103BD0000870F2EE0E0A1FED520A00F01BFBF2EE27
:103BE000040A1FED540AFFF710FD01206A4908700E
:103BF0005FED590A1FED5A0AFFF716F9A4E00120FC
:103C0000604908706549087005224B21084600F09C
:103C1000E7FC02205A49087096E057480078B0B196
:103C20005648006820445549086008460068B0F5C9
:103C3000FA7F0CD300F0E8FC0A220021084600F0CD
:103C4000CFFC03204E49087000204C4908607BE0FF
:103C500049480078A8B149480068204447490860AD
:103C600008460068B0F5FA7F0BD30A226FF0130103
:103C7000084600F0B5FC04204149087000203F4987
:103C8000086061E0FFE73C480078C8B13B48006845
:103C900020443A49086008460068B0F5FA7F0FD31F
:103CA00005226FF013014FF4AF7000F099FC05206E
:103CB00033490870002001E003E01FE02F4908604D
:103CC00042E02D480078C0B12C48006820442B49C0
:103CD000086008460068B0F5FA7F0ED30522FA2185
:103CE0004FF4AF7000F07CFC02202B4908700620D6
:103CF0002349087000202149086025E01E4800780B
:103D0000C0B11E48006820441C490860084600688D
:103D1000B0F5FA7F0ED300201A4908705FEDA40AAF
:103D20001FEDA50AFFF780F817201549087000203D
:103D30001249086008E05FEDAA0A1FEDAB0AFFF721
:103D400073F804F037F800BF00BF38BD01200D49FB
:103D50000870002011490870704701460020704724
:103D60000F490978814200D170470D490870002140
:103D70000C4A118000BFF7E77A010020F000002014
:103D8000F4000020140100200A0100200B01002093
:103D9000EC00002000180020F6000020790100202F
:103DA000E4000020E600002010B504462648B0F9E3
:103DB000440040F29E7188420DDD24480088204472
:103DC000224908800846008840F6B83188420BD165
:103DD00003F0E1FF08E01D480088002804DD002012
:103DE0001A49088003F0E6FF1748B0F9460040F290
:103DF0009E7188420CDD16480088204414490880D2
:103E00000846008864281EDB2046FFF754FC1AE0B1
:103E10000F480088002810DD00200D490880DFEDE4
:103E20000D0A9FED0C0AFEF7FFFF00200A490870FB
:103E30000A49087003F0BEFF05E0DFED060A9FEDBA
:103E4000050AFEF7F1FF10BD003700201001002029
:103E50001201002000000000140100207901002060
:103E6000694890ED420A694880ED010A664890ED84
:103E7000430A664880ED020A9FED650A80ED030A59
:103E8000614890ED440A614880ED040A9FED600AA4
:103E900080ED050A5C4890ED450A5E4880ED010A18
:103EA000594890ED460A5B4880ED020A9FED580A9A
:103EB00080ED030A544890ED470A564880ED040A05
:103EC0009FED530A80ED050A704710B52DED028B6A
:103ED000B0EE408A5048C07C022872D14F4800782A
:103EE00000286ED0F2EE042A9FED4D2A4D49474836
:103EF000DFED471A4C4A92ED001ADFED450AB0EEAD
:103F0000480A02F045FDF2EE042A9FED452A474992
:103F10004048DFED3F1A464A92ED001ADFED3C0AB9
:103F2000B0EE480A02F034FD3E4890ED090A4148DF
:103F300080ED000A3D4890ED090A3F4880ED000AF7
:103F40003E4890ED001AFFEE001A21EE211A3A4881
:103F5000D0ED001AB4EEE11AF1EE10FA07DB3748A3
:103F600090ED001AFFEE001A21EE211A10E03248FF
:103F700090ED001A3148D0ED001AB4EEE11AF1EEDE
:103F800010FA02DD90ED001A02E02B4890ED001AC5
:103F9000F0EE410A294890ED001AFFEE001A21EEDA
:103FA000211A2448D0ED001AB4EEE11AF1EE10FA0D
:103FB00008DB224890ED001AFFEE001A21EE211ACC
:103FC00011E014E01B4890ED001A1C48D0ED001AD7
:103FD000B4EEE11AF1EE10FA02DD90ED001A02E003
:103FE000144890ED001AB0EE410AFEF71DFFBDEC3B
:103FF000028B10BD0C4880ED000A0D48C0ED000A90
:104000000E4880ED001A7047E41D00206015002066
:104010000000000078150020001800201401002086
:10402000000048429015002018010020B81500201B
:104030001C01002024010020280100202001002074
:10404000A84890ED480AA84880ED010AA54890EDDF
:10405000490AA54880ED020A9FEDA40A80ED030AF3
:10406000A04890ED4A0AA04880ED040A9FED9F0AFF
:1040700080ED050A9E4890ED390A9E4880ED000AC1
:10408000704705E0DFED9C0A70EE600AB0EE600A52
:10409000DFED9A0AB4EEE00AF1EE10FAF2DC05E088
:1040A000DFED950A70EE200AB0EE600ADFED940AAB
:1040B000B4EEE00AF1EE10FAF2D3704710B52DED30
:1040C000048BB0EE409AF0EE608A39EE680AB0EEEA
:1040D000408A9FED8A0AB4EEC08AF1EE10FA06DD3E
:1040E0009FED850A38EE400AB0EE408A0CE09FED65
:1040F000840AB4EEC08AF1EE10FA05D29FED7E0A72
:1041000038EE000AB0EE408AB0EE480A01F0D6FE62
:10411000F0EE000AB4EEE00AF1EE10FA03D201204C
:104120007849087002E0002076490870B0EE480A2D
:10413000BDEC048B10BD10B52DED028BB0EE408AA6
:104140007148C07C022862D17048007800285ED097
:10415000684890ED000AFFF794FF6D4880ED000A73
:104160006348D0ED390AB0EE600AFFF78AFF69486C
:1041700080ED000AD0ED000A5E4890ED000AFFF7DE
:104180009DFF654880ED000AF2EE042A9FED632A48
:1041900063495548DFED551A5F4A92ED001ADFED8D
:1041A000530AB0EE480A02F0F3FB5D4890ED090AAD
:1041B0005C4880ED000A5C48D0ED000ABFEE001AB2
:1041C00060EE810A574890ED001AF4EEC10AF1EE54
:1041D00010FA07DB5448D0ED000ABFEE001A60EE7B
:1041E000810A10E04F48D0ED000A4F4890ED001AC8
:1041F000F4EEC10AF1EE10FA02DDD0ED000A02E0A1
:104200004848D0ED000AB0EE600AFEF745FEBDEC6E
:10421000028B10BD05E09FED381A30EE411AB0EE6A
:10422000410A9FED361AB4EEC10AF1EE10FAF2DC43
:1042300005E09FED311A30EE011AB0EE410A9FED14
:10424000301AB4EEC10AF1EE10FAF2D3B3EE0E1A40
:10425000F4EEC10AF1EE10FA04DDB3EE0E1AF0EE40
:10426000410A0FE0B1EE041AF4EEC10AF1EE10FAC1
:1042700005D2B1EE041A2C4880ED001A02E02A485B
:10428000C0ED000A1B4880ED000A704700B50146EA
:10429000F0EE401A2548017031B101290BD00229F6
:1042A00010D003291CD114E0F0EE610A9FED0F0A33
:1042B000FFF7B0FF14E0F0EE610A9FED1D0AFFF773
:1042C000A9FF0DE0F0EE610A9FED0C0AFFF7A2FFD7
:1042D00006E0F0EE610A9FED170AFFF79BFF00BFB3
:1042E00000BF00BDE41D0020E0150020000000001C
:1042F000A00100202C0100200000B4430000344342
:10430000000034C3420100200018002040010020BA
:104310003001002034010020380100200000484214
:10432000F8150020440100203C010020410100203C
:104330000000B4420000874370B504460E4615469F
:104340004848007880B1032C0DD12A460121032072
:1043500000F081FB01220321284600F0E6F901204C
:104360004149087000BF0FE0012C04D0022C03D09B
:10437000032C08D101E006E005E0012202212846D5
:1043800000F0D3F900BF00BF70BD10B50446374838
:104390000078052845D2DFE800F003090F18310046
:1043A000AA2C02D10120314908703AE0304804704B
:1043B00002202E49087034E02E48047000202E4957
:1043C00008700320294908702BE02B480078294900
:1043D0000978884208DA2948274909784454264848
:1043E0000078401C24490870234800782149097846
:1043F000884202D104201D49087012E0AF2C06D17A
:104400001E4A1C4801781A480078FFF795FF0020E3
:104410001849087015490870174908701449087040
:1044200000BF00BF10BD17B583B01446AA2002908C
:10443000AF200190012102A808F088F9012103A80A
:1044400008F084F9012104A808F080F99DF8101003
:10445000204608F07BF9012101A808F077F906B0A1
:1044600010BD00000A0100200B01002048010020BF
:10447000490100204A0100204B01002020160020A5
:1044800010B56748006867490968401A00EE100ACD
:10449000B8EEC00A644880ED000A644800686449C8
:1044A0000968401A00EE100AB8EEC00A614880EDB3
:1044B000000A6148007801280CD16049086800EBC7
:1044C000D071491000EE101AB8EEC00A5C4981EDB7
:1044D000000A07E0594890ED000AB8EEC00A5848B3
:1044E00080ED000A5748007830B1012810D002282A
:1044F0001CD0032838D129E0514890ED001A4D48CE
:10450000D0ED000A484890ED000AFFF773FD2BE05C
:104510004B4890ED001A4448D0ED000A454890ED14
:10452000000AB1EE400AFFF765FD1DE0444890ED3A
:10453000001A404890ED000AF1EE400A3A4890ED2A
:10454000000AB1EE400AFFF755FD0DE03C4890ED42
:10455000001A354890ED000AF1EE400A354890ED1A
:10456000000AFFF747FD00BF00BF2F4890ED000A8B
:1045700001F0A4FCF2EE0E0AB4EEE00AF1EE10FA3D
:104580000FD82C4890ED000A01F098FCF2EE0E0ACC
:10459000B4EEE00AF1EE10FA03D8012026490870C3
:1045A00002E000202449087010BD70B505460C4695
:1045B0002548007850B125480068281A1949086034
:1045C00023480068201A1A49086003E0154805606E
:1045D000174804601F48007808B1FFF751FF70BD0D
:1045E00010B50F4B1860114B1960052A03DA05232B
:1045F000124C236007E01E2A03DD1E230F4C2360AC
:1046000001E00E4B1A6010BD064800680F490860B3
:10461000074800680E49086001200B490870704780
:104620006001002058010020680100206401002082
:104630005C0100206C0100207A0100207001002044
:104640007401002041010020780100205001002069
:10465000540100207901002001B55148007801285B
:1046600006D0022810D0032816D0042844D12EE00A
:104670009DF80000FF2802D101204949087001215E
:10468000684608F09FFB37E09DF800004549087038
:104690000320434908702FE04348007843490978D4
:1046A00088420ADA9DF8000041493F4A127888544E
:1046B0003D480078401C3C4908703B4800783B4925
:1046C0000978884202D104203549087014E09DF829
:1046D0000000FE2806D1364A344801783148007877
:1046E000FFF72AFE0020314908702D4908702E4935
:1046F00008702C49087000BF00BF08BD70B50546A2
:104700000C46012D02D0022D0DD10BE02078294955
:10471000087060782849087001202849087000F066
:1047200071F800E000BF00BF70BD37B582B005462C
:104730001446AB200190CD200090012101A808F083
:1047400041FB012103A808F03DFB2146284608F063
:1047500039FB0121684608F035FB05B030BDF8B5DE
:1047600005460E460024002009E01549214405EBCA
:10477000800212680A60211DCCB2411CC8B2B0424E
:10478000F3DB10A0006800900D4820440099016000
:10479000201DC4B221460A4808F014FBF8BD0000F1
:1047A0007B0100207C0100207E0100207D01002093
:1047B0005816002008010020090100200B010020EC
:1047C000901600200000807F17B583B01446AA2001
:1047D0000290AF200190012102A808F084F8012185
:1047E00003A808F080F8012104A808F07CF89DF8DF
:1047F0001010204608F077F8012101A808F073F89E
:1048000006B010BD08B550A0006800906A460121AE
:104810000846FFF7D9FF08BD2DE9F04105460E46D1
:104820001446012D04D0022D1DD0032D1DD11BE0F7
:10483000042E17DB6078217840EA012007B2E07887
:10484000A17840EA01200FFA80F841463846FFF788
:10485000ACFE3E48007808B9FFF7D4FF01203B4981
:10486000087000BF01E000E000BF00BFBDE8F081BC
:1048700010B5044636480078052845D2DFE800F038
:1048800003090F183100AA2C02D101203049087009
:104890003AE03048047002202D49087034E02E4878
:1048A000047000202D4908700320294908702BE06E
:1048B0002A48007828490978884208DA2848274990
:1048C0000978445425480078401C2449087023483E
:1048D000007821490978884202D104201C490870D7
:1048E00012E0AF2C06D11E4A1B4801781948007807
:1048F000FFF792FF00201849087015490870174902
:1049000008701449087000BF00BF10BD08B50EA0A4
:10491000006800906A4601210220FFF755FF08BD9C
:1049200008B509A0006800906A4601210320FFF73E
:104930004BFF08BD08B5002000906A460121032006
:10494000FFF742FF08BD00000100000083010020C6
:104950007F010020800100208101002082010020D1
:104960009017002070B504460E4615464948007859
:1049700080B1032C0DD12A4601210320FFF753FDFE
:10498000012203212846FFF7D0FE0120424908708A
:1049900000BF11E0012C04D0022C03D0032C0AD15B
:1049A00001E008E007E0012211462846FFF7BDFEBE
:1049B000FFF728FF00BF00BF70BD10B504463748A1
:1049C0000078052845D2DFE800F003090F18310010
:1049D000AA2C02D10120314908703AE03048047015
:1049E00002202E49087034E02E48047000202E4921
:1049F00008700320294908702BE02B4800782949CA
:104A00000978884208DA2948274909784454264811
:104A10000078401C2449087023480078214909780F
:104A2000884202D104201D49087012E0AF2C06D143
:104A30001E4A1C4801781A480078FFF793FF0020AF
:104A4000184908701549087017490870144908700A
:104A500000BF00BF10BD17B583B01446AA20029056
:104A6000AF200190012102A807F070FE012103A8E8
:104A700007F06CFE012104A807F068FE9DF81010F5
:104A8000204607F063FE012101A807F05FFE06B093
:104A900010BD00000A0100200B010020840100204D
:104AA000850100208601002087010020C817002012
:104AB0000748C07A08B9012000E0002005490870C5
:104AC00001204870704710B505F0E7FF10BD0000E9
:104AD000001800204204002090ED031AB5EEC01A21
:104AE000F1EE10FA20DD90ED051AD0ED031AF1EE8B
:104AF000611AB4EEE11AF1EE10FA04D890ED031A3F
:104B0000B1EE411A0DE090ED051AD0ED031AB4EEA6
:104B1000E11AF1EE10FA02DD90ED031A01E090EDDA
:104B2000051AF0EE410A01E0D0ED050A90ED001AF9
:104B300031EE201A80ED061A90ED011AD0ED061A1A
:104B400031EE611AD0ED021A21EE211A80ED041A1D
:104B500090ED051AD0ED041A01EE801A80ED051AC9
:104B60007047D0ED000A90ED041A30EE811AD0EDB6
:104B7000050A41EE000AC0ED050AD0ED010A90EDEC
:104B8000051A70EEC10A90ED021A60EE810AC0EDBE
:104B9000040AD0ED030AF5EEC00AF1EE10FA1FDDAB
:104BA000D0ED040A90ED031AB1EE411AF4EEC10AF9
:104BB000F1EE10FA04D8D0ED030AF1EE600A0DE030
:104BC000D0ED040A90ED031AF4EEC10AF1EE10FAEA
:104BD00002DDD0ED030A01E0D0ED040AC0ED040AC5
:104BE0007047F0EE401A9FEDFC2A20EE822A22EE5A
:104BF000212AB7EE003AC3EE022AB7EE002A32EEBF
:104C0000822AB7EE003AC3EE022A90ED002A31EE76
:104C1000423A90ED002A02EE832A80ED002AB5EE9A
:104C2000C01AF1EE10FA02DDB0EE412A01E0B1EE59
:104C3000412AB0EE420A90ED002AF1EE402AB4EE8D
:104C4000E22AF1EE10FA02D8B1EE402A0BE090ED24
:104C5000002AB4EEC02AF1EE10FA02DDB0EE402ACE
:104C600001E090ED002A80ED012A7047F0EE401A35
:104C70009FEDD92A20EE822A22EE212AB7EE003AB1
:104C8000C3EE022AB7EE002A32EE822AB7EE003ACD
:104C9000C3EE022A90ED002A31EE423A90ED002A4E
:104CA00002EE832A80ED002A90ED002AB5EEC02A9C
:104CB000F1EE10FA02DD90ED002A03E090ED002AFB
:104CC000B1EE422AB0EE420AB1EE402AB4EEC21A68
:104CD000F1EE10FA02D8B1EE402A09E0B4EEC01AA3
:104CE000F1EE10FA02DDB0EE402A01E0B0EE412A0A
:104CF00080ED012A7047F0EE401A9FEDB72A20EEB2
:104D0000822A22EE212AB7EE003AC3EE022AB7EE3B
:104D1000002A32EE822AB7EE003AC3EE022A90ED64
:104D2000002A31EE423A90ED002A02EE832A80ED0D
:104D3000002AB5EEC01AF1EE10FA02DDB0EE412AFB
:104D400001E0B1EE412AB0EE420A90ED002AF1EE08
:104D5000402AB4EEE22AF1EE10FA02D8B1EE402A6F
:104D60000BE090ED002AB4EEC02AF1EE10FA02DD5D
:104D7000B0EE402A01E090ED002A80ED002A80ED9F
:104D8000012A70472DE9F84F04460D46DDF82880CA
:104D90004FF001094FF0000A0126B346CDF800B0EC
:104DA0000127DFED8E0AB0EE600A00208446D2F8BB
:104DB00008B0C2F80CB092F800B00BF1010B0BF088
:104DC000FF0B82F800B0AB4502DB834682F800B0EF
:104DD00092F800B044F82B80D2F80CB0A8EB0B0B83
:104DE00000EE90BAB8EEE01A00EE903AF8EE600AE3
:104DF000C1EE201AB0EE610AB5EEC00AF1EE10FA6B
:104E000002DDF0EE400A01E0F1EE400AB7EE001AD2
:104E1000F4EEC10AF1EE10FA2BD2B5EEC00AF1EEB3
:104E200010FA02DDB0EE401A01E0B1EE401A00EED9
:104E3000903AF8EE600A61EE200AB0EE001AF4EE45
:104E4000C10AF1EE10FA04D2DFED640AB0EE600A96
:104E50000FE0B5EEC00AF1EE10FA02DD4FF0010BE3
:104E600001E04FF0FF3B00EE90BAF8EEE00AB0EE42
:104E7000600AD06800BF00210DE054F821B0ABEB10
:104E8000000B54F821E0AEEB000E0BFB0ECC01F151
:104E9000010B0FFA8BF1A942EFDBD2F804B0ACEBB7
:104EA0000B0BBBF1000F11DDB9F1000F03D14FF077
:104EB000000BCDF800B04FF00109012F02D14FF0E7
:104EC000FF3B01E04FF0010B5F4607E04FF00009A8
:104ED0009E4203DA06F1010B0BF0FF06C2F804C094
:104EE0004FF0000C00EE900AB8EEE01A00EE907A57
:104EF000F8EEE00A00EE801AFDEEC10A10EE900A0C
:104F00000AF1010B0BF0FF0BDA469B4502DDE3468D
:104F1000CDF800B0022E03DB4FF0000BCDF800B04F
:104F2000DDF800B0BBF1010FA5D09060D2E902BE60
:104F3000ABEB0E0BC2F810B0BDE8F88F70B50546AC
:104F40000C461678761CF6B21670A64201DB0026D7
:104F50001670167805EB860686ED000A002009E03B
:104F600005EB800696ED001A03EB800686ED001A2D
:104F7000461CF0B2A042F3DB002029E0002121E032
:104F800003EB810696ED001A4E1C03EB8606D6ED68
:104F9000001AB4EEE11AF1EE10FA11DD4E1C03EB2B
:104FA0008606D6ED000A03EB810696ED001A4E1C2C
:104FB00003EB860686ED001A03EB8106C6ED000AB8
:104FC0004E1CF1B2661E361A8E42D9DC461CF0B277
:104FD000661E8642D2DC70BDC3F5C84000000000EA
:104FE00030B50C4615886D1CADB21580A54201DBAD
:104FF00000251580158800EB8505D5ED000A15887C
:1050000000EB850585ED000A70EE601A01EE104A8E
:10501000B8EE412A81EE821AD3ED001A31EE211A40
:1050200083ED001A93ED001AD3ED001A70EE611AA9
:10503000BFEE002AF4EEC21AF1EE10FA02D8FFEE2B
:10504000001A11E0D3ED001A70EE611AB7EE002AD3
:10505000F4EEC21AF1EE10FA02DDF7EE001A03E0E8
:10506000D3ED001A70EE611A9FEDA82A02EE211A04
:1050700083ED001A30BD5FED281A60EE211A21EE93
:10508000A02AF7EE002AC2EE821AB7EE002A71EECD
:10509000821AF7EE002A82EEA12AD0ED001A71EEF4
:1050A000612AD0ED001A42EE221AC0ED001A7047B4
:1050B00070B52DED0A8BB0EE408AF0EE608AB0EE4E
:1050C000419AF0EE619A044694ED001BB0EE410A5D
:1050D000F0EE610A53EC102B51EC190B15F00BFD9F
:1050E00041EC1B0B1FED440A28EE000A20EE280AB3
:1050F000B7EE001AC1EE000AB7EE000A30EE800AE1
:10510000F7EE000A80EE801A11EE105A284615F0CC
:105110009AFD41EC1C0B53EC1B2B15F0F2FC41ECFF
:105120001A0B94ED001BB0EE410AF0EE610A53EC4D
:10513000102B15F03FFCC4E90001BDEC0A8B70BDDB
:1051400090ED001A30EEC11AB4EEC01AF1EE10FA6A
:1051500006DD90ED001A31EE001A80ED001A13E022
:1051600090ED001A30EEC11AF1EE401AB4EEE11AD9
:10517000F1EE10FA06D290ED001A31EE401A80EDF1
:10518000001A01E0C0ED000A7047B0EE402A1FEDA2
:105190006E0A20EE800A20EE020AB7EE003AC3EE55
:1051A000002AB7EE000A32EE800AB7EE003AC3EEEC
:1051B000002A90ED000A31EE403A90ED000A02EE2E
:1051C000830A80ED000A90ED000AF1EE612AB4EE48
:1051D000E20AF1EE10FA02D8B1EE610A0BE090EDAE
:1051E000000AB4EEE10AF1EE10FA02DDB0EE610A57
:1051F00001E090ED000A80ED000A90ED000A31EE2A
:10520000400A704770B504460D461646D4ED020AB2
:1052100060EEA00A94ED011AD4ED011A41EE210AC4
:10522000B0EE600A00F038FF394880ED000AD4ED96
:10523000020A60EEA00A94ED001AD4ED001A41EEC5
:10524000210AB0EE600A00F027FF324880ED000A24
:1052500094ED020AB5EEC00AF1EE10FA02D24FF058
:10526000FF3000E001202C49087095ED000A284825
:10527000D0ED000A60EE200A94ED001A084690F97D
:10528000000000EE100AB8EEC00A21EE000A95ED0B
:10529000021A40EE410AC6ED000A084690F90000E5
:1052A00000EE100AB8EEC00A1A48D0ED000A20EE4F
:1052B000200AD5ED010A20EE200AD4ED010A95ED71
:1052C000021A00EEC10A86ED010A94ED000AD5ED3E
:1052D000000A20EE200AD4ED010A95ED011A00EE35
:1052E000810AD4ED020A95ED021A00EE810A86EDDC
:1052F000020A70BD70B504460D4616463246294670
:105300002046FFF77FFF70BD70470000ACC5273710
:10531000980100209C0100209401002090ED000ADB
:10532000D1ED000A20EE200AD0ED010A91ED011A1C
:1053300000EE810A82ED000A90ED000AD1ED010A2B
:10534000F1EE600A20EE200AD0ED010A91ED001A7C
:1053500000EE810A82ED010A704790ED000AD1ED5E
:10536000000A20EE200AD0ED010A91ED011AB1EEFB
:10537000411A00EE810A82ED000A90ED000AD1ED9B
:10538000010A20EE200AD0ED010A91ED001A00EE8C
:10539000810A82ED010A704730B502460B460020B3
:1053A00022E0DFEDFE0AB0EE600A002114E000EB1F
:1053B0004004FB4D05EB840404EB810494ED001ADA
:1053C00002EB8104D4ED001AF0EE400A41EE810AAE
:1053D000B0EE600A4C1CE1B20329E8DB03EB80016C
:1053E00081ED000A411CC8B20328DADB30BD2DE98B
:1053F000F0412DED068B86B0F0EE409A05468846CA
:1054000017461E46129C94ED000AD4ED010A20EEC8
:10541000200AE44880ED000A94ED000AD4ED020A67
:1054200020EE200AE04880ED000A94ED010A20EE0B
:10543000000ADE4880ED000A94ED010AD4ED030A6B
:1054400020EE200ADA4880ED000A94ED020A20EEF0
:10545000000AD84880ED000A94ED020AD4ED030A50
:1054600020EE200AD44880ED000A94ED030A20EED5
:10547000000AD24880ED000A94ED010AD4ED020A38
:1054800020EE200ACE4880ED000A94ED000AD4ED0B
:10549000030A20EE200ACB4880ED000A287DE8B3FD
:1054A00000203DE0002100EE101A00BF18E001EBE3
:1054B0004102BB4B03EB820202EB800292ED001A29
:1054C00004F17C0202EB8102D2ED001AF8EEC00A70
:1054D00041EE810AFDEEE00AB0EE600A4A1CD1B24C
:1054E0000329E4DBF8EEC00A04F1880101EB800136
:1054F000C1ED000A07EB8001D1ED000A04F188013B
:1055000001EB800191ED001A70EEC10A04F19401E3
:1055100001EB8001C1ED000A411C00E003E0C8B2CC
:105520000328BFDB0FE000200BE007EB800191EDCB
:10553000000A04F1940101EB800181ED000A411C95
:10554000C8B20328F1DBD4ED250A60EEA00A94ED81
:10555000261AD4ED261A41EE210A94ED271AD4ED2D
:10556000271A41EE210AB0EE600A00F06FFDF0EE5E
:10557000408AF5EEC08AF1EE10FA02D19FED870A5B
:1055800003E0F7EE000A80EEA80AB0EE40AA002081
:105590000EE004F1940101EB800191ED000A20EE90
:1055A000280A03A901EB800181ED000A411CC8B261
:1055B0000328EEDB7F4890ED000AF0EE000A20EEB3
:1055C000200A7E48D0ED000AB0EE001A01EE200A53
:1055D000F7EE000A30EEC00A84ED040A704880ED50
:1055E000000A774890ED000AF0EE000A20EE200A4B
:1055F0007448D0ED000AB0EE001A01EE600A84EDA6
:10560000050A674880ED010A694890ED000AF0EE4E
:10561000000A20EE200A6448D0ED000AB0EE001A1D
:1056200001EE200A84ED060A5D4880ED020A644816
:1056300090ED000AF0EE000A20EE200A6148D0ED5D
:10564000000AB0EE001A01EE200A84ED070A544861
:1056500080ED030A554890ED000AF0EE000A20EEB6
:10566000200A5648D0ED000AB0EE001A01EE200ADA
:10567000F7EE000A30EEC00A84ED080A484880EDD3
:10568000040A4D4890ED000AF0EE000A20EE200AD0
:105690004448D0ED000AB0EE001A01EE600A84ED35
:1056A000090A3F4880ED050A414890ED000AF0EEF6
:1056B000000A20EE200A3C48D0ED000AB0EE001AA5
:1056C00001EE600A84ED0A0A354880ED060A3A4880
:1056D00090ED000AF0EE000A20EE200A3148D0EDED
:1056E000000AB0EE001A01EE200A84ED0B0A2C48E5
:1056F00080ED070A2D4890ED000AF0EE000A20EE3A
:10570000200A2C48D0ED000AB0EE001A01EE200A63
:10571000F7EE000A30EEC00A84ED0C0A204880ED56
:10572000080AD0ED000A60EEA00A90ED031AD0ED51
:10573000031A41EE210AB0EE600A00F087FCB0EED9
:10574000409A174890ED000A20EE090A84ED0D0AF0
:1057500090ED030A20EE090A84ED0E0A002019E0FC
:1057600007EB800191ED000A04F1280101EB8001B3
:10577000D1ED000A9FED141A01EE600ABDEEC00AD9
:10578000B8EEC00A04F1400101EB800181ED000A8E
:10579000411CC8B20328E3DB002041E00000000008
:1057A00038180020880200208C020020900200207F
:1057B00094020020980200209C020020A0020020F9
:1057C000A4020020A802002000407544002100EE41
:1057D000101A00BF18E000EB4002F84B03EB820206
:1057E00002EB810292ED001A04F1400202EB810209
:1057F000D2ED001AF8EEC00A41EE810AFDEEE00A91
:10580000B0EE600A4A1CD1B20329E4DBF8EEC00A0C
:1058100004F14C0101EB8001C1ED000A411CC8B24A
:105820000328D3DB04F15802E54904F14C00FFF7EB
:1058300075FD9DED040AD4ED0C0A20EE200AD4ED8E
:105840000B0A9DED051A00EEC10ADE4880ED000A44
:105850009DED030AD4ED0C0A20EE200AD4ED0A0ACD
:105860009DED051A10EE810A80ED010A9DED040AF6
:10587000D4ED0A0A20EE200AD4ED0B0A9DED031A9E
:1058800010EE810A80ED020A00200CE036F91010BB
:1058900000EE101AB8EEC00ACB4901EB800181ED91
:1058A000000A411CC8B20328F0DB308818B97088A0
:1058B00008B9B088E8B304F16401C348FFF76CFD90
:1058C000D4ED190A60EEA00A94ED1A1AD4ED1A1A52
:1058D00041EE210AB0EE600A00F0B8FBF0EE40AAFB
:1058E00094ED190A20EE2A0AB84880ED020A94EDD8
:1058F0001A0A20EE2A0A80ED030A0146083000F059
:10590000ADFEB34880ED000AB04901F1080000F097
:10591000B2FEB04880ED000A90ED000AB5EEC00A74
:10592000F1EE10FA26D2AA4890ED000ADFEDAA0A9D
:1059300000E020E0B4EEE00AF1EE10FA01DD012013
:105940000DE0A34890ED000ADFEDA40AB4EEE00AF2
:10595000F1EE10FA02D24FF0FF3000E0002000EE2E
:10596000100AB8EEC00AF7EE000A20EE200A9848A6
:1059700080ED000A00BF00207CE09FED990AB4EEA4
:10598000C0AAF1EE10FA06DC9FED960AB4EEC0AAAA
:10599000F1EE10FA08D21FED7F0A8A4981ED020A62
:1059A00081ED010A81ED000A8F4901EB800191ED43
:1059B000000A844901EB8001D1ED000A9FED8B1AAA
:1059C000F4EEC10AF1EE10FA02D8DFED880A13E016
:1059D0007C4901EB8001D1ED000A9FED851AF4EEC0
:1059E000C10AF1EE10FA02DDDFED810A04E075492B
:1059F00001EB8001D1ED000A60EEA90A7D4991ED2D
:105A0000001A00EE810A784901EB800181ED000A5D
:105A10006C4901EB800191ED000A734901EB8001B3
:105A2000D1ED000A70EE200A08EB800191ED000A2A
:105A3000714991ED001A00EE810A04F1280101EB91
:105A40008001D1ED000A624991ED001A60EE810AF1
:105A50006A4991ED001A00EE810A20EE290AF0EE63
:105A6000000A80EE201A694601EB800181ED001AE0
:105A7000411CC8B2032880DB94ED000AD4ED010A72
:105A80009DED001A00EEC10AD4ED020A9DED011A47
:105A900000EEC10AD4ED030A9DED021A00EEC10A20
:105AA00084ED000A94ED010AD4ED000A9DED001A80
:105AB00000EE810AD4ED020A9DED021A00EE810A81
:105AC000D4ED030A9DED011A00EEC10A84ED010A2E
:105AD00094ED000ADDED010A20EE200AD4ED010A62
